:020000040000FA
:20000000CC0A002045000000E9000020EB000020ED000020ED000020ED000020000000006A
:20002000000000000000000000000000DB000000ED00002000000000ED000020DD010020CD
:20004000ED00002049F640400138FDD100F011F800F010F800F056F818B100F058F800F0A5
:200060005BB84FF440602349086001688D46406800477047002200234FF0005050F8041B99
:20008000452905D150F8041B452901D145220368194840F8042B40F8042B036000204FF0B2
:2000A0000051164A50F8043B41F8043B9142F9DB0020134A41F8040B9142FBDB0D484FF0E7
:2000C000005101604EF0005E7047EFF3108072B67047EFF3108062B67047FFF7CBFF0020A9
:2000E0000068854600F018B8FEE7FEE7FEE70138FDD1704708ED00E0FC09002084090020F9
:200100008409002040F2251CC2F2000C604740F2ED1CC2F2000C604740F2812CC2F2000C17
:200120006047000070B5274C206840F0040020604FF0C80000F000FC206840F040002060D9
:20014000214DFF20C5F820014FF0C80000F0F4FB28681E4908700878401CC0B20870216890
:2001600021F0400121601A490A68452A04D14A68452A01D1012070BD88604FF44061086816
:20018000421C0BD04FF40072B2EB105F06D14868411C03D00F490840012801D0012070BDC6
:2001A0000D4CD4F8A00440F02000C4F8A00444F6206000F0C1FB606808B9012070BD002069
:2001C00070BD000008E10F40FC63024066090020FC0900200100F0FF7C600040B4484169B3
:2001E000491C41610179491C0171704770B5B14C54F8640C20F0010044F8640C4FF40020F2
:2002000000F09AFB54F8640C20F0300044F8640C0725E56700F069FB00F02FFB00F028FAB9
:2002200000F070FAA2498020087041F2883000F083FB41F63F714FF0E02041610561606C0E
:2002400040F001006064206C40F0010020649A48016841F003010160D0F8FC1041F003017E
:20026000C0F8FC1095484FF0340141624FF0050181624FF07001C16240F20131016370BDD6
:200280002DE9F84F8A4E8E4830614FF0FF30F06000273771F770DFF828828A4C4FF0400BED
:2002A000A8F103080125752000906946306900F023F90028F7D13069017820390A2973D228
:2002C000DFE801F0050A46737BD5EBEBDDE586F801B000F008F9E6E786F801B000980928D1
:2002E00002D0422070702CE0D8F8040000BAF060D8F8081009BAB1606E4AC43A926892B250
:20030000521CD202F37803B110B1B0F5406F04D10144914201D8810702D04320707010E014
:200320006561694B06E02060A360A1688907FCD400F580609042F6D3E068C00701D04420BD
:2003400070707078402800D0B76000F0CCF8AAE700F0C9F80098052802D042207070A2E72E
:20036000D8F8040000BAF0605249C439896801F48031C902884202D34320707093E700F059
:2003800023F94C48C438C0F80471C0F8087141F2110141640321816447648764F0688047AB
:2003A0004B494A480860FEE777E000F09CF840480121401C00F0E3F875E786F801B0F0683B
:2003C00098B965610020404A4FF440632060A260A1688907FCD400F580609842F6D3E068CB
:2003E000C00702D0B760442070700099491E0091D6F80890894525D365610020DFF8C8A027
:20040000CB1CAAF1010A23F0030CF2680CE01318236005EB900358F823306360C4F808A0EC
:20042000A368DB07FCD1001D8445F0D8E068C00702D04420707007E0A9EB0100B06050183B
:20044000F06001E0432070703078401CC0B23070410709D5000603D5377000F062F903E039
:200460008020307000F04EF900F03DF81BE700F03AF800F0A9F8164914480860FEE700998A
:20048000022999D141780E48753081600BE70099022991D14078F07005E700F024F80848BA
:2004A000B17875308068884286D141207070FAE664090020C4E00F402044004000C0004020
:2004C0008709002000D00F40020042A40400FA050CED00E0002202E010F8013B1A44491E7C
:2004E000FAD2D0B270470221364800F075B835480221801C00F070B82DE9FC4105460E46F3
:2005000000200190012101A800F078F80028F9D001980328F6D3CC28F4D00198801E019001
:200520000121684600F06AF804464FF0FF3714B93846BDE8FC813068019988420FD3284621
:2005400000F05CF838B128460199FFF7C3FF0099C9B288420FD0FFF7CAFF3846E9E70121C2
:20056000284600F04BF80199491E01910CB10029F5D13846DDE7019830600020D9E713B588
:2005800082B0044620460399FFF7A4FF01900398801C0390012103A800F01EF8012101A84B
:2005A00000F01AF803992046891E00F015F800200190012101A800F021F84FF0FF3004B0EC
:2005C00010BD000042090020184881690906FCD581690907FCD47047154A9268154B1B78EC
:2005E0009A420AD1114A05E093699B06FCD410F8013B1360491EF7D2E6E7704730B50E4AEF
:2006000000251570094B04E01478642C01D9002030BD9C69E406F7D41C6800F8014B1570EE
:20062000491E0029F5D1FF2030BD000000C00040FC090020660900206809002030B502220A
:20064000C0F303213C4D1346032900D20B4605EB8303D3F800314FF0010404FA00F443EABD
:20066000040300D20A4605EB8200C0F8003130BD70B5324C0721204600F04CF94FF04025FF
:2006800000221021284600F008F940F2712000F053F910221146284600F0FFF841F66A002A
:2006A00000F04AF9A421204600F03DF9BDE870404FF2244000F040B92DE9F04105461F4FD3
:2006C0000F21384600F026F900241D4E45EA04000002902D0BD1315D01F07F021E2A02D2E4
:2006E000184B9A5C104301F08001014301E0315D0143384600F017F9641CE4B2082CE5D365
:20070000BDE8F0810E48142101704170162282701B22C2700271192242718171C171902048
:20072000CAE70020064A15211154401CC0B20828FAD39020C0E7000000E00F4000800040EC
:200740007C0900204609002010B5D40703D0D0F800450C4302E0D0F800458C43C0F80045FB
:20076000940703D5D0F804450C4302E0D0F804458C43C0F80445540703D5D0F808450C434C
:2007800002E0D0F808458C43C0F80845120703D5D0F818250A4302E0D0F818258A43C0F8DF
:2007A0001825DA0703D0D0F80C250A4302E0D0F80C258A43C0F80C259A0703D5D0F81025FB
:2007C0000A4302E0D0F810258A43C0F810255A0703D5D0F814250A4302E0D0F814258A43FC
:2007E000C0F814251A0703D5D0F81C250A4302E0D0F81C258A43C0F81C251BB9D0F828251F
:200800000A4302E0D0F828258A43C0F8282510BDD30703D0D0F800340B4302E0D0F8003420
:200820008B43C0F80034920703D5D0F820240A4302E0D0F820248A43C0F82024704730B5E1
:2008400004460D46022229462046FFF7E1FF29462046BDE830400823012275E730B5044669
:200860000D46012229462046FFF7D2FF29462046BDE830400823012266E710B54FF4407029
:20088000FFF7DCFE4FF0402410212046FFF7E6FF2046BDE810402C21D1E740F821207047E3
:2008A000416841F002014160704770B5DDE904650824022B00D000240BB9002300E0042374
:2008C00023434360B1FBF6F40021891CB4FBF1F35B1EFF2BF9D80161910102F0300241EA69
:2008E000032111432943016070BD1CB54FF48270FFF7A4FE072344F62062CDE900230D4CD0
:2009000000231A460A492046FFF7CFFF2046BDE81C40C5E7C268D207FCD0026822F00F0268
:200920000A4302607047C2689207FCD58160704700127A000080004040F2EF0CC0F2000CEE
:20094000604700CC00337E306D79335B5F707F7B777F4E7E4F477B370E7701001F3D3E0FCD
:20096000151D67760000000000000000000000000000000000000000000000000000000068
:20098000000000000000000000000000000000000000000000000000000000000000000057
:2009A000000000000000000000000000000000000000000000000000000000000000000037
:2009C000000000000000000000000000000000000000000000000000000000000000000017
:2009E0000000000000000000000000000000000000000000000000000000000000000000F7
:200A00000000000000000000000000000000000000000000000000000000000000000000D6
:200A20000000000000000000000000000000000000000000000000000000000000000000B6
:200A4000000000000000000000000000000000000000000000000000000000000000000096
:200A6000000000000000000000000000000000000000000000000000000000000000000076
:200A8000000000000000000000000000000000000000000000000000000000000000000056
:200AA000000000000000000000000000000000000000000000000000000000000000000036
:200AC000000000000000000000000000000000000000000000000000000000000000000016
:200AE0000000000000000000000000000000000000000000000000000000000000000000F6
:200B00000000000000000000000000000000000000000000000000000000000000000000D5
:200B20000000000000000000000000000000000000000000000000000000000000000000B5
:200B4000000000000000000000000000000000000000000000000000000000000000000095
:200B6000000000000000000000000000000000000000000000000000000000000000000075
:200B8000000000000000000000000000000000000000000000000000000000000000000055
:200BA000000000000000000000000000000000000000000000000000000000000000000035
:200BC000000000000000000000000000000000000000000000000000000000000000000015
:200BE0000000000000000000000000000000000000000000000000000000000000000000F5
:200C0000B8230020010D0000050D0000070D0000090D0000090D0000090D00000000000063
:200C2000000000000000000000000000090D0000090D000000000000090D00005D220000F3
:200C4000090D0000F327000019290000090D0000090D00006B230000B1240000090D00007D
:200C6000090D0000090D0000090D0000090D0000090D0000090D000069230000090D00004E
:200C8000090D0000090D0000592200008F2500000926000033260000A5270000BB270000C3
:200CA000D9270000090D0000090D0000090D0000090D0000090D000023290000090D000064
:200CC000090D0000090D0000090D0000090D0000090D0000090D0000090D0000D72900007A
:200CE000090D0000090D0000090D0000090D0000090D0000090D0000090D0000090D000044
:200D000000F004B8FEE7FEE7FEE70000DFF80CD005F03EFF00480047AD210000B82300203B
:200D20000138FDD17047000070B50E46FF4D29680C68296804EA0000086030684FF001006C
:200D4000FFF7EEFF306829680C6070BD01600120FFF7E6BF0146F64A6FF080031846914237
:200D60000AD0F44A6FF48070914205D0F24A6FF40070914200D01846704770B504460D46D7
:200D80002046FFF7E7FF06469DB1012D1DD0022D29D0032D35D104F5B0713046FFF7C4FFB5
:200DA000054604F5B2713046FFF7BEFF45EA004070BD211D3046FFF7B7FF05466FF01F01DD
:200DC000201DFFF7C3FF284670BD04F580713046FFF7AAFF054604F582713046FFF7A4FF3E
:200DE00045EA004070BD04F590713046FFF79CFF054604F592713046FFF796FF45EA00409F
:200E000070BD002070BD2DE9FC4704460D4691464FF00008CDF80480CDF80080002620462A
:200E2000FFF798FF824604F1200739465046FFF77BFF0004F9D4B321B9F1020F18D04FF431
:200E40000050B9F1030F16D0B9F1040F7DD1ADF802004FF490562A68100620D5500617D5E6
:200E6000A868ADF80400C0F30C40ADF8060016E0ADF80280EFE7ADF802004FF480564FF617
:200E8000FF70ADF80400C010ADF80600F321E2E7ADF80480A868C0F38C10ADF80600100699
:200EA00007D5900505D5BDF8060040F40040ADF80600100607D5D00505D5BDF8060040F47D
:200EC0008040ADF80600100603D4900501D4D00503D546F4805641F04001500613D5BDF82E
:200EE000003068680343ADF80030BDF80230C0F30C400343ADF80230BDF8020040F4404069
:200F0000ADF802000DE06B68BDF80200C3F38C131843ADF80200BDF8020040F40040ADF88C
:200F20000200C2F30300304340F08006900601D546F4806604F12400FFF708FFBDF8041063
:200F400004F12800FFF702FF00E01DE0BDF8061004F12C00FFF7FAFEBDF8001004F13000DC
:200F6000FFF7F4FEBDF8021004F13400FFF7EEFE314604F13800FFF7E9FE2868C0F30441AE
:200F80003846BDE8FC47E1E6BDE8FC87FEB506466A486C460EC884E80E0002226946304600
:200FA000FFF731FF65480C300EC884E80E00644D28788DF80500022269463046FFF723FF96
:200FC0005E4824300EC884E80E0028788DF80500022269463046FFF716FF584830300EC873
:200FE00084E80E00022269463046FFF70CFF53483C300EC884E80E0028788DF80500022288
:2010000069463046FFF7FFFE4C4848300EC884E80E0028788DF80500022269463046FFF7F3
:20102000F2FE464854300EC884E80E00022269463046FFF7E8FE414860300EC80EC42878D8
:201040008DF80500022269463046FFF7DCFEFEBD70B505460C462846FFF77CFE2946FFF72D
:2010600063FE40EA04012846BDE870406EE610B504462046FFF76EFE2146FFF755FE20F032
:2010800001012046BDE8104060E670B504460E462046FFF75FFE2146FFF746FE054645F010
:2010A00041012046FFF752FE04F10C003168FFF74DFE002104F11800FFF748FE25F04001A7
:2010C000C80701D021F001012046BDE870403DE62DE9F04105462846FFF73CFE07460121E0
:2010E0002846FFF733FE05F1200631463846FFF71BFE0004F9D405F12400B0218046FFF7C3
:2011000025FE002105F13400FFF720FE002105F13800FFF71BFE012431463846FFF704FEDD
:201120000004F9D4214630460CE0000004E100E00000044000100440002004405875000087
:201140001C010020FFF702FE641C202CE4D90C214046FFF7FBFD012431463846FFF7E4FD41
:201160000004F9D421463046FFF7F0FD641C202CF2D9291D3846BDE8F041D5E538B51820CE
:2011800000F072FD4FF4A2500090B44C2046FFF79FFF69462046FFF778FF2046FFF767FFED
:2011A0000A212046FFF754FF2046FFF7EFFE00212046FFF7E2FD38BD2DE9F04105460E46D5
:2011C000174600240DE02046295C641CBC4204D22046285C641C41EA00213046FFF7B6FD8D
:2011E000361DBC42EFD3BDE8F0812DE9F04180460D4616461F4600240DE031464046FFF7A1
:2012000093FD361D2146641C6854BC4203D2000A2146641C6854BC42EFD3E4E770B50446CE
:201220000E462046FFF796FD05467EB1012E13D104F5A0712846FFF777FD86B204F5A271B8
:201240002846FFF771FD46EA004070BD04F110012846BDE8704067E5002070BD2DE9F04176
:2012600004460F462046FFF775FD0546B7F5004F04D1211D2846BDE8F04155E504F120060F
:2012800031462846FFF750FD0004F9D4082104F12400FFF75BFD07F03F013046FFF756FDCF
:2012A00031462846FFF740FD0004F9D49BE770B505460C462846FFF74DFD05F10801FFF75E
:2012C00033FDC0F30E012180000401D5012070BD002070BD2DE9F84304460D46904600261C
:2012E00000962046FFF736FD814604F1200739464846FFF719FD0004F9D44FF0B309B8F158
:20130000000F4CD14FF42040ADF802002868C0F3030242F4C078C10601D548F40068410619
:201320000FD56968ADF80010C1F30C4141F42041ADF80210BDF8021041F48041ADF8021081
:2013400008E0ADF800606968C1F38C1141F42041ADF80210000705D004F13C0105F1080025
:20136000FFF72AFF494604F12400FFF7EFFCBDF8001004F13000FFF7E9FCBDF8021004F144
:201380003400FFF7E3FC414604F13800FFF7DEFC2868C0F304413846BDE8F843D6E4BDE87B
:2013A000F8832DE9F84305460C461646002000902846FFF7CFFC0746772106B17F2105F157
:2013C0008400FFF7C3FC2068C0F3044105F180000646FFF7BBFC31463846FFF7A5FC000455
:2013E000F9D405F190013846FFF79EFC1FFA80F8ADF8008005F194013846FFF795FC86B20D
:20140000ADF8026005F198013846FFF78DFC80B2710409D5C6F30C0148EA01416160216830
:2014200041F04001216002E0F104490B616001040ED5216860F303012160C1F3030305F1D4
:201440009C0204F10801384601B0BDE8F043CCE6206820F00F002060A1E700000000044044
:2014600040F821207047D0F810240A43C0F810247047D30703D0D0F808340B4302E0D0F8A7
:2014800008348B43C0F80834930703D5D0F804340B4302E0D0F804348B43C0F80434520795
:2014A00003D5D0F80C240A4302E0D0F80C248A43C0F80C24704710B5D40703D0D0F8004549
:2014C0000C4302E0D0F800458C43C0F80045940703D5D0F804450C4302E0D0F804458C436D
:2014E000C0F80445540703D5D0F808450C4302E0D0F808458C43C0F80845120703D5D0F8D0
:2015000018250A4302E0D0F818258A43C0F81825DA0703D0D0F80C250A4302E0D0F80C25C3
:201520008A43C0F80C259A0703D5D0F810250A4302E0D0F810258A43C0F810255A0703D560
:20154000D0F814250A4302E0D0F814258A43C0F814251A0703D5D0F81C250A4302E0D0F8A3
:201560001C258A43C0F81C251BB9D0F828250A4302E0D0F828258A43C0F8282510BDD307BE
:2015800003D0D0F800340B4302E0D0F800348B43C0F80034920703D5D0F820240A4302E0EA
:2015A000D0F820248A43C0F82024704730B504460D46012229462046FFF7E1FF294620467A
:2015C000BDE830400823012275E730B504460D46002229462046FFF7D2FF29462046BDE892
:2015E00030400823012266E730B504460D46022229462046FFF7C3FF29462046BDE83040C3
:201600000823012257E730B504460D46022229462046FFF7B4FF29462046BDE83040082305
:20162000012248E730B504460D46022229462046FFF7A5FF29462046BDE830400823042208
:2016400039E730B504460D46022229462046FFF796FF29462046BDE83040082301222AE71B
:201660002DE9F0414FF4407000F0FEFA40F2013000F0FAFA40F2023000F0F6FA40F2033058
:2016800000F0F2FA4FF4417000F0EEFA40F2053000F0EAFA40F2073000F0E6FA4FF040248B
:2016A00003212046FFF7AFFF10212046FFF77EFF2C212046FFF7C5FFC0212046FFF794FFB5
:2016C0003F4C03212046FFF78FFF04212046FFF77CFF08212046FFF769FF3A4D1021284662
:2016E000FFF782FF60212846FFF76FFF80212846FFF75CFF344E03213046FFF793FF0C21EF
:201700003046FFF780FF10213046FFF76DFFC0213046FFF74BFF0F212C48FFF747FF2C4EE4
:2017200047213046FFF742FFB8213046FFF74DFF284F02213846FFF748FF0D213846FFF70C
:2017400035FF0A23012204212046FFF7B4FE002204212046FFF78DFE04212046FFF783FEA2
:201760000A23012220212846FFF7A5FE002220212846FFF77EFE20212846FFF774FE0A234A
:20178000012238213046FFF796FE002238213046FFF76FFE38213046FFF765FE02F0E1FF7F
:2017A0003046BDE8F0410022402159E6D0F810248A43C0F81024704750F82100704700008F
:2017C0000050004000600040007000400040024000500240007002404FF0E021042806D120
:2017E000D1F8240D40F48030C1F8240D7047052806D1D1F8240D40F40030C1F8240D704767
:20180000062806D1D1F8240D40F48020C1F8240D70470F2804D1086940F002000861704785
:20182000103800F01F0301229A40400901EB8000C0F80021704710B58307FF22DB0E9A40D9
:2018400099404FF0E02410280BD2631703EB900004EB8000D0F8183D93431943C0F8181DB4
:2018600010BD6FF0030303EB900004EB8000D0F8003493431943C0F8001410BD00B5A0210C
:201880000F20FFF7D8FFC0211520FFF7D4FFC0211620FFF7D0FF60212320FFF7CCFF0021EB
:2018A0002420FFF7C8FF20212520FFF7C4FF60212620FFF7C0FF40212720FFF7BCFF802172
:2018C0003720FFF7B8FF60211120FFF7B4FF60211220FFF7B0FF60212E20FFF7ACFF0F20B2
:2018E000FFF77AFF1520FFF777FF1620FFF774FF2320FFF771FF2420FFF76EFF2520FFF7AE
:201900006BFF2620FFF768FF2720FFF765FF3720FFF762FF1120FFF75FFF1220FFF75CFF63
:201920002E205DF804EB57E710B500F039FCC0B210BD10B500F030FCC0B210BD4FF0E0214E
:20194000042806D1D1F8240D20F48030C1F8240D7047052806D1D1F8240D20F40030C1F82A
:20196000240D7047062806D1D1F8240D20F48020C1F8240D70470F2804D1086920F002009C
:2019800008617047103800F01F0301229A40400901EB8000C0F8802170470000416841F031
:2019A00002014160704770B5DDE904650824022B00D000240BB9002300E004232343436034
:2019C000B1FBF6F40021891CB4FBF1F35B1EFF2BF9D80161910102F0300241EA03211143E9
:2019E0002943016070BD1CB54FF4827000F03CF9072344F62062CDE900230D480D4C002332
:201A000001681A462046FFF7CEFF2046BDE81C40C4E7C268D207FCD0026822F00F020A4319
:201A200002607047C2689207FCD58160704700002001002000800040F0B5A54C236E216FA9
:201A400001F07000002901DB03F03000A14D4FF0805620281DD00CDC90B1102844D12068C7
:201A600010F0E04F03D020682840B0420FD19A481DE0302819D0702836D14FF4004016E06A
:201A8000964803F4F86200EB121000680FE094480DE0206810F0E04F03D020682840B0427E
:201AA00001D1904803E0904801E047F23050002901DA0A0505D501F0004203F400673A432C
:201AC00023D1626E276817F0E04F03D024682C40B4420BD1C2F34814A41C604302F01F0457
:201AE000A41CB0FBF4F00AE00020F0BDC2F34814604302F01F04641C6400B0FBF4F054044C
:201B000000D54008120400D580085A02EDD5002905DAC1F3C551491CB0FBF1F0F0BDC3F3F1
:201B2000C351491CB0FBF1F0F0BD2DE9F0410446DFF89C81D8F8000010F0E04F06D0D8F8C9
:201B4000000064490840B0F1805F01D1002C75DBD8F86010D8F8700041F4006121F4800512
:201B600040F40066C8F86050C8F87060A80701D5A00703D525EA0400C0071BD064F00300AB
:201B80000540C8F86050002E05DAC6F30210032807D0072805D0002E08DBC5F301100328AD
:201BA00004D14FF48050FFF7BBF803E04FF40020FFF7B6F843F2F070854304EA00072F43E6
:201BC0004A4806404A4904EA0100304304F0080140EAC1054020C8F85800002D04DAC8F808
:201BE0007050C8F8607003E0C8F86070C8F870501020FFF795F83F480740C04304EA00012F
:201C0000394325F0FC5004F0FC52024320050CD44FF40040D8F850305B0602D4401E0028CB
:201C2000F8D121F4006122F40062C8F86010C8F87020BDE8F0411020FFF772B8BDE8F08131
:201C400023494863704710B52148006880B2022802D11B20FFF7F4FF2748FFF766FFFFF70D
:201C6000EBFE2649086010BD30B50222C0F30321174D1346032900D20B4605EB8303D3F8AA
:201C800000314FF0010404FA00F443EA040300D20A4605EB8200C0F8003130BD30B5022236
:201CA000C0F303210A4D1346032900D20B4605EB8303D3F800314FF0010404FA00F423EA99
:201CC000040300D20A4605EB8200C0F8003130BD00E00F400000FF70C0E1E400F475000007
:201CE000001BB70070383900C0C62D008FDFFF7F30200080FCFF3FF88003C0032001002009
:201D00004FF0E020016941F00201016170474FF0E020016941F0050101617047401E4FF037
:201D2000E0214861704700B506484FF47A710068B0FBF1F0FFF7F2FFFFF7E9FF5DF804EB14
:201D4000DEE7000020010020C26840F2011319400A43C260704782690A438261704711F0BB
:201D6000FF0F00D0026311F47F4F00D04263704711F0FF0F00D0826211F47F4F00D0C26297
:201D800070470A4040F60C431A40C16899431143C160704744F24003194012B1C2680A4326
:201DA00001E0C2688A43C2607047C26840F201139A43C2600A0E0260CAB24260C1F307218F
:201DC000816070472DE9F0474FF48870FFF74CFFDFF87481DFF8749141464846FFF7E5FF0B
:201DE00040F204442246FF214846FFF7CAFF5848FF2102884846FFF7BBFF0022FF2148463C
:201E0000FFF7ADFF01214846FFF7A5FF4FF47F45224629464846FFF7B4FF4FF400463246C0
:201E200029464846FFF7A4FF002229464846FFF796FFF71139464846FFF78DFF29464846CE
:201E4000FFF782FF40F21110FFF70EFF4146DFF804814046FFF7A9FF2246FF214046FFF7AA
:201E600090FF3D48FF2102884046FFF781FF0022FF214046FFF773FF01214046FFF76BFF70
:201E8000FF214046FFF760FF224629464046FFF778FF3248294602884046FFF769FF002204
:201EA00029464046FFF75BFF39464046FFF753FF4FF48970FFF7D8FEDFF8A8802849404692
:201EC000FFF773FF2246FF214046FFF75AFF3246FF214046FFF74CFF0022FF214046FFF720
:201EE0003EFF01214046FFF736FFFF214046FFF72BFF012229464046FFF74CFF22462946DC
:201F00004046FFF73EFF40F6BF1229464046FFF72FFF40F2E14229464046FFF720FF39460A
:201F20004046FFF718FF29464046BDE8F0470BE7C26840F2011319408A43C26070478269F1
:201F40008A43826170470000030300040000034044000020001003408600002076000020DA
:201F6000030A000400200340826B0A4382637047114341637047C16A41F01001C162016B6C
:201F800040F2013211430163704781690907FCD4C16A21F01001C162016B40F2013291438E
:201FA0000163704770B504460E4615462046FFF7ECFFF000B0FBF5F0401C40088109616230
:201FC00000F03F00A062D8B2E0620020A0612046BDE87040CFE72DE9F04186B004463E4825
:201FE00050F824603D483E4A50F82400C0F30261555CC0F3834161F34615C0F3815161F3D6
:20200000C3050495374FC0F31108404604F0C2FB0146384604F0CBF904F0FAFBCDE90201B7
:2020200031A00CC8029804F002FACDE9000104F04DFC2F492F4F884202DA3220385508E01A
:202040002D49884202DDFA20385502E004F0B4FB38552A482B46016842463046FFF7A2FFC7
:20206000202200213046FFF783FF304606B0BDE8F041702178E710B54FF48070FFF7F4FD3E
:2020800040F20110FFF7F0FD154914488A680260C96841600020FFF79EFFBDE81040012071
:2020A00099E7806940F30010401C70470068704782699206FCD4016070478069C0F3C0007B
:2020C0007047826B8A438263704709B1006C7047C06B704741647047D07700005C01002014
:2020E0005076000000401C47000000000000E03F000048424601002000007A432001002069
:202100004FF08040816841F00101816070471E48016841F48071016070474FF08040816817
:2021200041F00201816070474FF080410860704701208107C8607047154914480860704753
:2021400010B50320FFF790FDFFF7F6FFFFF7F0FF10484FF47A710068B0FBF1F049104843E6
:20216000FFF7E2FFFFF7D9FFFFF7D1FFBDE81040C6E74FF080400068704700B5FFF7F9FF91
:202180005DF804EBD0E700001804004051E5CC1A000C004020010020EFF3108072B67047EE
:2021A000EFF3108062B6704730BF704710B54FF4FA70FEF7B5FD4FF22440FEF7B1FDFFF7E1
:2021C000B8FBFFF740FD00F02BFEFFF749FAFFF7AAFDFFF708FCFFF74EFFFFF7F3FDFEF712
:2021E000CDFFFFF7ADFF00F0E9FCFFF747FBFFF79BFBFFF7C2FF01F075F800F094FF01F04F
:2022000088F801F0D9F901F03FF8002001F0D3FA012001F0D0FA002001F076FA002001F007
:202220001EFA012001F070FA012001F018FA02F02DF902F04CF902F08BFD03F081FF00F0BA
:202240009DFD01F0D4FC01F0ECFD01F09AFD01F0CEFF02F055F8CCE7FFF76ABF10B5FF48E6
:202260000168491C0160FE480178491C0170FD490878401C0870FC480188491C0180FB4909
:202280000878401C0870FA480178491C0170F9480178491C0170F8480178491C0170F749FA
:2022A0000868401C0860F6490888401C0880F5490888401C80B208800024B0F57A7F0FD3AF
:2022C0000C80F149F1480A682AB10C6000220121FFF7C6F804E001220A601146FFF7C0F8D8
:2022E000EB4AEC481178522908D1EB498969C90603D50178491C017000E0047051785229E4
:2023000008D1E6498969C90603D54178491C417000E04470E249E34A087848B1401EC0B218
:20232000087028B9D2F8100440F00800C2F81004DD49087848B1401EC0B2087028B9D2F8CE
:20234000100440F02000C2F81004D8490878002809D0401EC0B20870002804D1D4480168DF
:2023600041F00201016010BD70472DE9F05FCA4F01213846FFF7A9FE064631463846FFF752
:20238000A9FEDFF83083B0064FF001094FF000053ED5DFF824A39AF800004F2808D0C8F877
:2023A0000050BDE8F05F00224021BE48FFF758B8D8F8000038B1C8F8005000224021B948FD
:2023C000FFF74EF806E0C8F8009040221146B548FFF746F80024DFF8E4B2B949BBF800203B
:2023E000088890420BD2421C0A80B649095C3846FFF75EFE641CE4B20C2CEED308E08AF809
:202400000050C8F8005000224021A648FFF728F816F0500F1ED0D8F8000038B1C8F80050B9
:20242000002240219F48FFF71BF806E0C8F80090402211469B48FFF713F89549087845288B
:202440000AD102E03846FFF731FE3846FFF729FE0028F7D1BDE8F09FDFF86C8218B9522055
:202460000870A8F80050F00601D50C2400E010244FF40066DFF8549212E0B8F80000B042EA
:2024800001D3A8F800503846FFF710FEB8F8001009F80100491CA8F80010641EE4B224B132
:2024A0003846FFF7FEFD0028E7D17A480570D1E72DE9F05F794E01213046FFF706FE0546D5
:2024C00029463046FFF706FEA8064FF0000721D5DFF8E48198F801004F28BBD10024DFF868
:2024E000DC91DFF8DCA1DFF8E8B1BAF80200B9F8021088420CD2411CAAF802101BF8001058
:202500003046FFF7D5FD641CE4B20C2CEDD301E088F8017015F0500F9CD05D4948784528FA
:2025200009D102E03046FFF7C1FD3046FFF7B9FD0028F7D18EE7DFF8908118B9522048704B
:20254000A8F80270E80601D50C2400E010244FF40065DFF8809112E0B8F80200A84201D36F
:20256000A8F802703046FFF7A1FDB8F8021009F80100491CA8F80210641EE4B224B1304601
:20258000FFF78FFD0028E7D14248477062E770B55148806C83B25148046851490888401CE5
:2025A0000880504800780B2804D04F4A0121082801D1916270BD4D48008890625162D068A5
:2025C00040F00100D0604A4800783228F2D1C3F5004000EBC430474D474B484A2C6864B13B
:2025E00000242C60464D474E2D7835701C60464B186010604548016070BD1468444D041B7D
:202600002C601060196070BD37484FF48071416240490A68521C0A604FF40041C162C1681F
:2026200041F48071C1603C49002008601249087070472DE9F047394801264662384909880D
:202640008162C16841F00101C1602748C06C85B23448007831286DD1334868E024010020B5
:20266000480100204A01002040010020490100204B0100204C0100204D010020380100201B
:20268000420100209E010020D0000022007002408A0100204401002000C0004000D0004054
:2026A0004E01002000500240500100204F0100201054004094000022940100208C0100207C
:2026C00090010020B811002082010020B8090020B81D0020B8150020002003400C0100206A
:2026E00028000020ED0000200000034044000020EC0000201400002208000022040100204D
:2027000001010020000100200801002060000022140100207C0000206C0000220010034019
:20272000860000201A0000201B00002002E00078312835D1EA48D0F80090EA4CEA4F206844
:202740004FF0000860B13868142809D2C4F80080C7F80080E649E5480860012001F080F8A1
:20276000C5F5004000EBC930E249E34B0A68821A1A6008602660C7F80080E049C1F800800B
:20278000DF490A68002A0BD0C1F80080C4F80080DC490860DC480660DC48DD4900880880B4
:2027A000BDE8F087DB484FF480714162C901C162C16841F48071C1607047D748012141620B
:2027C000D6490A68521C0A604FF400418162C16841F00101C1607047CF484FF48071416207
:2027E0001321C16209214163C16841F48071C16070472DE9F05FC848806C1FFA80F9C8488A
:20280000C06C1FFA80FCC748D0F81844C0F81C44C249D1F800B0C449DFF814830B78C3491E
:2028200000270A780125C34ED8F800100B2B2AD1C14B1B78342B01D1312A0ED1BF4AC04B89
:20284000126859B1C8F80070BE490A601F60D0F80C1421F00701C0F80C14FBE5BA490A60AE
:202860003560196839B11F60D0F80C1421F00701C0F80C14EEE51D60D0F80C1441F007018F
:20288000C0F80C14E6E5DFF8C4A2082B0DD159B1C8F800703760AE4909788AF80010AD4976
:2028A000AD4B0988198000E03560A10712D5312A0DD1AA490978322904D16046BDE8F05F7B
:2028C00001F040BD332902D1A5480560C2E50221FEF76CFF6007C0D5A24800783128BCD11B
:2028E000C9F5004000EBCB309F49D8F8002062B1C8F8007037609D4A12788AF800209C4A49
:20290000106008609B480560A4E50A689A4B821A1A60086035609DE598490868C0B24860B7
:20292000704770B57E48C06C80B2954CD4F81814C9B2C4F81C147D4A0B07127841D5312A83
:2029400039D0794909780B292CD17B480078342810D1774B79481D6800687949002255B128
:202960001A60784B18600A60D4F80C0420F00800C4F80C0470BD744B18606E4B01201860C2
:202980000B683BB10A60D4F80C0420F00800C4F80C0470BD0860D4F80C0440F00800C4F849
:2029A0000C0470BD01F0CEFCD4F8100420F00800C4F8100470BD2046BDE870400821FEF751
:2029C000F5BEC806F6D5312AF4D12046BDE870401021FEF7EBBE2DE9F0416A4F0021384662
:2029E000FEF71CFC0446002C4BD0674E0025B4F5004F09D100213846FEF7BFF930706349F5
:202A00003846FEF754FC00E035700D2C05D93846BDE8F0410021FEF7B0B9A4F101005C4949
:202A200000EB400051F82000DFF86881800642D5594E0020014686E80300306864F31440E3
:202A40003060012231463846FEF7ABFC012C1AD0022C18D0082C01D0092C18D14F4C504AAD
:202A600020781278411C91420BD04E4901EB00108ECE8EC02078401CC0B22070322800D3C9
:202A80002570BDE8F081432088F80000F9E7464C464A20781278411C9142F2D0444901EB19
:202AA00000108ECE8EC02078401CC0B220701428E7D32570E5E7032C0BD00B2C0DD00D2CB8
:202AC00001D13C48057021463846BDE8F041FEF7C5BB412088F80000F5E737480570F2E771
:202AE0007C0000200C0000223801002000007A448C000020B8000020C400002078000022F3
:202B000018000022BC00002064000022840000208800002000100340002003400C010020EA
:202B20000000034000500040ED0000201A0000201400002208000022460000202401002070
:202B40005C0000223001002034010020000100204D000020280000202A0000201B000020F6
:202B600090000022EC000020040100200101002008010020600000221401002018640040B4
:202B8000005002400000044068010020640100205875000070010020180200207101002027
:202BA00072010020380200208001002081010020780800206F0100206E01002070B5754C40
:202BC00007212046FEF725FF4FF04025002210212846FEF745FC40F27120FEF7A1F8102230
:202BE00011462846FEF73CFC41F66A00FEF798F8A4212046FEF716FFBDE870404FF224408E
:202C0000FEF78EB82DE9F0410546624F0F213846FEF7FFFE0024604E45EA04000002902DD2
:202C20000BD1315D01F07F021E2A02D25B4B9A5C104301F08001014301E0315D01433846C6
:202C4000FEF7F0FE641CE4B2082CE5D3BDE8F081534802780A21B2FBF1F001FB10234E4AE4
:202C60005370092803D9B0FBF1F301FB1300107040F030014B480170517841F03001417025
:202C80007047494800780A21B0FBF1F201FB1200414BD871B2FBF1F001FB10229A7128B138
:202CA000B0FBF1F201FB12005871704715205871704770B50B460025374E2FE0545D2E2C09
:202CC00016D0202C02D00CB12B2C01D115240DE02D2C01D1142409E0482C01D1112405E038
:202CE0004C2C01D1122401E0303CE4B2F45411E08B4205D14FF08003B3704FF0030309E082
:202D000003D9A3F10103DBB200E00B46F45C44F08004F4546D1CEDB25B1CDBB2854201D26B
:202D2000082BCBD370BDF0B4002925D0491EC9B20024194F0A260BE01546B2FBF6F206FB59
:202D400012557D5431B12AB1491EC9B2641CE4B28442F1D31522002508E049B1491EC9B2DC
:202D60000BB17A5400E07D54641CE4B28442F4D30E480078F0BC45E7F0BC70470C480D49C2
:202D800000680A68821AC82A03DB08600748007838E77047008000405101002060760000E0
:202DA000000100202C0000201C01002026000020240100202C0100202DE9F04140F20636DC
:202DC0003046FEF751FF4FF4FA742046FDF7A8FF584D0022FF212846FEF7D1FB0C2301221E
:202DE000FF212846FEF767FB2046FDF799FF41F28837FF212846FEF7DFFCC4B23846FDF7C4
:202E00008FFFFF212846FEF7D7FCC0B28442F0D14948641C04703046BDE8F041FEF73EBF12
:202E20007CB5FFF7C9FF15220821444803F016FA4348002505704348312606704248056048
:202E4000424805604248012404604248046042490A20087041494FF07E50086041A14048EC
:202E600006C906C042494148086003F0D1FC0B46024600903FA1414803F0BAFE40494FF478
:202E8000B47008603F4908603F4A042111703F4A032111703E4B0C221A703E4A15803E4A73
:202EA00010603E4804703E4804703E4805703E4806703E4804603E4804603E4804603E4873
:202EC00004603E4804703E4804803E4A42F2107010603E4A3C4810603D4A10603E4A3D485E
:202EE00010603E480170002000F0BAFC01F0FFFD01F021FE3A4805703B493A4808603B48C0
:202F000004603B49902008703B493A480860FFF79FFEFFF7B6FE3948057039480570394889
:202F20000570394932200870384930200870384805607CBD006002401C0100205101002018
:202F40002500002046000020000000200400002000000022840000228A0000208C00002064
:202F6000900000200000000000000000CDCCCC3D5400002025372E3266000000C801002080
:202F800058000020600000204E0000204D0000204C000020280000205C000020D00000203E
:202FA000D1000020ED000020EC00002014000022180000221C0000223C0000224900002092
:202FC000440000206C00002000006145F8000020FC0000204054094CF40000200201002007
:202FE0006801002038020020740100203400002226000020580500207C0100204E01002034
:203000004F010020500100201A0000201B000020940000221FB5F84803C8CDE90001F748CF
:203020000178019861F307100190F54800788DF8050000226946F348FEF74CF91FBD2DE90B
:20304000F05F04466168C1F30310022869D2EB4EDFF8B483ED4DDFF8B8A34A0704F1080BD6
:203060004FF001074FF000091BD108EB00100FC885E80F0020685946C0F30302286803F01D
:20308000DBF86068C0F30310307021682868C1F3030108442860E968532008708AF800705C
:2030A0002CE0327890423CD1E8680278002A38D09AF80030C1F30201994208D0532A1DD1E8
:2030C00080F800908AF80090FFF7A4FF16E020685946C0F30302286803F0AEF82168286826
:2030E000C1F30301084428609AF80000401CC0B28AF80000072801D98AF800706068000798
:203100000FD5A868A0F8009061682868C1F3031108EB01110968401A69680880E968452093
:203120000870BDE8F09F2DE9F047BA4DBA4928780978884256D0B94901EB00142068DFF81A
:20314000E082C0F30440412698F80010B54F042810D0052815D0062813D0072835D16068DF
:20316000C0F30310022830D23A7872B188420CD13E702AE06068C0F30310884225D13E702D
:2031800023E02046FFF75BFF1FE088F80000DFF878A298F800100AF1A00A0AEB011191E841
:2031A0000C50DFF8849289E80C50D9F80C10097852290AD03E700AEB0010C0684521017084
:2031C0006068C0F3031088F800002878401CC0B22870142801D30020287000200146024664
:2031E00003460FC4BDE8F0872DE9F041DFF83C8298F8000000280AD18A4E8B4D3178A868BF
:203200004C2906D1EA680021117001803170BDE8F081696800880988081A84B2844F092CEC
:2032200004D2786840F00800786000E00824386864F3030038607E4822460830296802F041
:20324000FBFF286820442860A868018821440180532088F800007868000701D54C203070BD
:20326000002273496748FEF735F878684FF0005101EBF0004FEA707078604107C7D120F072
:203280000700401C7860C2E76648017852290AD16849694A09681268891A41F2883291421B
:2032A00001DB0021017070471FB553488438016FC06ECDE900015A480178019861F307104A
:2032C00001904F4800788DF805005649522008705848594900680860002269464948FDF7D3
:2032E000F9FF1FBD1FB5554C2078432810D142488438C1698069CDE90001414800788DF80B
:203300000500002269463F48FDF7E4FF532020701FBD70B54A484B4D0078297888425DD03B
:20332000494C20684068C0F34A40222863D014DCA0F104001E2847D2DFE800F05154575A1D
:203340008B8E9194989B9EA1A7AAADB1B4B7BABEC1C4C7CA46464646CDD0342878D00EDCD2
:20336000A0F1230011282FD2DFE800F0BEC1C4C7CACDD02E2E2ED3D6D9DCDFE2E50040F277
:203380000B12A0F20B1190426FD009DCA0F58270072819D2DFE800F0D5D9DDE0E3E6E900F7
:2033A00004296FD008DC01296DD002296CD003290AD100F0F4FB07E005296FD0A1F5C061FE
:2033C000D43901D102F010FF2878401CC0B22870322870D3002028701C48206070BD01F0B0
:2033E000FCFBF1E701F00FFCEEE701F033FCEBE701F0BEFCE8E774E0DC7500006701002094
:203400001C0100200000044080760000F80100206D010020810100208001002078080020AB
:20342000660100206C010020080200206E0100202802002024010020280100207001002056
:203440007101002072010020740100203802002074E001F0A1FCB7E701F0BDFCB4E701F0A2
:20346000DFFCB1E701F0F4FCAEE781E001F007FDAAE701F010FDA7E701F01CFDA4E701F06A
:2034800027FDA1E77DE076E078E001F048FD9BE701F053FD98E701F082FD95E774E001F0CC
:2034A000AEFD91E701F0B9FD8EE701F0D6FD8BE701F0EBFD88E76AE001F00DFE84E701F0AD
:2034C00018FE81E701F029FE7EE701F06FFE7BE701F07AFE78E701F0A3FE75E701F0ABFEE1
:2034E00072E701F0B8FE6FE701F0D5FE6CE701F0DDFE69E701F0EBFE66E701F0FBFE63E7E8
:2035000001F00AFF60E701F008FF5DE701F012FF5AE701F01DFF57E701F024FF54E701F060
:2035200039FF51E701F07FFF4EE701F08EFF4BE701F098FF48E702F00AF845E702F015F8F1
:2035400042E7002000F04FFA3EE7012000F04BFA3AE700F085FA37E700F095FA34E700F036
:20356000A3FA31E700F0BDFA2EE700F0D7FA2BE700F0EEFA28E700F0F6FA25E700F001FB48
:2035800022E700F01AFB1FE700F025FB1CE720681030206070BD17490878401CC0B2087069
:2035A000154A322804D300200870144810607047106810301060704710B50E48104C017891
:2035C0002078814214D00F490A78002A10D153220A700A49002201EB00110B48FDF77AFEA7
:2035E0002078401CC0B22070322801D30020207010BD0000780100207C0100205805002077
:20360000790100206F0100200000044010B5FEF790F90F20FEF792F91520FEF78FF9162062
:20362000FEF78CF92320FEF789F92420FEF786F92520FEF783F92620FEF780F92720FEF7F8
:203640007DF93720FEF77AF91120FEF777F91220FEF774F9BDE810402E20FEF76FB9F8B5FE
:203660000446664E305D452825D1654F002537F81400062820D2C4B93888052815D10422AA
:203680006049684602F0D8FD5F49009888420CD15E49452008605E4908605A485D490079E1
:2036A00008603570FFF7B2FFFEE727F814505A4820F814503555F8BD584E30785228FAD0FF
:2036C000574920B90C70BDE8F840FFF7EDBD0978A142F0D1412813D15248534C00EB0110D1
:2036E0008EC884E88E0052495048CA6F896FC0E9001250490978417153203070A0680580EF
:20370000BDE8F840FFF770BD2DE9F0470446022C4FD2DFF8249119F80400452849D147480C
:2037200050F824700CB9464D00E0464D3846FEF7C4FC00283DD120213846FEF7C2FCDFF830
:203740000881002038F81410404E0C2912D209F8040026F8140006E0411C26F81410295C84
:203760003846FEF7A5FC36F8140038F814108842F2D310E04F2109F8041026F8140006E083
:20378000411C26F81410295C3846FEF791FC36F814000C28F4D32E4901200860402211460F
:2037A0002C48FDF75DFE3846BDE8F0472021FEF7DBBBBDE8F08770B50446104D285D522839
:2037C00018D1254E2549305D095D884212D9002240212048FDF744FE1D49002008603055E3
:2037E00007490D4A31F8141032F81420914202D04520285570BD285570BD00008A0100206E
:2038000082010020B8090020424F4F54000000200400002008000020860100206C01002050
:2038200066010020207700000802002028020020587500001C01002094010020D0770000F0
:20384000B8110020B81D00208C010020900100209400002200500240440100204601002018
:203860002DE9F14F88B0F8480568F8480078804602F090FF294602F065FD02F0C9FFF4A7F6
:20388000CDE90201D7E9002302F0D1FDCDE9000102F0A6FF044604B90124EB484FF0010AD5
:2038A000006802F0B5FFCDE90510DFF8AC93EB4EB5F17E5F04DAA6F800A0A9F800401BE065
:2038C000E748854211DADDE90501CDE90210D7E900230146029802F0AAFDCDE9000102F06D
:2038E0007FFF3080A9F8008006E04EF660203080B4FBF0F0A9F80000DA48B9F80040048058
:20390000DAA0D0E90089DFF860B33088049002F046FF4B464246CDE9020102F037FE8046BF
:203920008946CBE90001204602F039FF4B464246CDE9020102F02AFECE4A03C2DDE90510CF
:20394000CDE902010B4602464946404602F096FECDE9000102F0BAFFC74C214602F027FD88
:2039600002F056FFCDE902010CCF02F060FDCDE9000102F035FFC14980B20880322801D24F
:2039800032200880049802F005FF214602F0DAFC294602F00CFDBA49884200DA0846B9492B
:2039A00002F078FC02F008FFB7490860B748C0F800A0B749002008600898002810D0B54CB8
:2039C00001212046FEF7B4FA3288FF212046FEF7CFF9204609B0BDE8F04F0121FEF7B4B938
:2039E00009B0BDE8F08F82B0012837D8AA49096889680191C1F38152012A05D921F44001B3
:203A000001F58001019102E021F4400101910199C1F38342032A04D921F4701101F54021C9
:203A200001910199C1F30262042A04D921F0E06101F1007101910199984BC1F311026E3A04
:203A40009A4204D36FF3110101F5966101919449019A41F8202002B0FEF7BDBA02B0704748
:203A600070B58D4800688468774D14F0FF4F09D02046296802F04AFF04D02C60BDE8704022
:203A80000120EDE670BD84480068007A062801D2062002E0FA2800D9FA206C490978884239
:203AA00001D00120DCE670477B480068007A7D490A78904214D0302803D0312801D0322849
:203AC0000ED10870087800280AD077480078312803D176480078312802D16C490120086009
:203AE00070476D480068007A71490A78904214D0302803D0312801D032280ED10870087800
:203B000000280AD068480078312803D167480078322802D167490120086070475E480068FC
:203B2000007A08B9012002E0642800D9642062490A7890420BD008705B480078312803D1C4
:203B40005A480078322802D15A4901200860704751480068007A032804D858490A789042C4
:203B600000D00870704756480178002908D155490988002904D0544A0021118045210170DA
:203B800070474F484178002908D14E494988002904D04D4A002151804521417070474B48CD
:203BA0000178002908D14A490988002904D0494A0021118045210170704744484178002928
:203BC00008D143494988002904D0424A0021518045214170704700202F4A3F4912681318A0
:203BE0001B7A0B54401CC0B20828F8D370473B480078322802D33A490120086070472DE94E
:203C0000FF414FF07E56394C36A5D5E90023D4E9000102F035FE6BD8D5E90023D4E900014B
:203C200002F02CFDC4E90001304602F0F1FDCDE90201D5E9002302F0A9FCCDE9000102F08B
:203C400045FE0646E1E753E08C0000208A000020000000000000E03F84000020860000201B
:203C600000606A4788000020A80000200000000080842E41B000002000007A448200002020
:203C80000000A0410000FA433C0100201800002238010020001003407401002093C10100D9
:203CA0005C010020800000201A0000201B000020C80000201C000022D00000202500002017
:203CC000940100208C010020900100208A0100208201002086010020110000204D0100203D
:203CE0006C000022000000000000244098000020F9A00CC8D4E9000102F09CFD16D2D5E9BE
:203D00000023D4E9000102F041FCC4E90001304602F07EFDCDE90201D5E9002302F0AEFCCC
:203D2000CDE9000102F0D2FD06466EE7ECA00CC8616820680D46074602F028FCCDE902014A
:203D4000AFF2F4000CC8029802F071FB009002F047FD02F01FFDDFF89083E44902F027FB03
:203D6000314602F0EFFAC8F80000304602F050FD2B463A46CDE9020102F008FC03C4BDE870
:203D8000FF812DE9FC41DA4E3068002841D1D949D9480A68006882423BD300220A60D749BB
:203DA000896CD74A1288511A8DB2D7A1D1E90078D44C02F0F4FCCDE900010B460246414626
:203DC000384602F05BFC07468846C4E900014DB9AFF2F0000CC84146384602F04FFCC4E9F9
:203DE00000010AE0284602F0DAFC43463A46CDE9000102F0CBFBC4E90001C5A00CC803CC74
:203E000002F018FD07D201203060B7494FF07E500860BDE8FC81FFF7F2FEBDE8FC41012091
:203E20001EE52DE9FF5FBC4800780B287ED0BB480078312803D1BA480078312876D1B9484B
:203E40000168002972D000250560DFF8DCC2BCF80000401E81B2ACF80010B44801240388EA
:203E6000B34ADFF8D082A74E9F4F00297ED1B248DFF8C8920168D9F80000081AC9F8001069
:203E8000ACF800300A2813D21460ADA1AE4802F0F8F9AD4A07214FF4827000F0C1FA04B0E9
:203EA000BDE8F05FA84A072140F2051000F0B8BA1560A649D1E9009A02F071FCCDE902017B
:203EC0000B4602465146484602F0D8FB81468A46C6E900010C219E4802F0C7F953464A462A
:203EE0009CA19B4802F084FED6E900ABDFF86C92386802F08DFCCDE902010B4602465946E3
:203F0000504602F0BBFB74A20CCA02F039FB94A20CCA02F03BFBC9E900010B46024692A19E
:203F2000934802F065FE9348046000E059E0924892490078012807D10F200870844A012134
:203F40000820FEF7B6FE0AE0022808D11720087015204870864A02210720FEF7AAFE7C488C
:203F6000C0792E2808D17A4A072100E01CE04FF4827000F055FA05E0754A08214FF482709B
:203F800000F04EFA7A48C0792E2806D1784A072140F2051000F044FA57E0754A082140F211
:203FA000051000F03DFA50E01068002819D17448DFF8D0910068D9F800C0604502D9A0EB13
:203FC0000C0C01E0ACEB000CC9F80000DFF8B891D9F800A0BAF1000F05D08B4201D0C9F805
:203FE0000050BDE8FF9F694909888C4502D968480460F6E76749D1E9009AC6E9009A642875
:2040000017D2654B38686549984205DA396004B0BDE8F05F012023E4614B984201DD1460BF
:20402000DFE702F08FF9386004B0BDE8F05F012016E402F0B4FBCDE902010B46024651465B
:20404000484602F01BFBC6E9000156A00CC8D8E9000102F0EFFB03D103CEC8E90001C0E7B4
:20406000D8E90023D6E9000102F00AFC0AD2D8E90023D6E9000102F001FBCDE9020102F08B
:2040800025FC09E0D6E90023D8E9000102F0F6FACDE9020102F01AFCD6E9009AC8E9009A2B
:2040A000424988429DDA386802F0B2FB53464A46CDE9020102F0BEFB7BD2386802F0A8FBE6
:2040C0000B460246CDE9020103CE02F0D7FACDE9000102F0FBFB78E0000000000000F03FD4
:2040E000000000000088C3408C00002000401C4678000022380100203C0100200010034044
:2041000086000020980000200000000000408F402D431CEBE2361A3FED0000201A00002003
:204120001B0000200C00002288000020840000206C000022A0000020B8000020BC000020C8
:204140004E6F204A5A4D430096010020B0000020A90100202531322E3130660090000020D0
:20416000000000000018F54025382E3666000000B6010020280000222500002051010020F3
:20418000C4000020C0000020640000228200002018000022A8000020CDCC8C3F0000C842C3
:2041A00000007A440000000000000000C520803FFFE7386802F02CFBCDE902010CCE02F079
:2041C0005DFACDE9000102F081FB774A774990420BDD086808B90C6003E7FFF710FD04B0EA
:2041E000BDE8F05F0120FFF73BBB0D60F9E62DE9FC416F4800780B2826D06E480078312840
:2042000003D16D48007832281ED16C48016800291AD0002707606A4E3068002814D1694888
:204220000178491EC9B20170674A01251278674C00294ED10270AFF254500CC8D4E900010D
:2042400002F0F8FA01D23560E3E5AFF2E0500CC8D4E9000102F012FA02F038FB5C490646D3
:204260000860AFF2C00003C803C40821594801F0FCFF304602F0CCFA0B460246CDE90001AF
:20428000AFF21C11534802F0B3FC5348056053480078032809D152481221017015214170D7
:2042A0004C4A02210720FEF704FD4A48C1794FF483702E2906D102B0BDE8F041454A0721B9
:2042C00000F0AEB802B0BDE8F041424A082100F0A7B84448444C00682368984201D9C31A5C
:2042E00000E01B1A2060414804681CB18A42ABD007608EE5B3F57A7FA6D93D48056088E5CF
:2043000010B53C480024016851B104603AA13C4801F0B7FF3A4A04214FF4847000F080F813
:204320003848016800290CD0046037A1344801F0A8FFBDE81040324A042140F2071000F070
:204340006FB810BD2DE9FC4131490968C0F5004000EBC1312F4A002010702F4A1060244AE9
:20436000164E2E4B194C176801256FB1106030601960AFF2D01003C803C41C480560124887
:2043800010490078087044E51868164A081A1060196002F004FACDE90001D4E9002302F047
:2043A00046F803C4356034E56210803F74000022ED0000201A0000201B00002010000022CF
:2043C0006C000022D1000020D0000020D8000020CC000020BF0100202C0000222500002017
:2043E00051010020E8000020E4000020680000221C0000228C000022485A4D430000000097
:20440000960100209000002254514D43000000007C0000204E0100207C000022E000002055
:20442000F0B40D461446082D00D90825FE49FF4E91E80E10376887E80E10FD490A78316838
:204440004A714A6860F35B424A60E5B12078202804D1641C6D1EEDB2002DF7D11DB9641E13
:204460003020207001253068016865F303010160002006E03268217802441172641C401C9A
:20448000C0B2A842F6D3F0BCFFF785B870B5E9480068002812D1E84E306800280ED0E74D47
:2044A000E84AE74811782B68002443B1642905D3147000220221FCF7D3FF2C6070BD64292E
:2044C000FCD300220421FCF7CBFF346070BD2DE9F041DD48D74EDA4F0168002449B3DB49E1
:2044E0000A78282A2BD304600C70D94D286828B1002201213846FCF7B3FF04E001221146B6
:204500003846FCF7ADFF306898B1686828B1002202213846FCF7A4FF04E0022211463846BE
:20452000FCF79EFFA86828B1002204213846FCF797FF04E0042211463846FCF791FFC54845
:204540000168002934D0C4490A78782A30D904600C70C24C206828B1002208213846FCF780
:204560007FFF04E0082211463846FCF779FF306800281DD0BA4D606828B100220821284661
:20458000FCF76EFF04E0082211462846FCF768FFA06830B12846BDE8F04100220421FCF727
:2045A0005FBF2846BDE8F04104221146FCF758BFBDE8F0812DE9F0419E4909680029F7D16C
:2045C000A8499F4B9D4D9C4E9E4F0A684FF0000801246AB10028EBD0C1F8008002220621DF
:2045E0001846FCF73DFF2C60346087F80080DFE70028DDD10C60062211461846FCF730FF08
:204600002C60346087F80080D2E710B5072821D800281FD001291DD8864A8D4B126882B14A
:20462000072803D11960596099600DE00022C40701D043F822104008521CD2B2032AF6D304
:2046400002E0C00706D019607F49012008607F490020087010BD2DE9F04705460F4616469B
:20466000072D67D8002D65D0012E63D8022F61D87048DFF8E88101687148002946D0072D04
:2046800025D1774C77B100220821FCF7E9FE002208212046FCF7E4FE002204212046FCF7EE
:2046A000DFFE0DE008221146FCF7DAFE082211462046FCF7D5FE042211462046FCF7D0FE93
:2046C000C8F80060C8F80460C8F808602CE00024DFF89491E80713D063480C3850F8240015
:2046E00037B159F824100022C9B2FCF7B9FE05E059F82410CAB2C9B2FCF7B2FE48F824603E
:204700006D08641CE4B2032CE4D30DE0E90711D027B100220821FCF7A3FE03E0082211464F
:20472000FCF79EFEC8F800604A49012008604A4900200870BDE8F08710B500220121072037
:20474000FFF789FF01210720FFF75FFF4149012008603D4908603D49002008703E49087020
:2047600010BD10B5FFF7E8FFBDE81040012021E710B5012211460720FFF76DFF012107209B
:20478000FFF743FF3349012008602F4908602F49002008703049087010BD10B501221146EF
:2047A0000720FFF758FF00210720FFF72EFF294901200860244908602449002008702649D6
:2047C000087010BD10B5002201210720FFF743FF00210720FFF719FF1E49012008601A4983
:2047E00008601A49002008701B49087010BD70B505461E4CFF212046FDF79AFB40F204424C
:20480000FF212046FDF7BDFA1948FF2102882046FDF7AEFA0022FF212046FDF7A0FA1548C7
:204820000DB1012128E033E0C07700007C0100201C01002000000022D8000022DC00002252
:20484000004002404A010020E000002249010020E8000022E40000224B010020F40000226D
:2048600000700240D4000022E8770000000003404400002000500040FCF7B6FE01212046CB
:20488000FDF769FA2046BDE87040FF21FDF75CBA0121FCF79AFE01212046FDF750FB204602
:2048A000BDE87040FF21FDF743BB70B504460421FF4D2846FCF789FE0A23012204212846E6
:2048C000FCF7F9FD002204212846FCF7D2FD2CB12846BDE870400421FCF7C5BD2846BDE82B
:2048E00070400421FCF762BF2DE9F041F148F249007809780126EE4F022838D1EF4CF04D0C
:20490000312913D10120FFF7D0FF2068002874D1286828B1042211463846FCF7AAFD73E02D
:20492000002204213846FCF7A4FD6DE0206818B1BDE8F04101205AE70020FFF758FF0122B8
:204940000A2311463846FCF7B6FD286828B1042201213846FCF78DFD04E00022012138465D
:20496000FCF787FD01213846FCF77DFD4CE008280AD1D44C25880120FFF797FF268001203B
:20498000FFF735FF25803FE00B282DD1CE490020086007213846FCF718FE07213846FCF711
:2049A00005FFCA4D08212846FCF70FFE08212846FCF7FCFEC64C2078342809D10422082192
:2049C0002846FCF756FD08212846FCF74CFD1BE0042206213846FCF74CFDBE482178415C12
:2049E0003846FCF740FD0FE0312907D10120FFF75CFF0020FFF7FBFE06E007E00020FFF784
:204A000054FF0120FFF7F3FEB3480660D0E510B50221A748FCF7E8FDB04C40F20442FF21E2
:204A20002046FDF7AEF9AE48FF2102882046FDF79FF90022FF212046FDF791F90121204635
:204A4000FDF789F9FF212046FDF77EF9A54C20212046FCF7BAFD0A23012220212046FCF7C3
:204A60002AFD002220212046FCF703FD20212046FCF7F9FC954CB8212046FCF7A6FD0A23E1
:204A8000012238212046FCF716FD002238212046FCF7EFFC2046BDE810403821FCF7E3BC29
:204AA00010B515220821904801F0D8FB814801788E48082903D18E490978017002E08D4997
:204AC00009780170844901200860FEF7C1F8FEF7D8F8FFF709FFFFF79AFF87480078FEF752
:204AE00091F80221BDE81040844A0D2098E430B583480168642901D26421016000684EF693
:204B0000602301247F49804A984202D20880148009E00B8047F230552844B0FBF3F080B233
:204B2000108000B914800988784B1088414319607749088030BD2DE9FF417648056876483B
:204B4000007801F027FE294601F0FCFB7349096801F02DFC01F05CFE71A4CDE90201D4E953
:204B6000002301F064FCCDE9000101F039FE6149C0B2087008B9012008705C480E78067054
:204B800069486A4F0068294601F011FC05466849284601F00CFC01F03BFECDE90201D4E9D3
:204BA000002301F044FC009001F01AFE61490880304601F0EFFD294601F0C4FB01F028FE4D
:204BC000CDE902010CCC01F032FC009001F008FE01F0E0FD3860BDE8FF8170B556480068E8
:204BE0008468514D14F0FF4F0CD02046296801F08DFE07D02C602F480078002802D13649BE
:204C00000120086070BD70B54B480068007A00281FD0284E01243178484D3F4A08290CD1BD
:204C200033490B78984214D00870454B09781B785943444B19702C6002E01178884208D04E
:204C40001070FFF778FF3078002802D1224804602C6070BD10B53C480068002826D0154811
:204C60000124007858B9152208211F4801F0F6FA19480460FDF7ECFFFEF703F810E003282F
:204C800002D12E4804600BE0092809D115220821154801F0E3FAFDF7F4FF2C490020086002
:204CA00015480078BDE81040FDF7ACBF10BD000000500040ED000020EC0000204C000022E7
:204CC00040000022440000205C0000220050024046000020D87700001400002200100340C0
:204CE000860000200060004051010020000100204D00002001010020260000202C000020BA
:204D00006C00002076000020740000207000002078000020F800002002010020FC0000205E
:204D2000000000000000E03FF4000020F000002000004843EE000020740100203C000022A4
:204D40004E0000204C0000203400002264000020FA48016800290AD0F9490978C82906D364
:204D60000021016000220821F648FCF779BB704710B5F5480068002898D008221146F14896
:204D8000FCF76EFBED4901200860ED4900200870BDE810405EE789E710B5EC48EC490068EA
:204DA0000978027A8A4281D8427A8A4212D3E64A817AE84C01231068312903D140B91360CF
:204DC000236005E0322905D110B1002010602360E14803706AE770B5DB48006800280ED0C3
:204DE000DA4800220068DC4B007ADA4C0121302806D11A70D9480260D9480260216070BDB1
:204E0000D84D322801D1296000E02A60216002201870FFF7ADFCBDE870400120FFF7CABB93
:204E2000C948006800280ED0C848CB4900680122007AC84B302807D100200870C749086077
:204E4000C74908601A607047032008701A6088E4BE48BF4900680978027A8A420ED8427A47
:204E60008A420BD3807AC0490A78904206D0312803D0322801D0332800D108707047B348AE
:204E80000068017AB948312902D1012101607047002101607047AC480068002809D0AE483B
:204EA0000178002905D104210170AA490120086057E47047A4480068002808D0A6480178BB
:204EC000042904D105210170A24901200860704738B59E489E4900680978027A8A421DD82E
:204EE000427A8A421AD34189ADF800108089ADF8020000989E4C10F0FF4F0FD0216800983E
:204F000001F004FD0AD000982060FFF714FE92480078002802D197490120086038BD8B4827
:204F20000068007A312801D0322805D192490A78904201D00870D7E470471CB58248006848
:204F400000282BD081480068017A834831291FD107210170FFF705FC8049002008608049C3
:204F6000086001F055FCCDE900010B46024683A1844801F03DFE834A00210920FDF799FE79
:204F800002B00821BDE810407E4A0E20FFF748BA0078072802D1BDE81C4013E41CBD1CB537
:204FA00069480068002829D06B486C4A01780020072912D110606A49086001F029FCCDE94B
:204FC00000010B4602466DA16E4801F011FE6D4A00210920FDF76DFE0AE00C2908D10446D1
:204FE000106015220821684801F038F96648C47166480078BDE81C40FDF704BE1CBD10B5B1
:2050000051480068002807D0FFF7ABFB52490820087050490120086048E64C484C490068D8
:205020000978027A8A4217D8427A8A4214D3807A57490A7890420FD000280DD00870554862
:205040000978007848435449087043480078082802D140490120086070473C480068007A82
:205060004C490A7890420FD000280DD008700878474909784843484908703748007808289F
:2050800002D1344901200860704710B52E48006800281FD03048017800291BD10621017028
:2050A0002A480068007A3D49A0F13102022A03D80A78904200D008700878332802D1FFF70B
:2050C0003BFB01E0FFF769FB354900200860214901200860EAE51C480068002808D01E4865
:2050E0000078062804D12E490120086019490860704716480068007AA0F1310104290BD2A7
:2051000028490A78904207D00870134800780B2802D110490120086070470C4800680089C4
:2051200000280AD020490988884206D00A480078002802D107490120086070473800002224
:20514000480100200050004034000022740100201C0100203C000022ED000020640000203F
:2051600068000020400000221C00002030000022F800002014000022EC00002025392E379A
:2051800066000000D101002051010020260000204E0000204D0000204C000020490000204F
:2051A000440000224600002044000020FC4800680028C2D0FB4909200870FB4901200860A7
:2051C000FA4900200860B8E710B5F5480068002811D0F7480068017AF64A127891420AD158
:2051E000407AF14BEF49012230B90878002802D0002008701A6059E50A2008701A60152258
:205200000821ED4801F02AF8FDF722FDFDF739FDEA480078FDF7F6FCBDE81040FFF7D2BAD9
:20522000DF480068002888D0DE490B200870DE490120086081E7DE480068007AA0F13001B3
:205240000A2907D2DE490A78904203D00870D6490120086071E770B5D548D6490068097832
:20526000027A8A4216D8427A8A4213D3847AD54D287884420ED0D448312C04D10022012194
:20528000FCF7EEF805E0322C04D101221146FCF7E7F82C7070BDC64800688068002804D0AE
:2052A000CA490A68904200D0086046E710B5BC48006800280AD0BB4801780C2906D00C214B
:2052C0000170FFF74EFAB84901200860EEE4B848B84900680978027A8A420AD8427A8A4227
:2052E00007D3B24942890A8080894880B8490120086022E7AA48006800280CD0A9490D20A3
:205300000870B44900200870B3494FF47A700880B2493220087010E70FE7A5480068017A4D
:20532000AF4819B908221146FCF79AB800220821FCF796B89E480068017AAA48302903D16A
:2053400040221146FCF78CB800224021FCF788B897480068007A00F0070000B90720A24924
:205360000870EAE670B59248006884689F4D14F0FF4F0ED02046296801F0C8FA09D02C6067
:20538000FFF7D9FB87480078002802D198490120086070BD30B585B08548864900680978CB
:2053A000027A8A423DD8427A8A423AD34189ADF810108089ADF8120004988E4D10F0FF4FE7
:2053C00001D18D4804902968049801F09FFA28D0049C2C6089480168204600F0B3FF01F084
:2053E00017FACDE90201AFF2C8600CC8029801F01EF8009001F0F4F98149086081490860D3
:205400000721814800F031FF204601F001FA029005B0BDE830400B4602467CA17A4801F064
:20542000E7BB05B030BD70B561480068846814F1FF4F09D27748784D844205DA20462968B8
:2054400001F064FA00D02C6070BD59480068007A72490A78904204D0302801D0312800D1BB
:2054600008706AE652480068007AA0F13101032904D26B490A78904200D008705DE62DE97A
:20548000F041684801240078674F4F4E674DDFF8A08131283AD118213046FCF787F9D6F83B
:2054A0001804C6F81C0463480078312820D16C6202214046FCF77AF9FF212846FCF738FDF2
:2054C00002214046FCF790F83A88FF212846FCF74FFC0022FF212846FCF741FC01212846AA
:2054E000FCF739FC2846BDE8F041FF21FCF72CBCFF212846FCF71CFD02214046FCF765F8B2
:205500004046BDE8F0410221FBF7ADBFFF212846FCF70EFD02214046FCF766F83A88FF2146
:205520002846FCF725FC0022FF212846FCF717FC6C6201212846FCF70EFCFF212846FCF757
:2055400003FC3046BDE8F0411821FBF78CBF18480068007A33490A78904205D0312801D079
:20556000322801D108708AE7E7E511480068007A304A1178884212D0312803D0322801D009
:2055800033280CD12C4B1970107026490978312905D11178312901D0312800D16FE74DE0D2
:2055A00034000022ED0000203C00002264000020740100201C01002051010020260000201C
:2055C00043000020190000200050024060000020480000224C0100204201002010000020B3
:2055E00000700240007000404A000020FC0000201400002254000020CDCCCC3DF80000205F
:20560000580000205C000020C801002025372E32660000000000B443200000202400002010
:20562000490000201A0000208600002000100340005000401B000020960100207DE52DE9D4
:20564000FC47F9480024016831B10460FFF789F8BDE8FC47FFF724BAF448016800297DD0A5
:205660000460DFF8CCA3CAF80040F24E3078401EC0B23070F04D08B928783070FDF7E8FA12
:205680003378297801258B4272D1EC48EC4A01681068081A1160EB4FEB4EDFF8B0830A28FB
:2056A00017D9EB49D1F8009001F074F8494600F046FEE84900F046FE494600F078FEC8F833
:2056C00000003C60E449884201DB356005E0346003E035603D60C8F80040CAF80050DF4CFB
:2056E000306830BBD8F8000010F1FF4F0CD22021217001F08DF8CDE900010B460246D8A119
:20570000601C01F075FA09E001F082F8CDE900010B460246D4A1D14801F06AFACF4A0821E4
:205720000620FEF77DFECD4A02210720FDF7C1FA39E02B20207045206070CD4C1522062123
:20574000A01C00F08BFD386850B11A20E0701B2020711620A0711C20E07103E02FE007E071
:205760000E20E071BD4A02210620FEF759FE1AE0C048C14F00683A68904201D9821A00E0CA
:20578000121A3860BD4F386818B199420BD03C6009E0BB480088824205D93170B948056061
:2057A000FDF756FA3D60B8480078FDF72BFA02B0BDE8F0470221B54A0D20FEF731BEBDE811
:2057C000FC8710B598480168002928D000210160AF4AB04C12685AB1AF4A1170012101601E
:2057E000312020702246BDE810400820FEF718BE0020FEF7DFFE32202070FEF7E3FF142297
:2058000008219B4800F02AFD9F480078FDF7FAF90121BDE810409F4A0820FEF701BE59E406
:205820002DE9F041804A0020914C9A4F964E9B4913681425D3B110600860FEF77DFFFFF732
:2058400053F815220821204600F008FDFDF719FA2570E570302038703078FDF7D3F93A4671
:20586000BDE8F04101210F20FEF7DABD0A68002A1BD16E4A1368002B17D0106001200860AF
:2058800031203870FEF79EFFFFF72EF8152020706570A570E0703078FDF7B4F9BDE8F04143
:2058A00001217C4A0F20FEF7BBBDBDE8F08170B55D4B604A744C5D491D680020CDB11860D6
:2058C00010700860FEF738FFFFF70EF815220821674800F0C3FCFDF7D4F9FDF7B9F92078FB
:2058E000FDF790F9BDE870400121684A0520FEF797BD0B68002B0FD008601078401C10704B
:20590000FDF7A6F92078FDF77DF9BDE8704001215E4A0520FEF784BD70BD10B54248016893
:20592000002918D0002101605D480160594930200870FEF701FFFEF7D7FF5A48082102686F
:2059400001230846FDF7EFF90121BDE81040514A1520FEF765BD4EE410B53348504B514954
:20596000026800245AB104601C604F4802680A6001230821BDE810400846FDF7D4B92B48BF
:205980000268002A27D004600A68002A23D0521E0A60CAB9012018603E4931200870FEF74E
:2059A00011FF15220821324800F058FC3F4A00210720FDF77EF92E48C4710121BDE81040BB
:2059C000344A1520FEF72CBD01230821BDE810400846FDF7A8B90EE42DE9F05FDFF8D080D3
:2059E000D8F8000000286FD00F4A1249DFF898B00E48DFF87C900126DFF8B8A02E4D2F4F15
:205A0000136800247BB12C80146004600C703C608AF800402A4804702A480078332854D10D
:205A2000FEF78AFE53E067E03C000022080000222400002200010020010100200401002039
:205A400008010020800000222000002218010020F00000200000C84200401C46A001002083
:205A600025372E356600000025382E35660000005101002014010020100100206000002281
:205A8000EE00002014000022260000202C0000203400002242000020ED0000204C000022FD
:205AA000500000225C00002058000020C801002044000022480000204001002054000022F2
:205AC000470000204900002071E0FEF766FEFF48866215220821FE4800F0C0FBFDF7B8F828
:205AE000FDF7CFF89BF80000FDF78CF8F94A01211420FEF795FC21E00268FAB104600878C7
:205B0000401CC0B208700A21B0FBF1F201FB120089F80000152089F80100EE483021017048
:205B200099F8001041F0300141709BF80000FDF769F8E84A01211420FEF772FCE648006848
:205B4000002834D1E5484FF0170B0178E448312942D19AF8001061BB396831B93E602C80E5
:205B6000002211460078FEF776FD2888B0F57A7F1DD32C803C608AF80060DA490878401C65
:205B8000C0B20870032812D3C8F800408AF80040FEF7D2FD89F802B0122089F803000E206E
:205BA00089F805001A2089F8060089F807B0BDE8F09F0129FBD1396831B93E602C80012244
:205BC00011460078FEF747FD28883228EFD32C803C608AF80040EAE73229E8D1396831B977
:205BE0003E602C80002211460078FEF734FD28881428DCD3C8F800403C608AF80040FEF756
:205C00009BFD89F802B0122089F803000E2089F805001A2089F8060089F807B0C7E72DE992
:205C2000FC41B148B14EB24FB24D0168002439B104603C6034602C60FEF756FEFEF7E7FE75
:205C4000386850B13C603068401C306000F0A2FDA949096800F0ABFB2860286800F0D8FD1E
:205C60000B4602460090A5A1A64800F0C1FFA54A00210920FDF71DF802B0BDE8F041082124
:205C8000A04A0E20FEF7CCBB2DE9F04796480024DFF87492DFF874829D4E9E4F0168012510
:205CA00029B304609C4804709C480560FEF744FD0120FEF77FFCFEF717FE15220821844806
:205CC00000F0CCFA30783870A9F80040A8F80040FCF7BEFFFCF7D5FF7E4A02210D20FEF779
:205CE0009FFB8F480078BDE8F047FCF78BBF8048016800293ED004603878401EC0B23870AE
:205D000008B930783870FCF7A3FF38783178884230D1B9F80010B8F80000081A814A1278D1
:205D2000801A00B2A8F80010694B7F4A002806DA142159712D211170404200B203E02021BC
:205D4000117015215971632800DD63200A2490FBF4F1997104FB1100D87141F030015170B3
:205D600040F030009070704A03210720FEF758FB6E480560BDE8F08710B55B495B480B68C0
:205D80000022ABB10A600260FEF7D6FC0120FEF711FC152208214E4800F060FAFCF771FF2C
:205DA000FEF7A2FD5E480078BDE81040FCF72ABF4F490B68002B13D00A600268521C0260A3
:205DC0005BA15C4800F014FF5A4A00210820FCF770FF0821BDE81040564A0420FEF720BB1F
:205DE0001DE541480168002914D000210160524801785248302905D0312903D0332901D0EB
:205E0000362903D180221146FBF72ABB00228021FBF726BB12E42DE9F04733480127484C6F
:205E2000484DDFF82481DFF8249101680026F9B10660FEF796FCFEF757FD1522082124488A
:205E400000F00CFA4248334900780870FCF700FFFCF717FF314807602660C8F800602E7037
:205E600089F800602E480078BDE8F047FCF7CABE1F480168002917D006603648DFF8DCC0C5
:205E8000D0F800A034482E492E4A09681278DCF800300068BAF1000F07D00144C91A21608E
:205EA000CCF80000521C2A7064E7D8F800A08244AAEB0303C8F80030CCF8000099F80000B5
:205EC000401CC0B289F80000052849E000000340510100202C000020E000002249000020B1
:205EE0004A000020470000203C000022640000200800002268000020F800002025392E3564
:205F000066000000D1010020280000202A0000204D000020000100204B0000201400002268
:205F2000260000204C0000204F0000202400002225386400DA01002043000020007000402B
:205F400038000020400000203C00002041000020010100205C000022340100203001002086
:205F6000A2D3DFF820A212B9CAF8006003E0B1FBF2F1CAF80010B3FBF0F0CAF804002E70F0
:205F800089F800602660C8F800607F4848210170202444707DA1801CDAF8002000F028FE1F
:205FA0007B484C210170447078A1801CDAF8042000F01EFE03227349764800F03DF9754853
:205FC00003220AF10401C01C00F036F9714A06210C20FEF725FA7048016839B10660BDE869
:205FE000F0470021684A0820FCF763BE0760BDE8F0470021664A0820FCF75BBE70B567483F
:206000000126674C01680025D9B10560FEF7A9FBFEF76AFC15220821624800F01FF9624879
:20602000624900780870FCF713FEFCF72AFE604806606048006800B925605F480078FCF738
:20604000E1FD5E48016800292FD005605C4D286800282AD12268521C2260AFF22C11594871
:2060600000F0C6FD574A00210820FCF722FE554A08210420FEF7D4F9534920680968884263
:2060800013D3FEF79FFB5149312008702E6045480E2101701A21417017218170BDE8704003
:2060A00001214A4A0B20FEF7BBB970BD70B5434801240168002561B105603C490878401C2E
:2060C000C0B208700A2804D30D7041480570334804604048404E017864291FD3057035605B
:2060E00040213E48FBF768FB3D49322258B10878322802D13020087010E0312801D10A7077
:206100000CE034600AE00878322802D13120087004E0302801D10A7000E0346031480188A1
:20612000B1F57A7F0BD33168002908D035600580BDE8704001212A4A1320FEF771B970BDC4
:20614000234800780E281CD2DFE800F007090B0D0F11131415161718191AFFF770BAFFF76F
:2061600030BBFFF75DBBFFF7A2BBFFF7D6BBFFF7F3BB31E453E587E5FEE532E64BE63DE79F
:2061800094E747E630000020E301002025366400EC01002096010020840000223C0000227C
:2061A000640000205101002001010020000100201400002248000022260000200800002296
:2061C00088000022DA0100206000002042000020ED0000204C0100202400002200500240E6
:2061E000100000204201002010B540F20130FBF73BFD40F20230FBF737FD0D4C0222802112
:206200002046FBF7BCF90B23012280212046FBF752F9084C02220F212046FBF7B0F92046CD
:206220000B230122BDE810400F21FBF744B90000005000400060004040EA01039B070AD11E
:2062400002E008C9121F08C0042AFAD203E011F8013B00F8013B521EF9D27047D2B201E0E5
:2062600000F8012B491EFBD270470022F6E710B504460846114602462046FFF7EFFF204664
:2062800010BD034611F8012B00F8012B002AF9D118467047F0B480EA0102D20F4300B3EBB3
:2062A000410F02D20346084619464B0042D0C30DDDB2C1F3C7542C1B202C35DAC1F31601CC
:2062C00041F4000502B16D42C4F1200605FA06F125412844B3EBD05F23D0C2B1012CA0EB94
:2062E000C35009DCF0BC4FF0004202EAC35200F50000DBB200F090BB400000F1807000EBAF
:20630000C350A0F1807040EAD170490009E0490841EAC071A0EBC35000F50000400800EBD9
:20632000C350F0BC00F06FBB5142012303EB4101801AF6E7F0BC704781F00041AAE780F010
:206340000040A7E780EA010210B502F00042400001D04B0001D1002010BD4FEA106101EB58
:206360001361C0F35600C3F3560340F4000043F40003A0FB0330A1F17F014FEA00401C04AA
:2063800001D000F1010050EA134001D44000491EC3B20C0604EBD010401C4008802B01D1BA
:2063A00020F00100002900DA0020104310BD80EA010202F0004330B430F0004221F0004050
:2063C00015D0A0B1C0F3C754C2F3C755C2F31601C0F316002D1B41F4000140F400007D35EF
:2063E000814201D36D1C00E04900002D02DA30BC002070474FF400020024814201D3091A65
:20640000144352084FEA4101F7D151B1814202D14FF0004105E002D24FF0010101E06FF036
:20642000010104EBC55030BC184400F0ECBA2DE9FF4D81EA030086B04FEAD07806981D46F0
:206440000F4623F0004321F00041801A1646994105D2394606982F46069606460D460023A8
:2064600025F00041594086EA0300084304D1069839460AB0BDE8F08D3C0DC4F30A00C5F3DF
:206480000A510590401A049040286BDAC5F3130040F4801AB8F1000F02D076426AEB4A0AED
:2064A00004985146C0F14002304600F07CFA83460D4651463046049A00F094FA069A861857
:2064C0004F4184EA175050EAE47042D0B8F1000F2CD004984FF0000201284FEA045312DC7F
:2064E000B01A67EB03014FF0004303EA0454059B001CCDE90143009241F580112B465A4695
:2065000000F0D1FAB5E7B01A67EB0301001C41F5801100184941001CA3F5001341EB030782
:2065200040EAD5761BEB0B0B6D4112E06D084FEA3B0B4FEA0454301E67EB0401001C41F5AE
:206540008011490845EAC6754FEA3000061C41EB04072B465A46394630460AB0BDE8F04D8B
:2065600000F088BA4FEA48000122141A0023069A63EBE073B2EB080067EBE8712246ECE728
:2065800083F0004353E781F0004150E72DE9F04D834681EA030023F0004488B000F00040D9
:2065A000002321F00045079085EA03018BEA03009246084305D084EA03018AEA03000843B4
:2065C00004D10020014608B0BDE8F08DC4F30A50C5F31301C5F30A521318ABFB0A2541F47F
:2065E0008018C4F3130141F48014A3F2F33308FB0A5104930BFB04134FEA9B204FEA9A21BA
:2066000040EA885041EA8451A0FB01654FEA982707FB01514FEA942C00FB0C1739053005A1
:20662000151A41EA163163EB010105914FEA9B604FEA9A6140EA881041EA8411A0FB01400D
:20664000321E804667EB0403280D0599C5F3130540EA0130861843EB1150001948F100014D
:20666000049B2A030C3B46EA15540293079D0023CDE90035234600F016FAA4E72DE9FF0F0F
:20668000054681EA0302002082B002F0004223F00046CDE90002034621F0004484EA030198
:2066A00068404FF4801A084325D00023049886EA0301584008431ED0C4F30A51C4F3130233
:2066C00042F48014C6F3130242F48012C6F30A5013460592081A049A00F2FD3BA81AD04695
:2066E00074EB030102D30BF1010B01E06D196441BBF1000F05DA06B0BDE8F00F00200146F3
:20670000704700264746B046B24611E0DDE90423A81A74EB030106D3AD1A64EB030448EAF6
:2067200006084AEA070A7F084FEA36066D196441002387EA030186EA03000843E6D184EA64
:20674000030185EA0300084315D0DDE9042384EA030185EA0200084303D100254FF00044FC
:2067600009E0A81A74EB030102D20125002402E06FF001056C10DDE9002318F100004AEB03
:206780000B518018594123462A4606B0BDE8F00F00F070B996230022114600F03DB90EB544
:2067A000002140F233430091CDE901130B460A4600F079F903B000BD20F00040C10DC0F371
:2067C000160040F400007F2901DA00207047962903DCC1F19601C840704796398840704721
:2067E00021F000410A0DC1F3130140F2FF3341F480119A4201DA0020704740F233439A422C
:20680000A2F2334202DC524200F0DDB89040704700F0004230F0004001D101467047C30DBF
:20682000C0F3160003F56073C108400742EA0352114370472DE9F04107460D46002001F030
:2068400000414140404016461C464FF00048084302D17F4268EB0505002004F0004141409F
:206860004040084302D1764268EB040438462946324623468B4208BF8242BDE8F08100002B
:206880002DE9F04107460D46002001F000414140404016461C464FF00048084302D17F429A
:2068A00068EB0505002004F0004141404040084302D1764268EB0404384629463246234626
:2068C000994208BF9042BDE8F0810000F0B40023054601F0004621F0004484EA0301584086
:2068E000084306D0200DA0F56070C4F31301002802DCF0BC002070476A0F42EAC1023244B3
:20690000E900F0BC02EBC05000F07DB8002801DBC0F10040002901DBC1F100418142704759
