:020000040000FA
:20000000500B0020510000003101002033010020350100203501002035010020000000006C
:20002000000000000000000000000000230100003501002000000000350100203502002099
:20004000350100203501002035010020350100204FF0080149F640400138FDD10139F9D136
:2000600000F011F800F024F800F074F818B100F076F800F079B84FF44060304908600168AA
:200080008D46406800472E48016841F01B0101602C48016840F2F33242F480226FEA0202A8
:2000A00001EA020141F4607141F0020101607047EFF3108072B6002200234FF0005050F84A
:2000C000041B452905D150F8041B452901D1452203681D4840F8042B40F8042B036000208E
:2000E0004FF00051194A50F8043B41F8043B9142F9DB0020164A41F8040B9142FBDB0F489F
:200100004FF0005101604EF0005EEFF3108062B67047EFF3108072B67047EFF3108062B636
:200120007047FFF7C5FF00200068854600F01CB8FEE7FEE7FEE70138FDD1704708ED00E0F5
:2001400034E00F4060E00F40800A0020080A0020080A002040F2751CC2F2000C604740F243
:20016000452CC2F2000C604740F2D92CC2F2000C6047000070B5294C206840F00400206033
:200180004FF0C80000F01AFC206840F040002060234D002028674FF0FF006867E8674FF020
:2001A000C80000F00BFC55F8A40C1E4908700878401CC0B20870216821F0400121601A491F
:2001C0000A68452A04D14A68452A01D1012070BD88604FF440610868421C0BD04FF40072FE
:2001E000B2EB105F06D14868411C03D00F490840012801D0012070BD0D4CD4F8A00440F05B
:200200002000C4F8A00444F6206000F0D7FB606808B9012070BD002070BD000008E10F4086
:20022000A0640240EA090020800A00200100F0FF7C600040B4484169491C41610179491C23
:200240000171704770B5B14C54F8640C20F0010044F8640C4CF2503000F0B0FB54F8640CC5
:2002600020F0300044F8640C0725E56700F07FFB00F045FB00F028FA00F070FAA249802089
:20028000087041F2883000F099FB41F63F714FF0E02041610561606C40F001006064206CFC
:2002A00040F0010020649A48016841F003010160D0F8FC1041F00301C0F8FC1095484FF0BF
:2002C000340141624FF0050181624FF07001C16240F20131016370BD2DE9F84F8A4E8E484B
:2002E00030614FF0FF30F06000273771F770DFF828828A4C4FF0400BA8F103080125752039
:2003000000906946306900F023F90028F7D13069017820390A2973D2DFE801F0050A4673A6
:200320007BD5EBEBDDE586F801B000F008F9E6E786F801B00098092802D0422070702CE0D0
:20034000D8F8040000BAF060D8F8081009BAB1606E4AC43A926892B2521CD202F37803B1AE
:2003600010B1B0F5406F04D10144914201D8810702D04320707010E06561694B06E0206035
:20038000A360A1688907FCD400F580609042F6D3E068C00701D0442070707078402800D03D
:2003A000B76000F0CCF8AAE700F0C9F80098052802D042207070A2E7D8F8040000BAF060F0
:2003C0005249C439896801F48031C902884202D34320707093E700F023F94C48C438C0F873
:2003E0000471C0F8087141F2130141640B21816447648764F06880474B494A480860FEE732
:2004000077E000F09CF840480121401C00F0E3F875E786F801B0F06898B965610020404A8C
:200420004FF440632060A260A1688907FCD400F580609842F6D3E068C00702D0B760442017
:2004400070700099491E0091D6F80890894525D365610020DFF8C8A0CB1CAAF1010A23F03A
:20046000030CF2680CE01318236005EB900358F823306360C4F808A0A368DB07FCD1001D55
:200480008445F0D8E068C00702D04420707007E0A9EB0100B0605018F06001E0432070703E
:2004A0003078401CC0B23070410709D5000603D5377000F076F903E08020307000F04EF9C2
:2004C00000F03DF81BE700F03AF800F0A9F8164914480860FEE70099022999D141780E48FD
:2004E000753081600BE70099022991D14078F07005E700F024F80848B1787530806888427E
:2005000086D141207070FAE6E8090020C4E00F402044004000C000400B0A002000D00F4067
:20052000020042A40400FA050CED00E0002202E010F8013B1A44491EFAD2D0B270470221C2
:20054000364800F075B835480221801C00F070B82DE9FC4105460E4600200190012101A83E
:2005600000F078F80028F9D001980328F6D3CC28F4D00198801E01900121684600F06AF8FB
:2005800004464FF0FF3714B93846BDE8FC813068019988420FD3284600F05CF838B1284648
:2005A0000199FFF7C3FF0099C9B288420FD0FFF7CAFF3846E9E70121284600F04BF80199C2
:2005C000491E01910CB10029F5D13846DDE7019830600020D9E713B582B0044620460399E5
:2005E000FFF7A4FF01900398801C0390012103A800F01EF8012101A800F01AF80399204665
:20060000891E00F015F800200190012101A800F021F84FF0FF3004B010BD0000C6090020D3
:20062000184881690906FCD581690907FCD47047154A9268154B1B789A420AD1114A05E0CC
:2006400093699B06FCD410F8013B1360491EF7D2E6E7704730B50E4A00251570094B04E0A3
:200660001478642C01D9002030BD9C69E406F7D41C6800F8014B1570491E0029F5D1FF20FB
:2006800030BD000000C00040800A0020EA090020EC09002030B50222C0F30321464D1346CF
:2006A000032900D20B4605EB8303D3F800314FF0010404FA00F443EA040300D20A4605EBFD
:2006C0008200C0F8003130BD70B53C4C0721204600F062F94FF0402500221021284600F0E7
:2006E0001EF940F2712000F069F910221146284600F015F941F66A0000F060F9A4212046C4
:2007000000F053F9BDE870404FF2244000F056B92DE9F0410546294F0F21384600F03CF9C7
:200720000024274E45EA04000002902D0BD1315D01F07F021E2A02D2224B9A5C104301F08F
:200740008001014301E0315D0143384600F02DF9641CE4B2082CE5D3BDE8F08130B4184831
:20076000162101701B21417081701921C17015240471154909780A22B1FBF2F302FB13111D
:20078000C171B3FBF2F102FB1133837129B1B1FBF2F302FB1311417100E0447130BC9020F2
:2007A000B6E70020064A15211154401CC0B20828FAD39020ACE7000000E00F400080004094
:2007C000000A0020CA090020EA09002010B5D40703D0D0F800450C4302E0D0F800458C435C
:2007E000C0F80045940703D5D0F804450C4302E0D0F804458C43C0F80445540703D5D0F86B
:2008000008450C4302E0D0F808458C43C0F80845120703D5D0F818250A4302E0D0F8182547
:200820008A43C0F81825DA0703D0D0F80C250A4302E0D0F80C258A43C0F80C259A0703D5F2
:20084000D0F810250A4302E0D0F810258A43C0F810255A0703D5D0F814250A4302E0D0F884
:2008600014258A43C0F814251A0703D5D0F81C250A4302E0D0F81C258A43C0F81C251BB9AD
:20088000D0F828250A4302E0D0F828258A43C0F8282510BDD30703D0D0F800340B4302E087
:2008A000D0F800348B43C0F80034920703D5D0F820240A4302E0D0F820248A43C0F8202401
:2008C000704730B504460D46022229462046FFF7E1FF29462046BDE830400823012275E77C
:2008E00030B504460D46012229462046FFF7D2FF29462046BDE830400823012266E710B56D
:200900004FF44070FFF7C6FE4FF0402410212046FFF7E6FF2046BDE810402C21D1E740F87D
:2009200021207047416841F002014160704770B5DDE904650824022B00D000240BB9002302
:2009400000E0042323434360B1FBF6F40021891CB4FBF1F35B1EFF2BF9D80161910102F03E
:20096000300241EA032111432943016070BD1CB54FF48270FFF78EFE072344F62062CDE984
:2009800000230D4C00231A460A492046FFF7CFFF2046BDE81C40C5E7C268D207FCD002688F
:2009A00022F00F020A4302607047C2689207FCD58160704700127A000080004040F2371CB1
:2009C000C0F2000C604700CC00337E306D79335B5F707F7B777F4E7E4F477B370E77010038
:2009E0001F3D3E0F151D67760000000000000000000000000000000000000000000000003F
:200A00000000000000000000FFFFFFFFFFFFFFFFFFFFFFFFFFFFFFFFFFFFFFFFFFFFFFFFEE
:200A2000FFFFFFFFFFFFFFFFFFFFFFFFFFFFFFFFFFFFFFFFFFFFFFFFFFFFFFFFFFFFFFFFD6
:200A4000FFFFFFFFFFFFFFFFFFFFFFFFFFFFFFFFFFFFFFFFFFFFFFFFFFFFFFFFFFFFFFFFB6
:200A6000FFFFFFFFFFFFFFFFFFFFFFFFFFFFFFFFFFFFFFFFFFFFFFFFFFFFFFFFFFFFFFFF96
:200A8000FFFFFFFFFFFFFFFFFFFFFFFFFFFFFFFFFFFFFFFFFFFFFFFFFFFFFFFFFFFFFFFF76
:200AA000FFFFFFFFFFFFFFFFFFFFFFFFFFFFFFFFFFFFFFFFFFFFFFFFFFFFFFFFFFFFFFFF56
:200AC000FFFFFFFFFFFFFFFFFFFFFFFFFFFFFFFFFFFFFFFFFFFFFFFFFFFFFFFFFFFFFFFF36
:200AE000FFFFFFFFFFFFFFFFFFFFFFFFFFFFFFFFFFFFFFFFFFFFFFFFFFFFFFFFFFFFFFFF16
:200B0000FFFFFFFFFFFFFFFFFFFFFFFFFFFFFFFFFFFFFFFFFFFFFFFFFFFFFFFFFFFFFFFFF5
:200B2000FFFFFFFFFFFFFFFFFFFFFFFFFFFFFFFFFFFFFFFFFFFFFFFFFFFFFFFFFFFFFFFFD5
:200B4000FFFFFFFFFFFFFFFFFFFFFFFFFFFFFFFFFFFFFFFFFFFFFFFFFFFFFFFFFFFFFFFFB5
:200B6000FFFFFFFFFFFFFFFFFFFFFFFFFFFFFFFFFFFFFFFFFFFFFFFFFFFFFFFFFFFFFFFF95
:200B8000FFFFFFFFFFFFFFFFFFFFFFFFFFFFFFFFFFFFFFFFFFFFFFFFFFFFFFFFFFFFFFFF75
:200BA000FFFFFFFFFFFFFFFFFFFFFFFFFFFFFFFFFFFFFFFFFFFFFFFFFFFFFFFFFFFFFFFF55
:200BC000FFFFFFFFFFFFFFFFFFFFFFFFFFFFFFFFFFFFFFFFFFFFFFFFFFFFFFFFFFFFFFFF35
:200BE000FFFFFFFFFFFFFFFFFFFFFFFFFFFFFFFFFFFFFFFFFFFFFFFFFFFFFFFFFFFFFFFF15
:200C000008240020010D0000430D0000450D0000470D0000470D0000470D000000000000DC
:200C2000000000000000000000000000470D0000470D000000000000470D0000DD220000B9
:200C4000470D00006928000049290000470D0000470D00003B23000085240000470D00003A
:200C6000470D0000470D0000470D0000470D0000470D0000470D000039230000470D0000CC
:200C8000470D0000470D0000D9220000CD250000212600004F2600007127000089270000BB
:200CA000B5270000470D0000470D0000470D0000470D0000470D000091290000470D0000A6
:200CC000470D0000470D0000470D0000470D0000470D0000470D0000470D0000372A000067
:200CE000470D0000470D0000470D0000470D0000470D0000470D0000470D0000470D000054
:200D00001148016821F03F0141F01B0101600F48016840F2F33242F480226FEA020201EADB
:200D2000020141F4607141F00201016000204FF0005101F5804241F8040B9142FBDB00F0CC
:200D400007B8FEE7FEE7FEE734E00F4060E00F40DFF80CD006F02EFF004800471922000093
:200D6000082400200138FDD17047000070B50E46FF4D29680C68296804EA00000860306820
:200D80004FF00100FFF7EEFF306829680C6070BD01600120FFF7E6BF0146F64A6FF08003E8
:200DA000184691420AD0F44A6FF48070914205D0F24A6FF40070914200D01846704770B503
:200DC00004460D462046FFF7E7FF06469DB1012D1DD0022D29D0032D35D104F5B071304691
:200DE000FFF7C4FF054604F5B2713046FFF7BEFF45EA004070BD211D3046FFF7B7FF054663
:200E00006FF01F01201DFFF7C3FF284670BD04F580713046FFF7AAFF054604F58271304617
:200E2000FFF7A4FF45EA004070BD04F590713046FFF79CFF054604F592713046FFF796FF34
:200E400045EA004070BD002070BD10B504462046FFF7A2FF2146FFF789FF20F00101204640
:200E6000BDE8104094E72DE9FC4704460D4691464FF00008CDF80480CDF8008000262046D4
:200E8000FFF78AFF824604F1200739465046FFF76DFF0004F9D4B321B9F1020F18D04FF4ED
:200EA0000050B9F1030F16D0B9F1040F7DD1ADF802004FF490562A68100620D5500617D586
:200EC000A868ADF80400C0F30C40ADF8060016E0ADF80280EFE7ADF802004FF480564FF6B7
:200EE000FF70ADF80400C010ADF80600F321E2E7ADF80480A868C0F38C10ADF80600100639
:200F000007D5900505D5BDF8060040F40040ADF80600100607D5D00505D5BDF8060040F41C
:200F20008040ADF80600100603D4900501D4D00503D546F4805641F04001500613D5BDF8CD
:200F4000003068680343ADF80030BDF80230C0F30C400343ADF80230BDF8020040F4404008
:200F6000ADF802000DE06B68BDF80200C3F38C131843ADF80200BDF8020040F40040ADF82C
:200F80000200C2F30300304340F08006900601D546F4806604F12400FFF7FAFEBDF8041012
:200FA00004F12800FFF7F4FE00E01DE0BDF8061004F12C00FFF7ECFEBDF8001004F1300099
:200FC000FFF7E6FEBDF8021004F13400FFF7E0FE314604F13800FFF7DBFE2868C0F3044178
:200FE0003846BDE8FC47D3E6BDE8FC87FEB5064663486C460EC884E80E00022269463046B5
:20100000FFF731FF5E480C300EC884E80E005D4D28788DF80500022269463046FFF723FF43
:20102000574824300EC884E80E0028788DF80500022269463046FFF716FF514830300EC820
:2010400084E80E00022269463046FFF70CFF4C483C300EC884E80E0028788DF8050002222E
:2010600069463046FFF7FFFE454848300EC884E80E0028788DF80500022269463046FFF79A
:20108000F2FE3F4854300EC884E80E00022269463046FFF7E8FE3A4860300EC80EC4287886
:2010A0008DF80500022269463046FFF7DCFEFEBD70B505460C462846FFF76EFE2946FFF7DB
:2010C00055FE40EA04012846BDE8704060E670B504460E462046FFF75FFE2146FFF746FE68
:2010E000054645F041012046FFF752FE04F10C003168FFF74DFE002104F11800FFF748FE3D
:2011000025F040012046BDE8704041E62DE9F04105462846FFF740FE074601212846FFF790
:2011200037FE05F1200631463846FFF71FFE0004F9D405F12400B0218046FFF729FE002196
:2011400005F13400FFF724FE002105F13800FFF71FFE012431463846FFF708FE0004F9D404
:2011600021463046FFF714FE641C202CF2D90BE004E100E000000440001004400020044047
:201180007C850000480100200C214046FFF700FE012431463846FFF7E9FD0004F9D4214610
:2011A0003046FFF7F5FD641C202CF2D9291D3846BDE8F041DAE510B504462046FFF7ECFD8D
:2011C0002146FFF7D3FD40F001012046BDE81040DEE538B5182000F09BFDB74C2046FFF786
:2011E000EAFF4FF4A25000902046FFF78FFF69462046FFF76CFF0A212046FFF759FF20469C
:20120000FFF7F4FE2046FFF720FE00212046FFF7D6FD38BD2DE9F04105460E4617460024C0
:201220000DE02046295C641CBC4204D22046285C641C41EA00213046FFF7AAFD361DBC4268
:20124000EFD3BDE8F0812DE9F04180460D4616461F4600240DE031464046FFF787FD361DBA
:201260002146641C6854BC4203D2000A2146641C6854BC42EFD3E4E770B504460E46204697
:20128000FFF78AFD05467EB1012E13D104F5A0712846FFF76BFD86B204F5A2712846FFF7C6
:2012A00065FD46EA004070BD04F110012846BDE870405BE5002070BD2DE9F04104460F46F3
:2012C0002046FFF769FD0546B7F5004F04D1211D2846BDE8F04149E504F120063146284681
:2012E000FFF744FD0004F9D4082104F12400FFF74FFD07F03F013046FFF74AFD3146284693
:20130000FFF734FD0004F9D49BE770B505460C462846FFF741FD05F10801FFF727FDC0F323
:201320000E012180000401D5012070BD002070BD2DE9F84304460D469046002600962046A2
:20134000FFF72AFD814604F1200739464846FFF70DFD0004F9D44FF0B309B8F1000F4CD1DF
:201360004FF42040ADF802002868C0F3030242F4C078C10601D548F4006841060FD5696830
:20138000ADF80010C1F30C4141F42041ADF80210BDF8021041F48041ADF8021008E0ADF849
:2013A00000606968C1F38C1141F42041ADF80210000705D004F13C0105F10800FFF72AFF33
:2013C000494604F12400FFF7E3FCBDF8001004F13000FFF7DDFCBDF8021004F13400FFF7F1
:2013E000D7FC414604F13800FFF7D2FC2868C0F304413846BDE8F843CAE4BDE8F8832DE9D8
:20140000F84305460C461646002000902846FFF7C3FC0746772106B17F2105F18400FFF719
:20142000B7FC2068C0F3044105F180000646FFF7AFFC31463846FFF799FC0004F9D405F1CF
:2014400090013846FFF792FC1FFA80F8ADF8008005F194013846FFF789FC86B2ADF8026080
:2014600005F198013846FFF781FC80B2710409D5C6F30C0148EA01416160216841F0400171
:20148000216002E0F104490B616001040ED5216860F303012160C1F3030305F19C0204F153
:2014A0000801384601B0BDE8F043CCE6206820F00F002060A1E700000000044040F82120FE
:2014C0007047D30703D0D0F808340B4302E0D0F808348B43C0F80834930703D5D0F804343C
:2014E0000B4302E0D0F804348B43C0F80434520703D5D0F80C240A4302E0D0F80C248A43E1
:20150000C0F80C24704710B5D40703D0D0F800450C4302E0D0F800458C43C0F80045940707
:2015200003D5D0F804450C4302E0D0F804458C43C0F80445540703D5D0F808450C4302E037
:20154000D0F808458C43C0F80845120703D5D0F818250A4302E0D0F818258A43C0F81825B6
:20156000DA0703D0D0F80C250A4302E0D0F80C258A43C0F80C259A0703D5D0F810250A431D
:2015800002E0D0F810258A43C0F810255A0703D5D0F814250A4302E0D0F814258A43C0F8C3
:2015A00014251A0703D5D0F81C250A4302E0D0F81C258A43C0F81C251BB9D0F828250A43BC
:2015C00002E0D0F828258A43C0F8282510BDD30703D0D0F800340B4302E0D0F800348B43D2
:2015E000C0F80034920703D5D0F820240A4302E0D0F820248A43C0F82024704730B5044698
:201600000D46012229462046FFF7E1FF29462046BDE830400823042275E730B504460D4690
:20162000002229462046FFF7D2FF29462046BDE830400823042266E730B504460D460222BE
:2016400029462046FFF7C3FF29462046BDE830400A23042257E730B504460D46022229466D
:201660002046FFF7B4FF29462046BDE830400823042248E730B504460D4602222946204676
:20168000FFF7A5FF29462046BDE830400823042239E730B504460D46022229462046FFF7E4
:2016A00096FF29462046BDE83040082304222AE72DE9F0474FF4407000F02AFB40F2013091
:2016C00000F026FB40F2023000F022FB40F2033000F01EFB4FF4417000F01AFB40F20530BA
:2016E00000F016FB40F2073000F012FB4FF0402403212046FFF7AFFF10212046FFF77EFFA8
:201700002C212046FFF7C5FFC0212046FFF794FF554D03212846FFF78FFF14212846FFF73B
:201720007CFF68212846FFF769FF504E10213046FFF782FF60213046FFF76FFF80213046AB
:20174000FFF75CFF4A4F03213846FFF793FF0C213846FFF780FF10213846FFF76DFFE02143
:201760003846FFF74BFF0F214248FFF747FFDFF80881C7214046FFF741FF38214046FFF7DC
:201780004CFFDFF8F8900F214846FFF737FF04220A2311462846FFF7B6FE0022042128463E
:2017A000FFF78FFE0A23042220213046FFF7ABFE002220213046FFF784FE0A230422382100
:2017C0004046FFF7A0FE002238214046FFF779FE012211464046FFF771FE0022062140464D
:2017E000FFF76CFE03F01AFE002240214046FFF765FE002210212046FFF760FE00220821C4
:201800002846FFF75BFE002220212846FFF756FE002201214846FFF751FE002240212846E8
:20182000FFF74CFE002202214846FFF747FE202211463846FFF742FE002240213846FFF716
:201840003DFE802211463846FFF738FE802211463046FFF733FE4046BDE8F04700228021EF
:201860002CE650F82100704700500040006000400070004000400240005002400070024090
:201880004FF0E021042806D1D1F8240D40F48030C1F8240D7047052806D1D1F8240D40F454
:2018A0000030C1F8240D7047062806D1D1F8240D40F48020C1F8240D70470F2804D1086966
:2018C00040F0020008617047103800F01F0301229A40400901EB8000C0F80021704710B555
:2018E0008307FF22DB0E9A4099404FF0E02410280BD2631703EB900004EB8000D0F8183DC5
:2019000093431943C0F8181D10BD6FF0030303EB900004EB8000D0F8003493431943C0F8A3
:20192000001410BD00B5A0210F20FFF7D8FFC0211520FFF7D4FFC0211620FFF7D0FF602118
:201940002320FFF7CCFF00212420FFF7C8FF20212520FFF7C4FF60212620FFF7C0FF402145
:201960002720FFF7BCFF80213720FFF7B8FF60211120FFF7B4FFA0211220FFF7B0FF602156
:201980002E20FFF7ACFF0F20FFF77AFF1520FFF777FF1620FFF774FF2320FFF771FF24208D
:2019A000FFF76EFF2520FFF76BFF2620FFF768FF2720FFF765FF3720FFF762FF1120FFF706
:2019C0005FFF1220FFF75CFF2E205DF804EB57E710B500F01BFCC0B210BD10B500F012FC88
:2019E000C0B210BD4FF0E021042806D1D1F8240D20F48030C1F8240D7047052806D1D1F839
:201A0000240D20F40030C1F8240D7047062806D1D1F8240D20F48020C1F8240D70470F2825
:201A200004D1086920F0020008617047103800F01F0301229A40400901EB8000C0F88021C9
:201A400070470000416841F002014160704770B5DDE904650824022B00D000240BB9002312
:201A600000E0042323434360B1FBF6F40021891CB4FBF1F35B1EFF2BF9D80161910102F00D
:201A8000300241EA032111432943016070BD1CB54FF4827000F03CF9072344F21B12CDE909
:201AA00000230D480D4C002301681A462046FFF7CEFF2046BDE81C40C4E7C268D207FCD05F
:201AC000026822F00F020A4302607047C2689207FCD58160704700004C01002000800040BA
:201AE000F0B5A54C236E216F01F07000002901DB03F03000A14D4FF0805620281DD00CDC86
:201B000090B1102844D1206810F0E04F03D020682840B0420FD19A481DE0302819D0702833
:201B200036D14FF4004016E0964803F4F86200EB121000680FE094480DE0206810F0E04F12
:201B400003D020682840B04201D1904803E0904801E047F23050002901DA0A0505D501F0F3
:201B6000004203F400673A4323D1626E276817F0E04F03D024682C40B4420BD1C2F3481411
:201B8000A41C604302F01F04A41CB0FBF4F00AE00020F0BDC2F34814604302F01F04641C7E
:201BA0006400B0FBF4F0540400D54008120400D580085A02EDD5002905DAC1F3C551491CF5
:201BC000B0FBF1F0F0BDC3F3C351491CB0FBF1F0F0BD2DE9F0410446DFF89C81D8F800000F
:201BE00010F0E04F06D0D8F8000064490840B0F1805F01D1002C75DBD8F86010D8F87000CD
:201C000041F4006121F4800540F40066C8F86050C8F87060A80701D5A00703D525EA0400E3
:201C2000C0071BD064F003000540C8F86050002E05DAC6F30210032807D0072805D0002EDA
:201C400008DBC5F30110032804D14FF48050FFF789F803E04FF40020FFF784F843F2F07001
:201C6000854304EA00072F434A4806404A4904EA0100304304F0080140EAC1054020C8F85B
:201C80005800002D04DAC8F87050C8F8607003E0C8F86070C8F870501020FFF763F83F48D6
:201CA0000740C04304EA0001394325F0FC5004F0FC52024320050CD44FF40040D8F85030AF
:201CC0005B0602D4401E0028F8D121F4006122F40062C8F86010C8F87020BDE8F04110200A
:201CE000FFF740B8BDE8F08123494863704710B52148006880B2022802D11B20FFF7F4FF29
:201D00002748FFF766FFFFF7EBFE2649086010BD30B50222C0F30321174D1346032900D2DB
:201D20000B4605EB8303D3F800314FF0010404FA00F443EA040300D20A4605EB8200C0F82A
:201D4000003130BD30B50222C0F303210A4D1346032900D20B4605EB8303D3F800314FF0D5
:201D6000010404FA00F423EA040300D20A4605EB8200C0F8003130BD00E00F400000FF7050
:201D8000C0E1E40018860000001BB70070383900C0C62D008FDFFF7F30200080FCFF3FF8CC
:201DA0008003C0034C0100204FF0E020016941F00201016170474FF0E020016941F005019A
:201DC00001617047401E4FF0E0214861704700B5074808490068B0FBF1F04FF47A714843EA
:201DE000FFF7F0FFFFF7E7FF5DF804EBDCE700004C01002040420F00C26840F20113194054
:201E00000A43C260704782690A438261704711F0FF0F00D0026311F47F4F00D04263704787
:201E200011F0FF0F00D0826211F47F4F00D0C2627047FF2907D102F00C01C26822F00C0218
:201E40000A43C260704702F44062B1F57F4F05D1C16821F440611143C1607047A1F57F4317
:201E6000FF3BFAD1C16840F60C4399431143C1607047C26840F201139A43C2600A0E0260BE
:201E8000CAB24260C1F30721816070472DE9F0414FF48870FFF73CFF464FDFF81C81394675
:201EA0004046FFF7E6FF0422FF214046FFF7C1FF0122FF214046FFF7B3FF0022FF21404606
:201EC000FFF7A5FF01214046FFF79DFF4FF47F443A1421464046FFF7ACFF4FF6FF752A4623
:201EE00021464046FFF79CFF002221464046FFF78EFFBE1431464046FFF785FF214640469C
:201F0000FFF77AFF40F21110FFF702FF39462B4F3846FFF7AEFF0422FF213846FFF789FFAC
:201F20002748FF2102883846FFF77AFF0022FF213846FFF76CFF01213846FFF764FFFF2161
:201F40003846FFF759FF40F2044221463846FFF770FF1C48214602883846FFF761FF0022A8
:201F600021463846FFF753FF31463846FFF74BFF4FF48970FFF7CCFE144C13492046FFF7EB
:201F800078FF0422FF212046FFF753FF2A46FF212046FFF745FF0022FF212046FFF737FFD2
:201FA00001212046FFF72FFF2046BDE8F041FF2122E7000003030004000003400010034070
:201FC0008600002076000020030A000400200340826B0A4382637047114341637047C16AA1
:201FE00041F01001C162016B40F2013211430163704781690907FCD4C16A21F01001C16202
:20200000016B40F2013291430163704770B504460E4615462046FFF7ECFFF000B0FBF5F01B
:20202000401C40088109616200F03F00A062D8B2E0620020A0612046BDE87040CFE72DE90A
:20204000F04186B004463F4850F824603E483F4A50F82400C0F30261555CC0F3834161F36F
:202060004615C0F3815161F3C3050495384FC0F31108404605F076FB0146384605F073F966
:202080006FF0020105F0AFF93249334F884202DA0A20385513E03149884202DD1F20385505
:2020A0000DE005F0C6FBCDE902012DA00CC8029805F0A5F9CDE9000105F07AFB38552A48D6
:2020C0002B46016842463046FFF7A0FF202200213046FFF781FF304606B0BDE8F0417021B1
:2020E00076E710B54FF48070FFF712FE40F20110FFF70EFE154914488A680260C968416060
:202100000020FFF79CFFBDE81040012097E7806940F30010401C7047006870478269920699
:20212000FCD4016070478069C0F3C0007047826B8A438263704709B1006C7047C06B70478F
:2021400041647047F4870000980100207486000000401C4700002041860100200000F84111
:20216000000000000000E03F4C0100204FF08040816841F00101816070471E48016841F41C
:202180008071016070474FF08040816841F00201816070474FF080410860704701208107BA
:2021A000C8607047154914480860704710B50320FFF7AEFDFFF7F6FFFFF7F0FF10484FF473
:2021C0007A710068B0FBF1F049104843FFF7E2FFFFF7D9FFFFF7D1FFBDE81040C6E74FF0F0
:2021E00080400068704700B5FFF7F9FF5DF804EBD0E700001804004051E5CC1A000C00409E
:202200004C010020EFF3108072B67047EFF3108062B6704730BF704710B54FF4FA70FEF7B2
:20222000A1FD4FF22440FEF79DFDFFF7D6FBFFF75EFDFFF73DFAFFF7CAFDFFF728FCFFF7BA
:2022400050FFFFF723FE00F0AAFEFEF7C2FFFFF7ADFF00F003FDFFF765FBFFF7B9FBFFF742
:20226000C2FF01F0BDF901F0BAF801F0D4F901F05BFB01F06BF901F081FB002001F096FCE9
:20228000012001F093FC002001F039FC002001F0E0FB012001F033FC012001F0DAFB02F051
:2022A00069FF02F092FF03F0B5FA04F0FEFE00F0D0FD02F0F8F802F023FA02F0E3FB02F031
:2022C0001DFC02F0D6FC02F03DFD02F05EFD02F0BDFE02F0DDFEC2E7FFF760BFF9490868BE
:2022E000401C0860F84A1068401C1060F74A108808B1401E1080F64A107808B1401E1070B5
:2023000008684107F34802D10178491C0170F24AF2491378522B05D1F14B9B69DB0601D45D
:2023200003780B705278522A05D1EE4A9269D20601D400784870704770472DE9F05FE84F71
:2023400001213846FFF7F7FE064631463846FFF7F7FEDFF89483B0064FF001094FF0000595
:202360003ED5DFF888A39AF800004F2808D0C8F80050BDE8F05F00224021DD48FFF79EB86F
:20238000D8F8000038B1C8F8005000224021D848FFF794F806E0C8F8009040221146D44844
:2023A000FFF78CF80024DFF84CB3D349BBF80020088890420BD2421C0A80D049095C384697
:2023C000FFF7ACFE641CE4B20C2CEED308E08AF80050C8F8005000224021C548FFF76EF898
:2023E00016F0500F1ED0D8F8000038B1C8F8005000224021BE48FFF761F806E0C8F80090B3
:2024000040221146BA48FFF759F8B349087845280AD102E03846FFF77FFE3846FFF777FE3A
:202420000028F7D1BDE8F09FDFF8D48218B952200870A8F80050F00601D50C2400E0102490
:202440004FF40066DFF8BC9212E0B8F80000B04201D3A8F800503846FFF75EFEB8F80010C6
:2024600009F80100491CA8F80010641EE4B224B13846FFF74CFE0028E7D196480078974984
:202480000870CFE72DE9F05F964F01213846FFF752FE064631463846FFF752FEDFF84882B6
:2024A000B0064FF001094FF000053ED5DFF83CA29AF801004F2808D0C8F80050BDE8F05F2B
:2024C000002240218A48FEF7F9BFD8F8000038B1C8F80050002240218548FEF7EFFF06E018
:2024E000C8F80090402211468148FEF7E7FF0024DFF800B28049BBF80220488890420BD265
:20250000421C4A808049095C3846FFF707FE641CE4B20C2CEED308E08AF80150C8F8005012
:20252000002240217248FEF7C9FF16F0500F1ED0D8F8000038B1C8F80050002240216C484E
:20254000FEF7BCFF06E0C8F80090402211466848FEF7B4FF60494878452809D102E0384674
:20256000FFF7DAFD3846FFF7D2FD0028F7D159E7DFF88C8118B952204870A8F80250F00654
:2025800001D50C2400E010244FF40066DFF87C9112E0B8F80200B04201D3A8F802503846BA
:2025A000FFF7BAFDB8F8021009F80100491CA8F80210641EE4B224B13846FFF7A8FD002865
:2025C000E7D144480078454948702BE710B55048806C84B24F4800684F4B01225A624F4958
:2025E00009780B2906D0082905D19A624C490888401C088010BD4B4909889962D96841F0E5
:202600000101D960484909783229F3D1E14389B201EB0041081A454908604548026010BDEE
:202620003D484FF4807141624FF6FF71C162C16841F48071C1603F480168491C01603E49B9
:2026400000200860234800783C490870704770B53B4901224A623B4800888862C86840F08E
:202660000100C8602C48C06CC04383B23148006803EB0043181A344B1860344B0020186007
:20268000334B1B78312B08D1324B1B78312B04D0C86820F00100C86070BD0B4B1C682E4DC9
:2026A0002E682E4DB44208D22D4C266846B12D4C2260CC6824F00104CC6018602A6070BD98
:2026C00052E0000050010020540100207E0100208D01002058010020CC010020840100208A
:2026E00000C0004000D0004084000022D601002000500240CE010020D2010020F411002094
:20270000C4010020F4090020F41D0020F4150020002003402C010020000003401501002034
:2027200026000020400000201401002030010020040000227C000020600000228E0100207A
:202740000010034086000020C40000206400002220000020210000207001002008000022DA
:20276000880000228C00002218602260286070BDF9484FF4807141624FF6FF71C162C16839
:2027800041F48071C1607047F448012141624FF6FF718162C16841F00101C160F048016884
:2027A000491C0160EF4900200860EF480068EF4908807047E9484FF4807141621321C1621E
:2027C00009214163C16841F48071C1607047FCB5E74A52F82000E74A127812B1521CD2B248
:2027E00006E0E54A1278312A01D1002200E00122E24B53F822300193E14C54F8224000941B
:20280000E04DAA5C114219D0D0F810149143C0F81014DD490978197001232360DB4DD24F8D
:20282000DB492E68002456B12C603B68D94D2B600C60D0F80C149143C0F80C14FCBD3D6875
:20284000D54E3560D54D2B600D6835B10C60D0F80C149143C0F80C14FCBD0B60D0F80C14AC
:202860001143C0F80C14FCBD2DE9F003CC48C06C86B2BA48806C87B2CA480268B8480068E7
:20288000C94DD5F81814C9B2C5F81C14C74B1B780B2B03D1BDE8F003012098E7DFF8E8C259
:2028A0005FEA41784FF0010427D5D5F8108428F00408C5F810849CF80080DFF8F49289F80E
:2028C0000080DFF8F082C8F80040DFF8D082082B06D1B948B94B00881880C8F800400CE0EB
:2028E000A54B1B78312B08D1FB439BB203EB0043181AB34B1860C8F8004088071CD5D5F86F
:20290000100420F00200C5F810049CF80000AD490870AD480460AD48007831280CD1AC48CE
:20292000007832280BD1F04380B200EB0240801AA8490860A8480460BDE8F0037047332866
:20294000FAD1A6480460F7E730B5A549D1F81804C0B2C1F81C04800619D5D1F8100420F018
:202960002000C1F81004884A11789E4801709E49012008609D499E4B0D68002415B10C60AE
:20298000186001E008601C6010789A49087030BDF0B48348C06C86B282480268964BD3F877
:2029A0001804C1B2C3F81C14804800780B2802D1F0BC05200BE7744C88064FF001050CD520
:2029C000D3F8100420F02000C3F810048B48056020788B4F38708B4805607C480F0700783D
:2029E00017D5D3F8101421F00801C3F810142178854B197085490D60312808D0F04380B240
:202A000000EB0240801A7349086073480560F0BC7047C906FBD5D3F8101421F01001C3F8DD
:202A2000101422787A490A707A490D603128EED06A480560EBE72DE9F041774F00213846BF
:202A4000FEF71AFC0446002C50D0744EB4F5004F0AD100213846FEF7B2F930703846BDE83E
:202A6000F0416F49FEF751BC0D2C05D93846BDE8F0410021FEF7A3B96A48002505603570AD
:202A800067480580A4F10100674900EB400051F82000DFF89881800642D5654E0020014681
:202AA00086E80300306864F314403060012231463846FEF7A4FC012C1AD0022C18D0082CC4
:202AC00001D0092C18D15B4C5B4A20781278411C91420BD0594901EB00108ECE8EC02078AE
:202AE000401CC0B22070322800D32570BDE8F081432088F80000F9E7514C524A2078127882
:202B0000411C9142F2D0504901EB00108ECE8EC02078401CC0B220701428E7D32570E5E737
:202B2000032C0FD010480B2C10D00D2C04D147490D7000684649088021463846BDE8F041C3
:202B4000FEF7BABB412088F80000F5E741490D70006841490880EFE7001003400020034041
:202B60002C0100206800002250010020800100200C88000043000020140100202C8800008C
:202B8000448800000588000058010020100000224C0000226401002068010020040000228F
:202BA000000003407C000020005000401501002059010020A8000022260000204C0000207A
:202BC000300100205B010020B00000222000002021000020FC0000200C00002278000022F1
:202BE000006000405F010020C000002290000022940000228C010020005002407400002296
:202C00005E010020BC0000225C010020B40000225D010020B800002200000440A4010020A3
:202C2000A0010020C40000227C850000AC01002054020020AF010020B00100207402002072
:202C4000C0010020C1010020B4080020AB01002078010020AA0100207A01002070B5834C16
:202C600007212046FEF729FF4FF04025002210212846FEF723FC40F27120FEF773F81022DB
:202C800011462846FEF71AFC41F66A00FEF76AF8A4212046FEF71AFFBDE870404FF2244039
:202CA000FEF760B82DE9F0410546714F387800282AD1DFF8B8810F214046FEF7FEFE002407
:202CC0006C4E45EA04000002902D0BD1315D01F07F02202A02D2684B9A5C104301F08001E0
:202CE000014301E0315D01434046FEF7EFFEFA20FEF738F8641CE4B2082CE2D35F48007818
:202D00005F4908700F203870BDE8F0815D4802780A21B2FBF1F001FB102242F030035A4A97
:202D20005370092803D9B0FBF1F301FB130040F03000107055480078302808D1107800F087
:202D40000F014C480170517801F00F01417070474E480078302813D14D4800780A21B0FBFF
:202D6000F1F201FB1200434BD871B2FBF1F001FB10229A7128B1B0FBF1F201FB1200587186
:202D8000704715205871704770B50B460025394E2FE0545D2E2C16D0202C02D00CB12B2C73
:202DA00001D115240DE02D2C01D1142409E0482C01D1112405E04C2C01D1122401E0303CA2
:202DC000E4B2F45411E08B4205D14FF08003B3704FF0030309E003D9A3F10103DBB200E08D
:202DE0000B46F45C44F08004F4546D1CEDB25B1CDBB2854201D2082BCBD370BDF0B50029A0
:202E000026D0491EC9B200241A4F0A260BE01546B2FBF6F206FB12557D5431B12AB1491EE5
:202E2000C9B2641CE4B28442F1D31522002508E049B1491EC9B20BB17A5400E07D54641C9C
:202E4000E4B28442F4D30D4800780D493C380870F0BD0A4800780A490978401AC0B23C28C5
:202E600002D30C4800781DE770470000008000408D0100208F010020848600005801002055
:202E80008201002028010020280000202400002048010020250000202DE9F04140F2063657
:202EA0003046FEF735FF4FF4FA742046FDF75AFFAE4D0022FF212846FEF789FB0C23042296
:202EC000FF212846FEF71FFB2046FDF74BFF41F28837FF212846FEF7C4FCC4B23846FDF794
:202EE00041FFFF212846FEF7BCFCC0B28442F0D19F48FF2C02D0641C047000E004703046BC
:202F0000BDE8F041FEF71EBF2DE9F04106460C4600200027022A02D22770BDE8F081521EC0
:202F2000D5B205E03178202904D1761C401CC0B2A842F7D34FF02008A8420AD1002004E01A
:202F400084F80080641C401CC0B2A842F8D32770E3E7304604F069F9C0B20146A84208D2C8
:202F600004E084F80080641C401CC0B2A842F8D30D46701910F8010C2E2804D184F8008056
:202F8000641C6D1EEDB2002005E031782170761C641C401CC0B2A842F7D32770BDE72DE963
:202FA000FC41FFF779FF15220821724804F02AF9714830270770714901200860704908604A
:202FC00070480A26067070494FF07E5008606F49086070A16E4806C906C071A16F4806C951
:202FE00006C072497048086004F023FC0B46024600906FA1704804F00DFE09226F496E4894
:20300000FFF782FF6E494FF4B47008606D4908606D4904220A706D4A032111706C4B0C22FE
:203020001A706C4A10606C4A012010706B4A10706B48002404706B48312505706A48057064
:203040006A4804706A4A012010606A4A10606A4A10606A4A10606A4805706A4A0720107017
:20306000694A01201080694A42F210701060694A67481060684A1060694A6848106069489D
:203080000170002000F06DFE6748684900880880674868490088088002F0C8FA02F0EAFADA
:2030A00065480470664965480860664901200860654990200870664964480860FFF726FE40
:2030C000FFF746FE63493220087063490D70634A0121116062490870624805706248057076
:2030E00062480770DFF88881D8F8000061490880614804601E480078B0FBF6F106FB11013D
:203100005E4801705E49007808705E4804805E4804705E4804705E4804705E4804705E48C9
:203120000770457003F06BF85C49FF2008605C49C1F81C045B4908605B494FF0010008600B
:20314000D8F8000059490870594800785949A0F13C00087058480470584804605848046069
:203160005848057058480570BDE8FC8100600240480100208F0100202400002000000022E2
:203180006C0000228C0000209000002094000020A0000020000000000000F03F98000020EA
:2031A0000000000000000000CDCCCC3D5400002025372E3266000000F4210020040200207C
:2031C000580000206000002049000020480000204A0000205C000020F4000020F500002017
:2031E0001501002014010020420000204300002010000022140000221800002230000022AB
:203200004600002047000020400000206C0000200000614520010020240100204054094CE0
:203220001C0100202A01002086000020880000208200002084000020A40100207402002017
:20324000B4010020280000222500002094050020BC01002020000020210000206000002271
:20326000160000201F0000202200002023000020500100207C010020C4000022AD01002092
:20328000AE0100207E01002012000020150000201300002014000020100000201C54004012
:2032A000006000401C540240C00000225F01002058010020820100208D010020A0000022CE
:2032C000A4000022EC000020800000201FB5FF4803C8CDE90001FE480178019861F307101C
:2032E0000190FC4800788DF8050000226946FA48FEF71EF81FBD2DE9F05F04466168C1F3D1
:203300000310022869D2F24EDFF8D083F44DDFF8D4A34A0704F1080B4FF001074FF0000954
:203320001BD108EB00100FC885E80F0020685946C0F30302286803F053FF6068C0F3031009
:20334000307021682868C1F3030108442860E968532008708AF800702CE0327890423CD165
:20336000E8680278002A38D09AF80030C1F30201994208D0532A1DD180F800908AF80090A0
:20338000FFF7A4FF16E020685946C0F30302286803F026FF21682868C1F303010844286072
:2033A0009AF80000401CC0B28AF80000072801D98AF80070606800070FD5A868A0F8009045
:2033C00061682868C1F3031108EB01110968401A69680880E96845200870BDE8F09F2DE92B
:2033E000F047C14DC14928780978884256D0C04901EB00142068DFF8FC82C0F30440412629
:2034000098F80010BC4F042810D0052815D0062813D0072835D16068C0F30310022830D2E3
:203420003A7872B188420CD13E702AE06068C0F30310884225D13E7023E02046FFF75BFFA3
:203440001FE088F80000DFF894A298F800100AF1A00A0AEB011191E80C50DFF8A09289E845
:203460000C50D9F80C10097852290AD03E700AEB0010C068452101706068C0F3031088F86D
:2034800000002878401CC0B22870142801D30020287000200146024603460FC4BDE8F08777
:2034A0002DE9F041DFF8588298F8000000280CD1914E924D3178A8684C2908D1EA68002147
:2034C0001170018031708F480170BDE8F081696800880988081A84B28B4F092C04D27868E4
:2034E00040F00800786000E00824386864F303003860854822460830296803F071FE28682E
:2035000020442860A868018821440180532088F800007E4800687E4908807868000701D513
:203520004C203070002278496B48FDF701FF78684FF0005101EBF0004FEA70707860410770
:20354000C3D120F00700401C7860BEE730B56A486E4B027841F288340021B2B11A686C4D6F
:203560002D88521B92B2A2420FD3654A11700170644A1078401CC0B21070032805D3117076
:203580005E48C26811708068018062480278002A07D01A68604B1B88D21A92B2A24200D395
:2035A000017030BD1FB549488438016FC06ECDE9000150480178019861F307100190454804
:2035C00000788DF805004C49522008704F4800684F490880002269463F48FDF7A9FE1FBD7C
:2035E0001FB54E4C2078432814D138488438C1698069CDE90001374800788DF805000022CC
:2036000069463548FDF794FE532020703F480068434908801FBD70B54248434D00782978BE
:20362000884252D0394800683D4908803F4C20684068C0F34A4025287AD016DCA0F1040091
:20364000212841D2DFE800F08B8E9194979B9EA1A4AAADB0B3B6B9BCBFC2C5C8CBCED1D4D3
:203660007F7F7F7FD7DADDE0E300392876D00FDCA0F12600132866D2DFE800F0D1D4D7DA34
:20368000656565EAEDF0F3F6F9FCFFE1E0DFDE0040F20B12A0F20B1190426FD009DCA0F551
:2036A000827007284FD2DFE800F0F1F0EFEEEDECEB0004296FD03CDC01296DD002296CD03D
:2036C000032940D100F0B9FE3DE046E000860000A30100204801002000000440A4860000A2
:2036E00034020020A9010020C1010020C0010020B4080020A2010020A80100204402002019
:20370000AA010020C201002064020020500100207A010020AB01002078010020AC01002037
:203720007C010020AF010020B0010020B401002070E0052971D0062970D0A1F5C061D43984
:2037400001D103F025FD2878401CC0B22870322871D3002028709A48206070BDA3E001F023
:20376000E9FFF0E701F0FEFFEDE702F021F8EAE702F069F8E7E702F07BF8E4E7ADE002F01C
:203780009BF8E0E702F0BCF8DDE702F08BF9DAE702F09BF9D7E7A9E0A2E0A4E002F0A1F9CF
:2037A000D1E702F0BBF9CEE702F0CBF9CBE702F0EFF9C8E702F0FAF9C5E702F035FAC2E7AA
:2037C00002F06DFABFE702F07AFABCE702F097FAB9E702F0ACFAB6E702F0CBFAB3E702F046
:2037E000D4FAB0E702F0E7FAADE702F0F6FAAAE702F006FBA7E702F08EFBA4E702F09BFB7B
:20380000A1E702F0A8FB9EE702F0C5FB9BE702F0CDFB98E702F0DDFB95E76AE06CE002F0CB
:20382000EBFB90E702F0FFFB8DE702F0FDFB8AE702F0FBFB87E762E032E02EE02AE026E0A8
:203840001BE017E013E00FE00BE007E003E0FFE702F044FC77E702F04BFC74E702F05BFC8C
:2038600071E702F007F96EE702F09FFC6BE700F052FD68E700F05AFD65E700F071FD62E702
:2038800028E024E020E01CE018E013E00EE002F0DAFB58E702F0D8FB55E702F0E1FB52E739
:2038A00002F0F0FB4FE702F003FC4CE7002000F098FB48E7012000F094FB44E700F01EFC2A
:2038C00041E700F030FC3EE700F03FFC3BE700F069FC38E700F093FC35E700F074FD32E7A9
:2038E00000F08FFD2FE700F09AFD2CE700F0B3FD29E700F0BEFD26E700F0C7FD23E72068EE
:203900001030206029E72F490878401CC0B208702D4A322804D3002008702C4810607047BE
:20392000106810301060704710B52648284C01782078814208D0274B1978002904D1264AE4
:20394000117811B1491E117010BD2449097811705321197022490968224A11801B4900229C
:2039600001EB00112048FDF7E3FC2078401CC0B220703228E8D30020207010BD30B41B493F
:20398000174A087843091A4807D1136804881B1B9BB244F25064A3420FD912680280002063
:2039A0000870144A012111600A490870124908701249087030BCFDF70CBC30BC70470000E2
:2039C00074020020B8010020BC01002094050020B9010020AB010020AE010020AD0100209F
:2039E000500100207801002000000440A40100207C010020C4000022AA010020A80100209D
:203A000010B5FDF7EAFF0F20FDF7ECFF1520FDF7E9FF1620FDF7E6FF2320FDF7E3FF242079
:203A2000FDF7E0FF2520FDF7DDFF2620FDF7DAFF2720FDF7D7FF3720FDF7D4FF1120FDF737
:203A4000D1FF1220FDF7CEFFBDE810402E20FDF7C9BFF8B504466A4F385D45280BD16949A4
:203A6000002631F81400042806D221F81460664820F814603E55F8BD062818D2BCB90888B3
:203A8000052814D14FF0005504226049684603F0A7FB5F490098884209D1452028606860D5
:203AA0005A480079A8603E70FFF7AAFFFEE7594D28785228DFD0584920B90C70BDE8F8406F
:203AC000FFF770BD0978A142D5D1412813D15348534C00EB01108EC884E88E0052495148B2
:203AE000CA6F896FC0E9001250490978417153202870A0680680BDE8F840FFF7D1BC2DE9FF
:203B0000F0470446022C4FD2DFF8249119F80400452849D1474850F824700CB9464D00E00A
:203B2000464D3846FEF7FFFA00283DD120213846FEF7FDFADFF80881002038F81410414E42
:203B40000C2912D209F8040026F8140006E0411C26F81410295C3846FEF7E0FA36F814007C
:203B600038F814108842F2D310E04F2109F8041026F8140006E0411C26F81410295C384633
:203B8000FEF7CCFA36F814000C28F4D32E4901200860402211462D48FDF790FC3846BDE85C
:203BA000F0472021FEF714BABDE8F0872DE9F0410446134D285D52281DD1254F254E385D54
:203BC0003178081A2449C0B2095D884213D9002240211E48FDF772FC1B490020086031783F
:203BE00039550849084A31F8141032F81420914203D045202855BDE8F0812855FBE70000EC
:203C0000CC010020C4010020C8010020F4090020424F4F54A8010020A20100204487000041
:203C200044020020640200207C85000048010020D6010020F4870000F4110020F41D002066
:203C4000CE010020D201002084000022005002408401002058010020860100202DE9F0413E
:203C60000024FE4E002280213046FDF727FC0120FDF778F8802211463046FDF71FFC012060
:203C8000FDF770F8002220213046FDF717FC0025F34F6006040E0120FDF764F840221146DF
:203CA0003046FDF70BFC0120FDF75CF810213846FDF7D7FD08B144F00104002240213046C8
:203CC000FDF7FCFB6D1CEDB2082DE2D3202211463046FDF7F3FB2046BDE8F0812DE9F04133
:203CE000E048007800F003040025DF4FDC4E200605D5012211463846FDF7E0FB04E00022E3
:203D000001213846FDF7DAFB0120FDF72BF8402211463046FDF7D2FB0120FDF723F80022C0
:203D200040213046FDF7CAFB0120FDF71BF86006040E6D1CEDB2082DD9D300220121384688
:203D4000FDF7BCFB012202213846FDF7B7FB0120FDF708F83846BDE8F04100220221FDF7AC
:203D6000ADBB2DE9F14F86B0C0480468C0480078814603F0F7FC214603F0C0FA03F059FD51
:203D8000BCA7CDE90201D7E9002303F038FBCDE9000103F036FD00B90120B84EB84D4FF0FD
:203DA0000108B4F17E5F03DAA5F80080308019E0B4498C4210DA204603F03BFDCDE90201D6
:203DC000D7E9002303F01BFBCDE9000103F019FD2880A6F8009005E04EF660212980B0FB63
:203DE000F1F03080A9A0D0E9009ADFF89CB22888054603F0BCFC53464A46CDE9020103F0F6
:203E0000ADFB81468A46CBE90001284603F0AAFC214603F0A8FA05909E48059903F06EFA37
:203E20000490049803F005FDCDE90201D7E9002303F0E5FACDE9000103F0E3FC96498346BE
:203E400008609649049803F08EFA03F0F2FCCDE902010CCF03F0D3FACDE9000103F0D1FC58
:203E60008F4C2060322801D2322020608D49049803F079FA03F0DDFCCDE902017DA00CC89A
:203E8000029803F0BCFACDE9000103F0BAFC86490860192801D21920086036888348844F37
:203EA000012E0AD1834AC2F800B0C0E9009A206838600868804908604BE00446304603F0DF
:203EC00056FC53464A46CDE9020103F047FB03C4304603F047FC049903F010FA8146484617
:203EE00003F0A7FC63A4CDE90201D4E9002303F086FACDE9000103F084FC6E490860674920
:203F0000484603F030FA03F094FCCDE90201D4E9002303F074FACDE9000103F072FC3860C9
:203F2000322801D2322038605E49484603F01BFA03F07FFCCDE902010CCC03F060FACDE92B
:203F4000000103F05EFC5C490860192801D2192008605A49059803F0D1F95949884200DA0E
:203F60000846012103F03FFA03F00EFC55490860554900090860069800282FD00020534912
:203F80000A88964203D00E8051480680FF20514900220B889D421AD0FF200D804E49CB688A
:203FA00023F00103CB608D620A63C1F824804B4B1B78312B07D14A4B1B78312B07D1494BB9
:203FC0001B780B2B03D0CB6843F00103CB60002804D04548C0F800804448026007B0BDE8A5
:203FE000F08F82B0012837D84149096889680191C1F38152012A05D921F4400101F58001FD
:20400000019102E021F4400101910199C1F38342032A04D921F4701101F54021019101990E
:20402000C1F30262042A04D921F0E06101F10071019101992F4BC1F311026E3A9A4204D3E0
:204040006FF3110101F5966101912B49019A41F8202002B0FDF7F3BF02B070470070004074
:20406000005000401500002000700240940000208C000020000000000000E03F82000020A8
:204080008600002000606A47A80000200000000080841E410024F448B800002000401C4565
:2040A000E80000200000FA45E4000020B0000020D8000020BC000020D400002000007A445F
:2040C0000000A0416C01002070010020840000208A00002088000020001003402000002058
:2040E00021000020150100201400002254010020B401002093C101009801002070B5F84856
:2041000000688468F74D14F0FF4F0BD02046296803F00EFC06D02C60F3480460BDE8704090
:2041200001201EE670BDEE480068007A062801D2062002E0FA2800D9FA20EC490A7890426E
:2041400002D0087001200CE67047E5480068007AE7490A78904224D0302801D0312820D151
:204160000870E4480078312803D1E3480078312817D10878312814D1E04901200860E0487A
:2041800000780B280DD0DF48C16821F48071C160811541624FF6FF71C162C16841F48071C0
:2041A000C1607047CE480068007AD7490A78904224D0302801D0312820D10870CD4800784F
:2041C000312803D1CC480078322817D10878312814D1CE4901200860C94800780B280DD0ED
:2041E000C848C16821F48071C160811541624FF6FF71C162C16841F48071C1607047B84827
:204200000068007A08B9012002E0642800D96420BF490A7890420BD00870B6480078312891
:2042200003D1B5480078322802D1B8490120086070472DE9F047B24800780B2838D0B54CCC
:20424000E06820F00100E06001256562B248FF21C0F81C14B14A1160B14EC6F81C14A5498F
:20426000DFF8C0920978DFF8C0824FF00007312930D1D6F8101421F01801C6F81014D0F814
:20428000101421F00201C0F810149B490978312910D10221FDF7D0F9B9F80000A06227634D
:2042A000A06940F00100A061E06840F00100E060BDE8F08702210446FDF7AFF900220221A0
:2042C0002046FDF7FEF89948056098F8000098490870EDE70221FDF7AFF9B9F80000A06219
:2042E0002763A06940F00100A061E06840F00100E060002218213046FDF7E3F88D48056066
:204300008D48056098F800008C49087098F800008B490870CCE772480068007A312801D031
:20432000322802D17349087083E770476C480068007A312803D0322801D033280FD16E491C
:20434000804A0B781370087010786A4A1278312A05D10978312901D0312800D169E7704741
:204360005F48794900680978027A8A422AD8427A8A4227D30168C1F30301032922D1817AE4
:20438000A1F1300004281DD270480278914219D001706348302903D100220621FDF78EB886
:2043A000322903D102220621FDF788B8312903D104220621FDF782B8332903D106221146F7
:2043C000FDF77CB8704770B545480068047AA4F13000062814D25E4D2878844210D030204C
:2043E0002870152208215B4802F00CFFFEF78EFCFEF7AEFC4C48007857493C3808702C70D3
:2044000070BD56480178002908D155490988002904D0544A002111804521017070474F48B5
:204420004178002908D14E494988002904D04D4A002151804521417070474B4801780029D0
:2044400008D14A490988002904D0494A0021118045210170704744484178002908D14349BC
:204460004988002904D0424A0021518045214170704700201A4A3F49126813181B7A0B547D
:20448000401CC0B20828F8D3704715480068017A2348322903D180221146FDF70FB80022EC
:2044A0008021FDF70BB82048027833490B78D21AD2B27D2A12D300780870304901200860D5
:2044C0001048C16821F48071C160811541624FF6FF71C162C16841F48071C16070470000FC
:2044E000B401002090000020940000208C0000208000002020000020210000201400002280
:204500001501002000000340EC00002018000022F400002000100340005000401C64004025
:20452000005002408600002058010020B00000225B010020B4000022B80000225C0100204F
:204540005D010020D80100204801002023000020240000208F01002082010020D6010020AA
:20456000CE010020D2010020CC010020C4010020C8010020170000208E0100206000002236
:2045800030B587B04FF07E55F94803C8CDE90401F8A4D4E90023DDE9040103F083F916D882
:2045A000D4E90023DDE9040103F050F8CDE90401284603F03EF9CDE90201D4E9002302F037
:2045C000CDFFCDE9000103F093F90546E1E7EBA00CC8DDE9040103F03FF916D2D4E90023A9
:2045E000DDE9040102F0BAFFCDE90401284603F020F9CDE90201D4E9002303F027F8CDE9AF
:20460000000103F075F90546C3E7DEA00CC8DDE9040102F0A3FFCDE90401AFF2A8500CC86A
:20462000DDE9040102F0EBFECDE90401DDE9040103F0E7F803F096F8D44CD54902F093FE3A
:20464000294602F05BFE206007B030BD10B5D14900200860D0A1D24802F0EFFDD04A07216A
:204660004FF4827000F04AFDCE48007831280FD1CD480F210170152141701A2282701B22FF
:20468000C27001711E214171122181711C21C17110BD10B5C5A1C24802F0CFFDC04A0721FF
:2046A0004FF4827000F02AFDBE480078312801D033280FD1BC480F210170152141701A2203
:2046C00082701B22C2700171162141710C2181711C21C17110BDB348007831280FD1B2481D
:2046E0000F210170152141701A2282701B22C270017105214171192181711621C171EDE6E3
:204700002DE9FC5FAB480168002914D000220260A9480260A948AA4C00780B2807D0A9488E
:204720000078312809D1A8480078312805D0E06820F00100E060BDE8FC9FA448DFF84C82CE
:20474000016891B10260A249D8F80000884207DAA04902F0D3FDC8F800000120FFF701FB68
:20476000E06840F00100E060E5E79B4800680028E1D09A4800783128DDD1994C99499C4884
:20478000994DDFF868A20088DFF868B2DFF868929A4B266809684EB122602960CAF8001048
:2047A0001A60C9F80020ABF80000C4E7BBF80020521E1FFA82FCABF800C0914A0126126897
:2047C0006B4FBCF1000F7ED1ABF800001AB1FFF760FF2660AFE7DAF800000C1A8948046008
:2047E000CAF80010296088490868844201D9251A00E0051B0C604CF2503084429BD983480F
:20480000D0E900AB204602F0B2FFCDE900010B4602465946504602F019FFC7E90001D9F81A
:204820000000002853D07A480068854202D9BDE8FC5F50E777480068844201D9201A00E049
:20484000001B75490968884204D9FFF799FE0120FFF787FAD7E9002370A1724803F0DAF9CE
:20486000092271496F48FEF74FFBD7E900656F4CD8F8000002F0DDFFCDE900010B4602468F
:204880002946304602F0E2FE3CA20CCA02F060FE67A20CCA02F062FE03C40B4602465FA1CC
:2048A000604803F0B7F9092263495E48FEF72CFB3C483D49007831280CD10F200870012193
:2048C000594A082000E033E0FEF75EFA0DE0C9F8006030E7322808D11720087015204870D9
:2048E000554A02210720FEF74FFA4F48C1794FF482702E2904D14C4A072100F0FFFB03E0D4
:20490000494A082100F0FAFB4B48C17940F205102E2906D102B0BDE8F05F474A072100F065
:20492000EDBB02B0BDE8F05F434A082100F0E6BB002ACED12868414A081A10602960404A59
:204940001168884201D9411A00E0091A10601A6862B13C4A1268914202D9BDE8FC5FBAE689
:2049600039490968884271D9411A70E088E06DE0A0000020000000000000244000000000AC
:204980000000F03F0000000000408F409400002000007A44540100204E6F20535A4D4300D8
:2049A000D8010020240000208F0100204E6F204A5A4D4300080000228800002215010020EF
:2049C0000010034020000020210000208C0000220050C347000020412800002280000020B0
:2049E00014000022C4000020C8000020C0000020820000208A000020540000225800002299
:204A000060000022D0000020CC000020B0000020D8000020BC000020D400002025382E36DF
:204A200066000000F4210020E901002098000020000000000018F540F2010020E0000020B9
:204A4000DC000020E8000020B8000020091AFF4A126891427FF688AEFD4930C902F087FE60
:204A6000CDE900010B4602462946204602F0EEFD03C7FFF785FDBDE8FC5F0120FFF771B9B1
:204A80001E6058E610B5F34800780B2835D0F2480078312803D1F148007831282DD1F04A89
:204AA000F0481368002143B1026843F698239A4223D90160BDE81040C8E50368EA4C2468C8
:204AC000A3421AD30160E9480160E94CE9492068884209DA01201060E74800682060BDE828
:204AE00010400120FFF73DB9E44902F03CFC2060BDE810400120FFF734B910BD2DE9FC4763
:204B0000D44800780B282BD0D3480078312803D1D2480078322823D1D949086800281FD08A
:204B200000200860D7490968002919D0D6490978312915D1D54DDFF864C3D949D44FD54EE2
:204B4000DFF854939CF80020DFF858832B68096843B1286039603160C8F8000089F8002026
:204B6000BDE8FC8799F80000401EC3B289F80030CD4801240068002B5FD118B1FFF789FDB6
:204B80002C60EDE789F800203068C84B081A1860316039604CF250318842E1D3C44B1968D8
:204BA000884201D9411A00E0091A1860012A02D1B1EB901FD4D802F0D5FDBE4CBE4902F0BF
:204BC000D2FBBE4902F0CFFB206004460821BC4802F01FFB204602F02CFE0B460246CDE971
:204BE0000001AFF2C811B74803F014F80922B449B448FEF789F9B4480078332809D1B348FD
:204C00001221017015214170AD4A02210720FEF7BBF8AB48C1794FF483702E2906D102B0DD
:204C2000BDE8F047A64A072100F068BA02B0BDE8F047A34A082100F061BA002890D1386896
:204C4000A34A081A10603960A24D2A68904201D9821A00E0121A2860D8F8005035B1B2EB3C
:204C6000901F8ED931608CF8003079E7C8F8004076E72DE9F041984900200A6842B1086007
:204C8000BDE8F041954A002140F2091000F036BA93490A6862B1086092480068002833D0DD
:204CA000BDE8F0418D4A00214FF4857000F026BA8D49854F854C0A6815254AB308608B48BF
:204CC0008B4E006860B18548317801702C21417071788170024603214FF4847000F00EFA28
:204CE0003878352810D11120207002216170A570E570327812210AB1207100E02171657136
:204D0000A571727812B1E071BDE8F081E171FBE778490A68002AF7D00860704A002140F29C
:204D2000071000F0EBF938783428EDD1052020706570A5701321E17025716571A0711720E6
:204D4000E071E1E76C496D480B6800227BB10A6002604C48012103680BB1026000E00160C3
:204D6000674801603B48017066480160C7E401680029FBD064490978644B1B78C91AC9B24A
:204D80004B29F3D3026000F05EBD70B56048614B5D4904680022BCB10C785F4D2D78641BFE
:204DA000E4B2052C10D3026003F20443186820F004001860586820F004005860D86840F0A3
:204DC0000400D860A3F2044354480468BCB10C78534D2D78641BE4B2052C10D3026003F2FD
:204DE0000443186820F001001860586820F001005860D86840F00100D860A3F20443494CC0
:204E000014482568007805B30D78474E3678AD1BEDB2322D19D32260D3F8044424F0020450
:204E2000C3F80444D3F8084424F00204C3F808440B2805D0D3F80C4424F00204C3F80C44EF
:204E4000D3F8104444F0020470E071E0E4000020A8000020150100202000002021000020D5
:204E600064000022540100206C01002088000022940000206F12033C90000020000020417B
:204E80000C00002228000022EC0000201800002200010020F8000020F5000020F4000020F2
:204EA000FC0000205C000022600000220801002004010020F00000200024F4480000704266
:204EC000FB010020F4210020240000208F010020100100200C01002080000022D801002094
:204EE0007C000022A400002274000022A000002210000020780000229400002290000022C4
:204F0000300000229C000022580100208C010020A80000220050004059010020AC000022B9
:204F20005A010020B00000225B010020C3F81044614C624B25680DB30D78614E3678AD1B48
:204F4000EDB2322D1AD32260D3F8044424F00804C3F80444D3F8084424F00804C3F8084470
:204F60000B2805D0D3F80C4424F00804C3F80C44D3F8104444F00804C3F81044514C25684B
:204F80000DB30D78504E3678AD1BEDB2322D1AD32260D3F8044424F01004C3F80444D3F842
:204FA000084424F01004C3F808440B2805D0D3F80C4424F01004C3F80C44D3F8104444F0CD
:204FC0001004C3F81044414C25680DB30D78404E3678AD1BEDB2322D1AD32260D3F80444CB
:204FE00024F02004C3F80444D3F8084424F02004C3F808440B2805D0D3F80C0420F020000D
:20500000C3F80C04D3F8100440F02000C3F8100430480368002B18D009782F4B1B78C91A60
:20502000C9B2192911D302602C48016821F020010160416821F020014160816821F0200166
:205040008160C16841F02001C16070BD10B524480168244C2278891AC9B21E290FD3006853
:205060002070FEF7FBFD00F01F001F4B197841401E4A29B11870117020780F38207010BDA1
:2050800011780029FBD01A4908700020107010BD13490A6817480378D21AD2B2322A09D3FB
:2050A0000968017014480168002903D000210160FEF714BE5AE60000B4000022005002405C
:2050C0005C010020B80000225D010020BC0000225E010020C00000225F0100200464004094
:2050E00050010020600100201300002014000020120000206101002098000022F0B40D46F2
:205100001446FF490968002932D1082D00D90825FC49FD4E91E80E10376887E80E10FB497E
:205120000A7831684A714A6860F35B424A60E5B12078202804D1641C6D1EEDB2002DF7D163
:205140001DB9641E3020207001253068016865F303010160002006E0326821780244117231
:20516000641C401CC0B2A842F6D3F0BCFEF7CBBBF0BC70472DE9F041E5480068002817D1B8
:20518000E44E3068002813D0E34DE54BE3481978E44A2F6800246FB11678711AC9B20F2949
:2051A00006D31178197000220221FCF787F92C60BDE8F0811278511AC9B20F29F8D3002215
:2051C0000421FCF77BF93460F2E72DE9F041D649CF4DD24ED34C08684FF0000870B32278A1
:2051E000D2480378D21AD2B2052A2DD3C1F8008021780170CE4F386828B1002201213046E8
:20520000FCF75CF904E0012211463046FCF756F9286898B1786828B1002202213046FCF7F0
:205220004DF904E0022211463046FCF747F9B86828B1002204213046FCF740F904E0042234
:2052400011463046FCF73AF9BA4801680029AFD02278B9490B78D21AD2B20F2AA8D9C0F847
:20526000008020780870B54C206828B1002208213046FCF723F904E0082211463046FCF79E
:205280001DF92868002893D0AD4D606828B1002208212846FCF712F904E0082211462846B8
:2052A000FCF70CF9A06830B12846BDE8F04100220421FCF703B92846BDE8F0410422114612
:2052C000FCF7FCB874E710B59149096800291ED19C49924B0A6801244AB1002817D0002021
:2052E0000860022206211846FCF7E8F807E000280DD10C60062211461846FCF7DFF88648FC
:20530000046084480460874800788549087010BD30B50023072827D8002825D0012923D827
:205320007B4A834C12687AB10022C50706D054F822508D4202D044F82210FF234008521CCB
:20534000D2B2032AF1D306E0C0070DD02068884201D02160FF23002B06D073490120086042
:20536000704800787149087030BD2DE9F04705460E461746072D44D8002D42D0012F40D8BE
:20538000022E3ED86248DFF8B491006808B30024DFF8B481E80716D06B486B496438005D79
:2053A000543951F8200036B158F824100022C9B2FCF784F805E058F82410CAB2C9B2FCF72D
:2053C0007DF849F824706D08641CE4B2032CE1D30EE0E80715D0514826B100220821FCF7A5
:2053E0006DF803E008221146FCF768F8C9F80070BE4206D04F49012008604A4800784E49C8
:205400000870BDE8F08710B5002201210720FFF7ACFF0121BDE81040072079E710B5FFF7CE
:20542000F2FFBDE8104001204DE710B5012211460720FFF79AFF0021BDE81040072067E7B1
:2054400010B5002201210720FFF78FFF0021BDE8104007205CE710B53C4CE16821F001016F
:20546000E16001216162002823D03948FCF7E4F83848007802280AD13748006838B9374847
:20548000006820B1E06820F00C00E06004E0E06820F00C00001DE06031480088A062002067
:2054A0002063A06940F00100A061E06840F00100E06010BD10B52B4C216821F0040121604C
:2054C0004FF00401E160A4F58264002859D02046FCF7A3F804220A2311462046FCF713F875
:2054E0001C480078022840D11B480068E0BB1B480068C8B3042211462046FBF7E2FF39E01A
:20550000C4000022E4870000BC0100204801002000000022CC000022D00000220040024070
:205520008901002058010020D400002288010020DC000022D80000228A010020E8000022FC
:2055400000700240C800002260880000000003400050004015010020400000223400002206
:205560004000002010540040FFE7002204212046FBF7A7FFFF4901200860FF480078FF4924
:20558000087010BD70B5FE4800780B280CD0012608280AD1FB4C25880120FFF78BFF268067
:2055A0000120FFF758FF258070BDF7480660F7480078312806D10120FFF77CFFBDE8704038
:2055C000002048E70020FFF775FFBDE87040012041E770B5EE4D2C78302028701522082108
:2055E000EC4801F00FFEE6480178EB48082903D1EA490978017002E0E94909780170E24944
:2056000001200860E7490860E7490860FDF77EFBFDF79EFBD8480078E4493C3808702C708A
:20562000BDE870400221E24A0D2067E530B5E1480168642901D26421016000684EF6602361
:205640000124DD49DD4A984202D20880148009E00B8047F230552844B0FBF3F080B2108020
:2056600000B914800988D64B108841431960D549088030BD2DE9FF41D348D0F80080D3482F
:20568000007802F06FF8414601F038FED049096801F069FE02F0CDF8CEA4CDE90201D4E90A
:2056A000002301F0ACFECDE9000102F0AAF8BC49C0B20870012600B90E70B7480D7805709B
:2056C000C648C74F0068414601F04DFE8046C549404601F048FE02F0ACF8CDE90201D4E9DE
:2056E000002301F08CFECDE9000102F08AF8BE490880284602F036F8414601F0FFFD02F05E
:2057000098F8CDE902010CCC01F079FECDE9000102F077F802F026F838609948007808B12E
:20572000082805D198480660BDE8FF41FDF7EEBABDE8FF8170B5AD4800688468A74D14F011
:20574000FF4F0ED02046296802F0F2F809D02C60FFF790FF8A480078002802D18A49012027
:20576000086070BD70B5A1480068007A00281ED0834C01252178954A08290DD187490B78BF
:20578000984214D008709A4B09781B785943994B197099490D6002E01178884207D01070F6
:2057A000FFF768FF2078002801D17748056070BD10B59248006800282BD071487449007891
:2057C0000978012468B9302904D115220821714801F018FD6C480460FDF798FAFDF7B8FA71
:2057E00012E0032802D1844804600DE009280BD1302904D115220821664801F003FDFDF76E
:20580000A7FA7F49002008605B48007867493C38087010BD30B47B4A1068002811D056484B
:20582000037879490C781B1BDBB2192B09D30078087000201060002230BC08217348FBF760
:205840003DBE30BC704710B56C48006800280ED0082211466D48FBF731FE6A490120086030
:205860004548007868490870BDE81040A0E710BD70B55E48016866480A7A007882421AD81D
:205880004A7A824217D35D4B8A7A5B4D002601241968312A03D139B91C602C6004E0322A0D
:2058A00009D109B11E602C6035490C7059490E605949C000088070BD30B55048006800281C
:2058C00013D0534854490078C00008804748002200682B4C007A484D0121302806D122706B
:2058E000474802604D480260296030BD4C4B322801D1196000E01A6029600220207030BD8C
:205900003E480068002813D0414843490078C000088036481A4B00680122007A36493028FA
:2059200007D100201870364B18603C4B18600A607047032018700A6070473A483B49027882
:2059400039480978312A0BD1302901D0322903D100220621FBF7B2BD04220621FBF7AEBD61
:20596000322A71D1302901D0322963D1002206215EE069E0A8000022580100205901002043
:2059800015010020400000201000002214010020240000208F010020280100204800002065
:2059A00029010020140000221800002282010020280000206C00002076000020740000208C
:2059C0007000002078000020200100202A01002024010020000000000000E03F1C01002072
:2059E000180100200000484316010020B4010020490000204A000020300000222800002268
:205A0000640000202C0000228301002000500040480100209C0000227E0100206800002032
:205A200034000022220000200050024023000020FBF744BD312903D104220621FBF73EBD9E
:205A400006221146FBF73ABD302903D100220621FBF734BD312903D104220621FBF72EBD2D
:205A6000322903D102220621FBF728BD06221146FBF724BDFC48FD4900680978027A8A42C8
:205A80000FD8427A8A420CD3807AF9490A78904207D0312803D0322801D0332801D1087055
:205AA0004BE77047F04800680168C1F3030101290AD1007AA0F13001042905D2ED490A783F
:205AC000904201D0087038E77047E7480068017AE948312902D101210160704700210160A9
:205AE0007047E6480068002817D0E5480178002913D104210170E34901200860DB48E249FE
:205B00000078C0000880E14900200860E0480123082102680846FDF771B97047D74800688A
:205B200000280DD0D6480178042909D105210170D44901200860CD48D3490078C000088094
:205B4000704738B5C848C94900680978027A8A421DD8427A8A421AD34189ADF8001080895C
:205B6000ADF802000098CB4C10F0FF4F0FD02168009801F0DDFE0AD000982060FFF77AFD56
:205B8000BF480078002802D1C3490120086038BDB5480068007A312801D0322805D1BF49C0
:205BA0000A78904201D00870ECE470471CB5B3480068002837D0AC480068017AB048312935
:205BC0002BD107210170A948AF490078C0000880B34900200860B349086001F02AFECDE9D0
:205BE00000010B460246B0A1B14802F013F80922B049AF48FDF788F9AE4A08210E20FFF7EF
:205C00007DFAAD48007830280DD102B00021BDE81040A84A0920FDF7B7B80078072802D1AA
:205C2000BDE81C400CE41CBD7CB594480068002834D093489A4A01789F4C002007291AD19B
:205C400010609849086001F0F4FDCDE900010B46024695A1964801F0DDFF09229549944893
:205C6000FDF752F92078302813D1924A00210920FDF78AF80DE00C290BD105461060207824
:205C8000302806D1152208218C4801F0BBFA8B48C5718B4800788B493C3808707CBD7748EF
:205CA000006800280AD07649082008707549012008606E4874490078C000088070476A4838
:205CC0006A4900680978027A8A4217D8427A8A4214D3807A7C490A7890420FD000280DD08B
:205CE00008707A480978007848437949087064480078082802D163490120086070475A48F7
:205D00000068007A71490A7890420FD000280DD0087008786C49097848436D490870584828
:205D20000078082802D157490120086070475348006800281CD052480178002918D10621A5
:205D4000017049480068007AA0F13101022904D860490A78904200D0087044484A490078B9
:205D6000C00008805C4900200860464901200860704742480068002806D0414800780628C0
:205D800002D1554901200860704737480068007AA0F1310105290DD25049087000F00F0011
:205DA0004F49401E0870364800780B2802D135490120086070472C480068008900280BD053
:205DC00048490A88904207D008802D480078002802D12C49012008607047284800680028D2
:205DE0000DD02749092008702649012008602C49002008601D4824490078C0000880704777
:205E000070B500211D48006800282BD0164804682068C0F30300C21E022A23D2401EC3B270
:205E2000E018007A303804281CD200200EE02218127AA2F130050A2D14D201EB81014900FE
:205E400002F00F021144C9B2401CC0B29842EED30C4B0B48012231B90178002902D00021BA
:205E600001701A6070BD3FE0B4010020480100202200002023000020240000222800002298
:205E800015010020300000227E010020440000225C00002020010020100000221401002051
:205EA000640000206800002025382E3566000000F42100200D020020240000208F01002058
:205EC000580100208201002049000020480000204A00002046000020380000224200002049
:205EE00043000020400000200A210170F848F9490078C00008801A60F7480078302804D1A3
:205F000015220821F54801F07DF9FCF7FFFEBDE87040FCF71DBFF248006800280AD0F1498B
:205F20000B200870F04901200860E948E9490078C00008807047ED480068007AA0F1300149
:205F40000C2907D2EA490A78904203D00870E64901200860704770B5E448DD490068097892
:205F6000027A8A4216D8427A8A4213D3847AE14D287884420ED0E048312C04D10122114639
:205F8000FBF79CFA05E0322C04D100220121FBF795FA2C7066E7D54800688068002804D04A
:205FA000D6490A68904200D008607047CC48006800280DD0CB4801780C2909D00C210170D6
:205FC000C94901200860C248C2490078C00008807047C648BE4900680978027A8A420AD872
:205FE000427A8A4207D3C64942890A8080894880C449012008607047B9480068002811D04B
:20600000B8490D200870C0480078C0490870C0480168C04801800188A1F57A610180BE495D
:2060200032200870704770477047B0480068017ABA48302903D100222021FBF73FBA2022D7
:206040001146FBF73BBA704710B51F220821A34801F0D8F8AC480078B1493C38087010BD51
:2060600010B5FCF7FBFD152208219C4801F0CAF8FCF74CFEFCF76CFEA3480078A8493C3817
:20608000087010BD9948924900680978027A8A4208D8427A8A4205D3807AA249302802D17E
:2060A0000020086070473128FCD10120086070478E48874900680978027A8A4208D8427AC8
:2060C0008A4205D3807A9849302802D10020086070473128FCD1012008607047834800683E
:2060E000007A00F0070000B9072090490870704770B57E48006884688D4D14F0FF4F09D003
:206100002046296801F014FC04D02C60BDE87040FFF7B0BAA6E630B585B074486C490068F3
:206120000978027A8A423ED8427A8A423BD34189ADF810108089ADF8120004987D4D10F035
:20614000FF4F01D17C4804902968049801F0F0FB29D0049C2C6079480168204601F0CEF852
:2061600001F067FBCDE90201AFF298700CC8029801F045F9009001F044FB71490860714931
:206180000860204601F055FB0B46024602906EA16F4801F03FFD05B0BDE8304008226D4928
:2061A0006B48FCF7B1BE05B030BD50480068007AA0F13101032904D267490A78904200D015
:2061C0000870704770B54448007830280FD16348424C00680E2558B11A20A0701B20E0707D
:2061E0001520207116206071A5711C20E07139E615220621A01C01F005F8E57132E62DE984
:20620000FC4738483C4F00780B2860D15448007810B1401CC0B206E052480078312801D18E
:20622000002000E00120504951F820500195183151F82060009645394B4A095C203A52F891
:206240002140D11F11F80090DFF8D08007214046FBF7E3F938213846FBF7DFF9D8F810042C
:2062600020F00700C8F8100407F58267386820F0380038603D48C16821F00101C1603C4868
:20628000C16821F00101C1603A494FF000000860D4F80C1441EA0901C4F80C144FF0FF013B
:2062A000C8F81C14F9603449086034490860344908603449086034490860344908601248DD
:2062C000007828704FF001003060BDE8FC875FE0480100207E010020240000208F0100207B
:2062E000280000221501002030000022B40100203F0000201F000020005002406000002047
:20630000640000203C000022580100208B01002050010020760100201600002000500040A8
:2063200082010020A0000022A4000022470000202401002054000020CDCCCC3D200100202F
:20634000580000205C00002025372E3266000000F4210020040200204600002068000022DC
:2063600043000020140100202C88000000000340001003404C000022A8000022AC00002235
:20638000B0000022B4000022B8000022BC000022FDF74FFFD7F80C0420F02000C7F80C047D
:2063A000BDE8FC47FFF7EEB82DE9FC5FFF480025016859B1FE490988002924D10560FFF7B8
:2063C0002DF8FFF706F9BDE8FC5F18E7F9480168002918D00560FC49F74BF8480A78DFF864
:2063E000E093DFF8E0A3DFF8E4C3DFF8E4831C68016854B11D60C9F80010CAF800108CF87E
:206400000020C8F80050BDE8FC9F9CF80000401EC0B28CF80000EF4E0124EF4F002875D116
:206420008CF80020DAF80000081AC9F80010CAF80010DFF8A883DFF8A893B0F5FA7F1AD9FC
:20644000E849D1F800A001F08DF98346514600F052FFE54900F052FF594600F084FFC9F848
:2064600000003560E149884202DBC8F8004007E0C8F8005004E0C8F800403460C9F8005036
:20648000DB4CD8F8000098BBD9F80000D94D10F1FF4F0CD22021297001F0CBF9CDE9000148
:2064A0000B460246D4A1681C01F0B4FB0AE001F0C0F90B460246CDE90001AFF21461CD489B
:2064C00001F0A8FB2A78214622700822491C681CFCF71AFDC64A08210620FEF70FFE38785F
:2064E000302838D1C24A02210720FCF74DFC32E000E00BE02B20207045206070BC4A022193
:206500000620FEF7FBFDFFF75DFE24E0D9F80000BB4D081A2860C9F80010BA4D296888425D
:2065200001D9411A00E0091A2860D8F8005085B1B54D2D88A94205D98CF800201C60FCF7B2
:20654000E5FB08E0B0F5967F05D23460FFF73AFE01E0C8F80040FCF7D9FBAC4A02210D2032
:20656000FEF7CCFD387830287FF44DAFA8480078A8493C38087046E770B58C4801680029E9
:2065800015D0A549A54E0968894C0025A9B1A4490D70012101603120307032460820FEF7FD
:2065A000ADFDA048016819B105600A20208059E49D480078C000208054E421880029F6D11C
:2065C00005600020FEF77FFE32203070FEF738FF14220821954800F015FE8D4800788D4944
:2065E0003C380870BDE8704001218C4A0820FEF785BD2DE9F0416D4A00208C4CDFF81C8298
:20660000834E844F8A49136814252BB3684B1B88002B41D110600860FEF700FFFEF7B2FF6C
:206620006D480078302804D115220821204600F0E9FDFCF78DFB25706570E5702571302044
:2066400088F8000030783C383870BDE8F0410121724A0F20FEF752BD0A68002A1CD1554AE7
:206660001368002B18D0106001200860312088F80000FEF7E5FEFEF785FF25706570A570F2
:206680001520E07030783C383870BDE8F0410121624A0F20FEF732BDBDE8F0812DE9F0419D
:2066A000424F434ED7F800C00021484B584C594D3088404ABCF1000F21D00028ECD13960BE
:2066C00019701160FEF7AAFEFEF75CFF42480078302804D115220821544800F093FDFCF735
:2066E00037FBFCF713FB20783C382870474A01210520FEF703FD4FF4FA603080CCE708B13D
:206700001160C9E710680028C6D011601878401C1870FCF7FBFA20783C382870BDE8F041DB
:2067200001213A4A0520FEF7E9BC10B51F480168002913D01E49098800290FD101603D486C
:206740000160FEF76BFEFEF71DFF3B48012302680821BDE810400846FCF750BB10BD70B5FC
:20676000124A34492D4C344813680025C3B1104B1B88002B7ED115600D6030490A68026090
:20678000082101230846FCF739FBFEF747FE302020702246BDE8704001211520FEF7AEBCAA
:2067A000044A1368002B65D0156049E0300000227E01002004000022100000223001002078
:2067C000340100203801002029010020280100205000002268000022240000201C000022FA
:2067E00044010020180100200000C84200401C46E0010020F421002025372E3566000000F4
:20680000400100203C01002016010020280000205801002082010020280000223E00002077
:20682000150100209C000022480100208F01002040000022440000225C000020580000208F
:206840000268002A16D0521E026002BB0120086031202070FEF7F4FDFA480478302C04D1F0
:2068600015220821F84800F0CDFC302C06D1F74A002100E012E00720FCF786FAF248C5714E
:20688000BDE870400121F24A1520FEF737BCBDE87040012308210846FCF7B0BA3AE410B5F8
:2068A000EC4900200860EC490860EC490870FEF7AAFDE448007830280DD1E3481722027085
:2068C0001221417015218170C17001710E2141711A218171C27110BD2DE9F05FE048006807
:2068E00084B2E04BDFF884B3D3F800C0DE490127BBF80000DE4A0026DFF87893DFF85CA396
:20690000DFF85483DC4DBCF1000F3BD0002837D12C801E6016600E70C8F800608AF8006089
