:020000040000FA
:10000000001500200101000043010000450100002F
:100010004701000047010000470100000000000008
:100020000000000000000000000000004701000088
:10003000470100000000000047010000F91D00001A
:10004000470100002F2100003F2100004701000070
:1000500047010000EB1E0000BF1F00004701000029
:100060004701000047010000470100004701000070
:1000700047010000470100004D1E0000470100003D
:100080004701000047010000F11D0000932000001F
:100090009D200000B7200000DB200000F5200000BC
:1000A0000F21000047010000470100004701000048
:1000B0004701000047010000A321000047010000A4
:1000C0004701000047010000470100004701000010
:1000D0004701000047010000470100009522000091
:1000E00047010000470100004701000047010000F0
:1000F00047010000470100004701000047010000E0
:100100001148016821F03F0141F01B0101600F48D7
:10011000016840F2F33242F480226FEA020201EAFF
:10012000020141F4607141F00201016000204FF0D2
:10013000005101F5804241F8040B9142FBDB00F0D5
:1001400007B8FEE7FEE7FEE734E00F4060E00F404F
:10015000DFF80CD002F020FF00480047751D0000BA
:10016000001500200138FDD1704700002DE9F04155
:1001700005460C464FF0E020D0F804010068064622
:1001800006EA05004FF0E021D1F80411086020686C
:100190004FF00100FFF7E6FF206807464FF0E02030
:1001A000D0F8040106603846BDE8F08170B5044619
:1001B0000D4625604FF00100FFF7D4FF70BD0146EA
:1001C000FF48814202D16FF080007047FD488142B4
:1001D00002D16FF48070F8E7FB48814202D16FF4DE
:1001E0000070F2E76FF08000EFE72DE9F041044680
:1001F0000E462046FFF7E3FF074636B1012E12D028
:10020000022E20D0032E3ED12DE0211D3846FFF7CF
:10021000ADFF05466FF01F0104F10400FFF7C6FFB4
:100220002846BDE8F08104F580713846FFF79EFF4F
:10023000054604F582713846FFF798FF45EA00400D
:1002400005462846EDE704F590713846FFF78EFF26
:10025000054604F592713846FFF788FF45EA0040ED
:1002600005462846DDE704F5B0713846FFF77EFF06
:10027000054604F5B2713846FFF778FF45EA0040BD
:1002800005462846CDE70020CBE770B5044620465A
:10029000FFF795FF064621463046FFF767FF20F03F
:1002A0000100054629462046FFF780FF70BD2DE975
:1002B000FC4705460C4690464FF000000190009028
:1002C00007462846FFF77BFF814600BF05F1200166
:1002D0004846FFF74BFF10F4004FF7D14FF0B3063D
:1002E000B8F1020F06D0B8F1030F08D0B8F1040F2F
:1002F00020D117E04FF00000ADF802001CE04FF4F1
:100300000050ADF802004FF4805007464FF6FF70E2
:10031000ADF8040041F6FF70ADF8060046F040006D
:10032000064609E04FF40050ADF802004FF490503B
:10033000074601E0BDE8FC8700BF2068C0F3C0109D
:10034000B0B12068C0F3801048B1A06880B2ADF8A9
:100350000400A068C0F30C40ADF8060008E04FF0C0
:100360000000ADF80400A068C0F38C10ADF80600E2
:100370002068C0F3C01048B12068C0F3402028B105
:10038000BDF8060040F40040ADF806002068C0F358
:10039000C01048B12068C0F3002028B1BDF80600A5
:1003A00040F48040ADF806002068C0F3C01038B9B2
:1003B0002068C0F3402018B92068C0F3002028B19D
:1003C00047F48050074646F0400006462068C0F3D8
:1003D0008010B8B1BDF80000616889B240EA010040
:1003E000ADF80000BDF802006168C1F30C4140EABD
:1003F0000100ADF80200BDF8020040F44040ADF845
:1004000002000EE0BDF802006168C1F38C1140EA01
:100410000100ADF80200BDF8020040F40040ADF864
:1004200002002068C0F3030040F0800040EA0700AB
:1004300007462068C0F3401010B147F480600746BB
:10044000314605F12400FFF7B1FEBDF80400014676
:1004500005F12800FFF7AAFEBDF80600014605F1E8
:100460002C00FFF7A3FEBDF80000014605F13000A7
:10047000FFF79CFEBDF80200014605F13400FFF7CE
:1004800095FE394605F13800FFF790FE2068C0F36D
:100490000440014605F12000FFF788FE00BF49E750
:1004A0003EB50446494A07CA8DE807004FF00202EC
:1004B00069462046FFF7FBFE444A0C3207CA8DE826
:1004C000070043480178019861F30F200190022250
:1004D00069462046FFF7EBFE3EBD2DE9F04104469C
:1004E0000D462046FFF76BFE074621463846FFF7CC
:1004F0003DFE2843064631462046FFF757FEBDE83D
:10050000F0812DE9F04104460E462046FFF757FEE4
:10051000074621463846FFF729FE054645F04100CB
:1005200001462046FFF742FE3068014604F10C0008
:10053000FFF73CFE002104F11800FFF737FE25F01D
:100540004000054629462046FFF730FEBDE8F08111
:1005500070B504462046FFF732FE06464FF0010113
:100560002046FFF723FE00BF04F120013046FFF7CD
:10057000FDFD10F4004FF7D1B02104F12400FFF786
:1005800015FE002104F13400FFF710FE002104F1F4
:100590003800FFF70BFE4FF0010510E000BF04F13B
:1005A00020013046FFF7E2FD10F4004FF7D1294655
:1005B00004F12000FFF7FAFD05F10100054609E00E
:1005C00000000440001004400020044028300000D7
:1005D0002B000020202DE1D90C2104F12400FFF78D
:1005E000E5FD4FF00100054610E000BF04F12001D9
:1005F0003046FFF7BBFD10F4004FF7D1294604F158
:100600002000FFF7D3FD05F101000546202DECD9B0
:10061000211D3046FFF7AAFD70BD70B50446204687
:10062000FFF7CDFD064621463046FFF79FFD40F01F
:100630000100054629462046FFF7B8FD70BD08B504
:10064000182000F025FFE648FFF7E7FFE548C068FF
:100650000090E348FFF77CFF6946E148FFF751FF50
:100660000A21DF48FFF739FFDD48FFF719FFDC48B3
:10067000FFF70BFE0021DA48FFF7B7FD08BD2DE9B3
:10068000F04105460E4617464FF00000044616E0BE
:10069000204604F101010C46285C8046BC4207D28A
:1006A000204604F101010C46285C48EA00208046FF
:1006B00041463046FFF77AFD06F104000646BC428B
:1006C000E6D3BDE8F0812DE9F04781460E46174696
:1006D00098464FF00000044615E039464846FFF7BB
:1006E00045FD054607F104000746204604F10101D7
:1006F0000C463554444506D2C5F30722204604F182
:1007000001010C4632544445E7D3BDE8F0872DE99A
:10071000F04104460E462046FFF751FD074616B14C
:10072000012E1AD108E004F110013846FFF71EFD32
:1007300005462846BDE8F08104F5A0713846FFF76C
:1007400015FD80B2054604F5A2713846FFF70EFD8F
:1007500045EA004005462846ECE70020EAE770B588
:1007600004460D462046FFF72AFD0646B5F5004F24
:1007700004D1211D3046FFF7F9FC1DE000BF04F154
:1007800080013046FFF7F2FC10F4004FF7D108214A
:1007900004F18400FFF70AFD05F03F00014604F173
:1007A0008000FFF703FD00BF04F180013046FFF732
:1007B000DDFC10F4004FF7D170BD2DE9F041044687
:1007C0000D462046FFF7FBFC074604F108013846BA
:1007D000FFF7CCFC0646C6F30E00288016F4004F47
:1007E00002D00120BDE8F0810020FBE72DE9F843AD
:1007F00005460C4617464FF0000000900646284676
:10080000FFF7DDFC814600BF05F120014846FFF7F8
:10081000ADFC10F4004FF7D14FF0B3080FB1BDE8B5
:10082000F8834FF42040ADF802004FF4C070064644
:100830002068C0F3030040EA060006462068C0F3C3
:10084000001010B146F4006006462068C0F3801026
:1008500098B1606880B2ADF80000BDF80200616830
:10086000C1F30C4140EA0100ADF80200BDF80200FE
:1008700040F48040ADF802000CE04FF00000ADF80D
:100880000000BDF802006168C1F38C1140EA01006C
:10089000ADF802002068C0F3030048B12068C0F33F
:1008A0000300024605F13C0104F10800FFF7E7FEF2
:1008B000414605F12400FFF779FCBDF80000014630
:1008C00005F13000FFF772FCBDF80200014605F1AA
:1008D0003400FFF76BFC314605F13800FFF766FC8A
:1008E0002068C0F30440014605F12000FFF75EFCDC
:1008F00000BF94E72DE9F84305460C4617464FF034
:100900000000009006462846FFF759FC81464FF04C
:100910007700804617B148F008008046414605F14F
:100920008400FFF743FC2068C0F30440014605F152
:100930008000FFF73BFC00BF05F180014846FFF750
:1009400015FC10F4004FF7D105F190014846FFF770
:100950000DFC80B2ADF8000005F194014846FFF7A8
:1009600005FC80B2ADF8020005F198014846FFF79A
:10097000FDFB80B20646BDF8020010F4804F0FD098
:10098000BDF80000BDF80210C1F30C0140EA0140BF
:100990006060206820F0400000F14000206006E028
:1009A000BDF802004FEAC0404FEA5030606016F4D4
:1009B000004F0FD0206866F3030020602068C0F36A
:1009C0000300034605F19C0204F108014846FFF7C5
:1009D0007AFE03E0206820F00F002060BDE8F88375
:1009E000000004401430000001464FF001001F4A8F
:1009F0005061104601601E48906000BF1B4880682F
:100A000010F0020FFAD11948C06810F0010F02D09F
:100A10004FF0FF3070470020FCE710B503464FF061
:100A20000100124C606115E0104801600F4C18681D
:100A300060601048A06000BF0C48806810F0010F93
:100A4000FAD103F10400034601F104000146A2F1CA
:100A500004000246002AE7D10448C06810F0010FE4
:100A600001D0501E10BD0020FCE7000000D00F4058
:100A7000020042A4010042A440F82120704712F075
:100A8000010F04D0D0F8083443EA010303E0D0F8A2
:100A9000083423EA0103C0F8083412F0020F04D02E
:100AA000D0F8043443EA010303E0D0F8043423EA25
:100AB0000103C0F8043412F0040F04D0D0F80C3451
:100AC00043EA010303E0D0F80C3423EA0103C0F841
:100AD0000C34704710B512F0010F04D0D0F8004567
:100AE00044EA010403E0D0F8004524EA0104C0F818
:100AF000004512F0020F04D0D0F8044544EA010486
:100B000003E0D0F8044524EA0104C0F8044512F0DB
:100B1000040F04D0D0F8084544EA010403E0D0F8FB
:100B2000084524EA0104C0F8084512F0080F04D073
:100B3000D0F8184544EA010403E0D0F8184524EA47
:100B40000104C0F8184513F0010F04D0D0F80C458B
:100B500044EA010403E0D0F80C4524EA0104C0F89B
:100B60000C4513F0020F04D0D0F8104544EA0104FC
:100B700003E0D0F8104524EA0104C0F8104513F052
:100B8000040F04D0D0F8144544EA010403E0D0F87F
:100B9000144524EA0104C0F8144513F0080F04D0EA
:100BA000D0F81C4544EA010403E0D0F81C4524EACF
:100BB0000104C0F81C4523B9D0F8284544EA0104D3
:100BC00003E0D0F8284524EA0104C0F8284510BD08
:100BD00012F0010F04D0D0F8003443EA010303E01F
:100BE000D0F8003423EA0103C0F8003412F0020FF9
:100BF00004D0D0F8203443EA010303E0D0F82034D5
:100C000023EA0103C0F82034704730B504460D468E
:100C10004FF0010229462046FFF7DAFF082304229D
:100C200029462046FFF756FF30BD30B504460D4635
:100C30004FF0000229462046FFF7CAFF0A2304228C
:100C400029462046FFF746FF30BD30B504460D4625
:100C50004FF0020229462046FFF7BAFF0A2304227A
:100C600029462046FFF736FF30BD30B504460D4615
:100C70004FF0020229462046FFF7AAFF0A2304226A
:100C800029462046FFF726FF30BD30B504460D4605
:100C90004FF0020229462046FFF79AFF082304225C
:100CA00029462046FFF716FF30BD30B504460D46F5
:100CB0004FF0020229462046FFF78AFF082304224C
:100CC00029462046FFF706FF30BD10B54FF44070AF
:100CD00000F0DEFB40F2013000F0DAFB40F20230BF
:100CE00000F0D6FB40F2033000F0D2FB4FF441702D
:100CF00000F0CEFB40F2053000F0CAFB40F20730B6
:100D000000F0C6FB03214FF04020FFF7AEFF10219B
:100D10004FF04020FFF779FF2C214FF04020FFF7E4
:100D2000C4FFC0214FF04020FFF78FFF032152483E
:100D3000FFF78BFF14215048FFF777FF68214E48DB
:100D4000FFF763FF10214D48FFF77FFF60214B48FD
:100D5000FFF76BFF80214948FFF757FF0321484801
:100D6000FFF793FF0C214648FFF77FFF102144480F
:100D7000FFF76BFFE0214248FFF747FF0F21414893
:100D8000FFF743FFC7214048FFF73FFF38213E48A8
:100D9000FFF74BFF0F213D48FFF737FF0A230422DF
:100DA00011463548FFF796FE002204213248FFF72E
:100DB00066FE0A23042220213048FFF78BFE002222
:100DC00020212E48FFF75BFE0A23042238212E48FB
:100DD000FFF780FE002238212B48FFF750FE00224B
:100DE00001212A48FFF748FE002240212248FFF750
:100DF00043FE002202212548FFF73EFE0122114654
:100E00002148FFF739FE002206211F48FFF734FE74
:100E10004FF001001E4908604FF000024FF0400102
:100E20001948FFF729FE002210214FF04020FFF75C
:100E300023FE002208211048FFF71EFE0022202179
:100E40000D48FFF719FE202211460D48FFF714FE4A
:100E5000002240210A48FFF70FFE80221146084871
:100E6000FFF70AFE802211460448FFF705FE10BD79
:100E7000024652F8210070470050004000600040D8
:100E800000700040004002400050024000700240EC
:100E9000E4000022042808D16149096841F4803146
:100EA0004FF0E022C2F8241D2FE0052808D15C494C
:100EB000096841F400314FF0E022C2F8241D24E01B
:100EC000062808D15649096841F480214FF0E022F4
:100ED000C2F8241D19E00F2808D14FF0E02109695C
:100EE00041F002014FF0E02211610EE0A0F110018B
:100EF00001F01F024FF0010101FA02F1494AA0F18D
:100F000010034FEA531342F82310704710B50A46F6
:100F1000102823D2444B4FF00104C4EB900453F843
:100F2000243019464FEA80734FEAD3644FF0FF0331
:100F300003FA04F321EA030319464FEA80734FEAE8
:100F4000D36302FA03F343EA01031946364B4FF029
:100F50000104C4EB900443F8241022E0334B4FF01B
:100F60000404C4EB900453F8243019464FEA80730C
:100F70004FEAD3644FF0FF0303FA04F321EA0303BB
:100F800019464FEA80734FEAD36302FA03F343EA48
:100F900001031946254B4FF00404C4EB900443F8B9
:100FA000241010BD00B5A0210F20FFF7AFFFC02116
:100FB0001520FFF7ABFFC0211620FFF7A7FF602128
:100FC0002320FFF7A3FF40212720FFF79FFF802169
:100FD0003720FFF79BFF60211120FFF797FF0F20BD
:100FE000FFF758FF1520FFF755FF1620FFF752FFB8
:100FF0002320FFF74FFF2720FFF74CFF3720FFF795
:1010000049FF1120FFF746FF00BD10B500F0ACFE10
:10101000C0B210BD10B500F0A3FEC0B210BD0000FC
:1010200024ED00E000E100E018ED00E000E400E065
:1010300010B502460C4B1B680C4CA34210D04FF06D
:10104000000008E04FEA80031B68084C44F8203099
:1010500000F1010318464028F4D3044B024C2360EE
:10106000024B43F8221010BD08ED00E0C000002044
:101070000249034A42F8201070470000ED1D0000AD
:10108000C0000020042808D11C49096821F48031DF
:101090004FF0E022C2F8241D2FE0052808D117499F
:1010A000096821F400314FF0E022C2F8241D24E049
:1010B000062808D11149096821F480214FF0E02267
:1010C000C2F8241D19E00F2808D14FF0E02109696A
:1010D00021F002014FF0E02211610EE0A0F11001B9
:1010E00001F01F024FF0010101FA02F1044AA0F1E0
:1010F00010034FEA531342F82310704724ED00E029
:1011000080E100E0416841F00201416070472DE953
:10111000F0470E46DDE908C8022B02D14FF0080A5D
:1011200001E04FF0000A544613B94FF0000A01E005
:101130004FF0040A4AEA040A54464460B6FBFCF73E
:101140004FF0000100BF01F1020A5146B7FBF1FA6E
:10115000AAF10105FF2DF6D801614FEA821902F0CC
:10116000300A524649EA052A4AEA020A4AEA080AC5
:1011700054460460BDE8F0871CB54FF4827000F05F
:1011800087F9072044F21B1100231A46CDE900100D
:10119000044801680448FFF7BAFF0348FFF7B2FFAD
:1011A0001CBD0000300000200080004030B5D34856
:1011B000006E0446D148006F024612F0004F02D084
:1011C00002F0700001E004F0300020281FD003DCA2
:1011D00038B1102831D10AE0302828D070282CD11D
:1011E00028E0C748C4F3841550F8251027E0C34809
:1011F000006810F0E04F06D0C0480068C14D28409C
:10120000B0F1805F01D1C04900E0C04917E0BB48A0
:10121000006810F0E04F06D0B8480068B94D28408B
:10122000B0F1805F01D1BA4900E0BA4907E047F266
:10123000305104E04FF4004101E0002030BD00BF18
:1012400012F0004F02D012F4006F05D012F0004FE0
:1012500035D114F4006F32D1A848436E006810F005
:10126000E04F06D0A5480068A64D2840B0F1805F49
:101270000DD1C3F3481000F1020001FB00F003F0B0
:101280001F0505F10205B0FBF5F001460BE0C3F3C5
:101290004810484303F01F0505F101054FEA4505D5
:1012A000B0FBF5F0014613F4804F02D04FEA510035
:1012B000014613F4004F02D04FEA9100014614F4A6
:1012C000800F11D012F0004F07D0C2F3C55000F1CB
:1012D0000100B1FBF0F0014606E0C4F3C35000F199
:1012E0000100B1FBF0F001460846A7E72DE9F04107
:1012F00006468248006810F0E04F06D07F4800683C
:1013000080490840B0F1805F04D116F0004F01D051
:10131000BDE8F081804806607848006E0446774852
:10132000006F054644F40060044624F4800004463F
:1013300045F400600546714804664FF01000FEF762
:1013400011FF44F4005004466C480466056714F02D
:10135000020F02D016F0020F05D014F0010F24D0B6
:1013600016F0010F21D166F0030000EA04000446E4
:101370006248046615F0004F07D005F07000302871
:101380000AD005F07000702806D015F0004F08D183
:1013900004F03000302804D14FF48050FEF7E2FE14
:1013A00003E04FF40020FEF7DDFE43F2F07024EA84
:1013B0000000044643F2F07106EA010040EA04002E
:1013C0000446564805EA00000546554906EA01006C
:1013D00040EA0500054606F0080045EAC00005465B
:1013E0004FF040004549886515F0004F03D008468E
:1013F0000567046602E04148046605671020FEF7B1
:10140000B1FE484804EA00000446474906EA0100E4
:1014100040EA0400044625F0FC50054606F0FC5066
:1014200040EA0500054616F4006F14D14FF400475A
:1014300008E03248006D10F0400F00D004E0A7F142
:1014400001000746002FF4D100BF24F400600446D9
:1014500025F4006005462948046605674FF0100032
:10146000FEF780FE00BF53E724494863704710B57C
:101470002248006880B2022802D11B20FFF7F4FF47
:101480002A48FFF733FFFFF791FE2949086010BD96
:101490002849C0F30322032A02D2C0F3032200E04A
:1014A000022251F82210012282401143214AC0F346
:1014B0000323032B02D2C0F3032301E04FF0020306
:1014C00042F8231070471B49C0F30322032A02D2BB
:1014D000C0F3032200E0022251F8221001228240D0
:1014E0009143144AC0F30323032B02D2C0F3032316
:1014F00001E04FF0020342F82310704700E00F4074
:101500004C3000000000FF70C0E1E400001BB70099
:1015100070383900C0C62D00240000208FDFFF7F07
:1015200030200080FCFF3FF80300C0078203C003A7
:101530003000002000E10F400C49096821F470617F
:1015400041EA00010A4AC2F800110A49096821F477
:10155000706141EA0001C2F810110749096821F4DD
:10156000706141EA0001C2F82011704700E10F40AC
:1015700000E00F4010E10F4020E10F404FF0E0206D
:10158000006940F002004FF0E021086170474FF021
:10159000E020006940F005004FF0E021086170474D
:1015A000A0F101014FF0E0225161704700B50848F9
:1015B00000680849B0FBF1F04FF47A7100FB01F3C9
:1015C0001846FFF7EDFFFFF7E2FFFFF7D7FF00BD7B
:1015D0003000002040420F00C26840F2011301EACF
:1015E000030342EA0302C2607047826942EA0102D1
:1015F0008261704711F0FF0F00D0026311F47F4F3A
:1016000000D04263704711F0FF0F00D0826211F4E6
:101610007F4F00D0C262704710B5FF2909D102F098
:101620000C031A46C36823F00C0343EA0203C360A9
:101630001BE0B1F57F4F09D102F440631A46C3683D
:1016400023F4406343EA0203C3600EE0A1F57F4345
:10165000FF3B0AD102F440631A46C36840F60C44CB
:1016600023EA040343EA0203C36010BDC26840F2E8
:10167000011322EA0302C2604FEA11620260CAB299
:101680004260C1F307228260704710B54FF4887042
:10169000FFF7FEFE46494748FFF7E8FF0422FF2117
:1016A0004448FFF7B9FF0122FF214248FFF7ABFF93
:1016B0000022FF213F48FFF79DFF01213D48FFF732
:1016C00094FF4FF480624FF47F413A48FFF7A4FF44
:1016D0004FF6FF724FF47F413648FFF794FF002228
:1016E0004FF47F413348FFF785FF4FF48071314855
:1016F000FFF77BFF4FF47F412E48FFF76DFF40F26D
:101700001110FFF7C5FE2A492B48FFF7AFFF04224F
:10171000FF212948FFF780FF4EF66022FF2126486F
:10172000FFF771FF0022FF212348FFF763FF01212C
:101730002148FFF75AFFFF211F48FFF74DFF40F2F6
:1017400004424FF47F411C48FFF766FF01224FF42B
:101750007F411948FFF757FF00224FF47F41164899
:10176000FFF748FF4FF480711348FFF73EFF4FF437
:101770008970FFF78DFE11491148FFF777FF0422AA
:10178000FF210F48FFF748FF4FF6FF72FF210C487B
:10179000FFF739FF0022FF210948FFF72BFF012146
:1017A0000748FFF722FFFF210548FFF715FF10BD8F
:1017B000030300040000034000100340030A000478
:1017C00000200340826B42EA01028263704741EAD3
:1017D000020343637047C16A41F01001C162016BAB
:1017E00040F2013241EA02010163704700BF8169A2
:1017F00011F0080FFBD1C16A21F01001C162016B29
:1018000040F2013221EA020101637047F0B504465B
:101810000D4616462046FFF7E9FF4FEAC500B0FB2C
:10182000F6F000F101004FEA500007464FEA97102A
:10183000606207F03F00A062D8B2E0624FF00000A3
:10184000A0612046FFF7C7FFF0BD38B50446344815
:1018500050F824000546334850F82400C0F30260D5
:101860003149085C00902F4850F82400C0F38341B0
:10187000009861F3461000902A4850F82400C0F305
:101880008151009861F3C3000090009803462548F9
:1018900050F82400C0F3110002462448016828468D
:1018A000FFF7B4FF202200212846FFF790FF7021A8
:1018B0002846FFF787FF38BD10B54FF48070FFF75B
:1018C000E7FD40F20110FFF7E3FD164818494968AB
:1018D00041600120FFF7B9FF10BD014688694FF054
:1018E000010222EA1010704701460868704700BFE5
:1018F000826912F0200FFBD10160704701468869B0
:10190000C0F3C0007047826B22EA01028263704715
:10191000024609B1106C7047D06BFCE74164704718
:10192000F03000006C000020A830000030000020E3
:10193000B03000004FF08040806840F001004FF070
:101940008041886070472248006840F480704FF002
:101950008041C1F8180470474FF08040806840F023
:1019600002004FF08041886070474FF0804108606E
:1019700070474FF001004FF08041C8607047154834
:1019800015490860704710B50320FFF781FDFFF788
:10199000F6FFFFF7EEFF114800684FF47A71B0FBD5
:1019A000F1F000FB01F21046FFF7DFFFFFF7D4FF75
:1019B000FFF7C9FFFFF7BEFF10BD4FF08040006882
:1019C000704700B5FFF7F9FF0246FFF7CEFF00BDF5
:1019D0001804004051E5CC1A000C004030000020F3
:1019E0004FF0010101FA00F1DA4A91627047D949DA
:1019F00009684FF0010202FA00F241EA0201D54AF9
:101A0000116070474FF0010101FA00F1D14AD16035
:101A1000114689684FF0010202FA00F241EA020120
:101A2000CC4A916070474FF0000211464FEA5002D5
:101A3000104605E001F1010211464FEA500210463E
:101A40000028F7D1C34A1163704710B54FEA8103EC
:101A50001946C14B03EB40131B684FF00F0404FA07
:101A600001F423EA040302F00F0404FA01F443EA48
:101A70000403B94C04EB40142360B74B03EB401351
:101A80005C684FF00F0303FA01F324EA0303C2F387
:101A9000031404FA01F443EA0403AF4C04EB4014CA
:101AA000636010BD10B54FEA80031846A94B5B690F
:101AB0004FF00F0404FA00F423EA040301F00F04CA
:101AC00004FA00F443EA0403A24C636123461B6A50
:101AD0004FF00F0404FA00F423EA040302F00304B5
:101AE00004FA00F443EA04039A4C236210BD9949B6
:101AF00009684FF0010202FA00F221EA0201954A58
:101B00001160704710B51020FFF7C2FC0020FFF7EE
:101B100013FD0020FFF7EBFF002211461046FFF7F0
:101B2000C1FF622200210846FFF78FFF4020FFF728
:101B30007AFF0020FFF766FF0020FFF758FF002024
:101B4000FFF74EFF1E20FFF7A5F910BD70B5044644
:101B50000D4604F11E00064629463046FFF768FA96
:101B60003046FFF797F970BD70B5044604F11E00CA
:101B700005462846FFF786FA2846FFF779FA70BD32
:101B8000744989684FF0010202FA00F221EA020169
:101B9000704A91607047024629B16E48C0680123BF
:101BA0009340184070476B484068012393401840A9
:101BB000F8E74FF0010101FA00F1664AD160704781
:101BC0000146644800694FF0010202FA01F200EA9E
:101BD000020070474FF0010101FA00F15D4A116106
:101BE000704701465B4880694FF0010202FA01F23A
:101BF00000EA020070474FF0010101FA00F1554A76
:101C00009161704702464FF0000318460AE0524BBC
:101C100003EB42139B680B6001F10403194600F1CA
:101C2000010318464C4B03EB4213DB6813F4807F2F
:101C300001D10828EBD37047022904D14FF00102EB
:101C4000464B1A540DE0042904D14FF00202434BD5
:101C50001A5406E0082904D118B94FF003023F4B8B
:101C60001A54704710B53D4B1C5C4FF0040303FA47
:101C700004F301FB03F1394B1C5C4FF0010303FA41
:101C800004F318463DE0344B03EB40131B684FF060
:101C90000F0404FA01F423EA040302F00F0404FA27
:101CA00001F443EA04042C4B03EB40131C602A4B61
:101CB00003EB40135B684FF00F0404FA01F423EACE
:101CC0000403C2F3031404FA01F443EA0403224CAC
:101CD00004EB4014636001280DD01F4B03EB40134D
:101CE0005B684FF0060404FA01F423EA04031A4C7B
:101CF00004EB4014636001F104031946A0F10103F1
:101D000018460028BFD110BD70B51DE04FF000058A
:101D10002C46124D2E5C4FF0010505FA06F52B46B8
:101D200008E00D4D05EB4015AD6825442C46A3F1A8
:101D300001052B46002BF4D1084D2D5C24FA05F546
:101D40000D6001F1040529461500A2F10106324695
:101D5000DCD170BD008003404080034010000020B3
:101D6000EFF3108072B67047EFF3108062B67047E1
:101D700030BF70474FF4FA70FEF7F4F94FF2244089
:101D8000FEF7F0F9FFF746F9FFF771FBFEF79DFF4D
:101D90001548FEF7E7F9FFF709FCFFF7EDF9FFF744
:101DA0008BFDFFF772FCFFF7ADFE00F0A3FCFEF722
:101DB00046FCFFF7E8FDFFF7F5F8FFF726F900BF4F
:101DC000FFF7FFFD00F081FD00F0C7FD00F0E2FC31
:101DD00000F003FE00F0ADFF00F0E4FF01F07EF83C
:101DE00001F04AF8ECE700006889090000BFFEE74F
:101DF00010B5FFF7BEFD10BDF848006800F1010006
:101E0000F6490860F648006800F10100F4490860EE
:101E1000F448008828B1F3480088A0F10100F14996
:101E20000880F148007828B1EF480078A0F101005F
:101E3000ED490870E948006810F0070F05D1EB483C
:101E4000007800F10100E9490870704710B50020E2
:101E5000FFF7AFFEE6490020FFF7D4FEDF48006839
:101E6000E4490880E2480068E3490968884206D2EC
:101E7000DF480068E0490968A1EB000405E0DC48A0
:101E80000068DD490968A0EB0104D9480068DA4917
:101E90000860052C14D2D6480068D849098860F338
:101EA0000901D64801804FF00000D54908704FF075
:101EB0000101D248008861F38A20D049088013E0EC
:101EC000CF48007800F10100CD490870084600783D
:101ED000142809DBC1480068A0F16400C5490880E6
:101EE0004FF01400C649087010BD2DE9F0410121E2
:101EF000C448FFF70DFD05462946C248FFF70EFD11
:101F000015F0200F1BD0B5480068BF490880BF48B6
:101F10000078542801D0BDE8F081BD480088BD4953
:101F20000988884205D0002000F069FE012806D10A
:101F3000F1E74FF00000B5490870B749088015F087
:101F4000500F3AD04FF0100007462FE0AD48FFF792
:101F5000CBFCC4B20D2C03D0202C20DD7E2C1EDC4B
:101F6000AE48008800F1010080B20646B6F5007F59
:101F700002DB4FF000000646A9480088864200D1E7
:101F800014E0A848A54909884454A44806800D2CAB
:101F900005D1A548008800F10100A3490880A7F1F8
:101FA0000100C0B2074607B905E000BF9548FFF73A
:101FB00094FC0028CAD100BF00BF00BFABE72DE9E9
:101FC000F04101219948FFF7A3FC054629469748AF
:101FD000FFF7A4FC15F0200F1BD08048006894493F
:101FE000088094480078542801D0BDE8F0819248D8
:101FF000008892490988884205D0012000F0FFFD41
:10200000012806D1F1E74FF000008A4908708C4999
:10201000088015F0500F3AD04FF0100007462FE01F
:102020008248FFF761FCC4B20D2C03D0202C20DDC8
:102030007E2C1EDC8348008800F1010080B2064639
:10204000B6F5007F02DB4FF0000006467E480088B0
:10205000864200D114E07D487A4909884454794881
:1020600006800D2C05D17A48008800F101007849DE
:102070000880A7F10100C0B2074607B905E000BF1C
:102080006A48FFF72AFC0028CAD100BF00BF00BF82
:10209000ABE74FF001006F49486270474FF4807022
:1020A0006C4948624FF6FF70C8620846C06820F469
:1020B0008070C86070474FF00100674948624EF673
:1020C000602088620846C06840F00100C860084689
:1020D000C06820F00100C86070474FF480705E490E
:1020E00048624FF6FF70C8620846C06840F48070CE
:1020F000C86070474FF00100584948624FF6FF70C2
:1021000088620846C06840F00100C86070474FF41C
:102110008070524948624FF01300C8624FF00900C6
:1021200048630846C06840F48070C86070474C49F6
:102130000968C9B208464B49C1F81C0470474A49AE
:102140000968C9B208464949C1F81C0410F0200FBB
:1021500026D04749096821F02001444AC2F81014EA
:1021600022490978434A11704FF00101424A116037
:102170004249096841B14FF00001404A11604FF0F7
:1021800001013F4A116007E04FF001013B4A116035
:102190004FF000013A4A116014490978394A117028
:1021A000704739490968C9B208463849C1F81C0462
:1021B00010F0080F07D03649096821F00801334AAA
:1021C000C2F8101409E010F0100F06D03049096869
:1021D00021F010012D4AC2F810147047340000207D
:1021E0003800002056000020610000203C00002044
:1021F000C001002020000020180000201400002052
:102200002200002000C00040A40000209700002011
:102210009E000020A0000020A200002098000020C6
:102220009A0000207C0A00209C00002000D0004082
:10223000B4000020A6000020AE000020B000002066
:10224000B2000020A8000020AA0000207C0E002080
:10225000AC000020000003400010034000200340B9
:1022600018540040005000401864004000600040D6
:102270001064004043000020DC000022980000228F
:102280009C000022600000201854024000500240D0
:102290001054024070B500214B48FEF738FA04464E
:1022A00004B970BDB4F5004F0AD100214648FDF7CE
:1022B0009CFF4649087046494348FEF77EFAF0E71E
:1022C0000D2C04D900214048FDF78FFFE9E74FF0BE
:1022D0000000404908603D4908703D490880A4F16C
:1022E000010000EB40003C4951F82000C0F34010D1
:1022F000002855D039484FF0000101604160006866
:1023000064F31440354908604FF001022E48FEF78F
:10231000F1FA012C02D0022C1ED100E000BF30489F
:102320000078401C2F490978884214D02E482C4947
:10233000097800EB0110294D2ECD2EC028480078D9
:1023400000F101002649087008460078322802DBB7
:102350004FF00000087022E024480078401C244917
:10236000097888421AD023482049097800EB0111E6
:102370001A4DD5E901032A68ED68C1E90235C1E9C2
:1023800000201A48007800F101001849087008463A
:102390000078142802DB4FF00000087000BF10E046
:1023A000032C08D14FF0000013490870134800684F
:1023B0001349088000E000BF00BF21460248FEF735
:1023C000CEF900BF6DE70000000004407800002057
:1023D00074000020E00000222830000044020020A9
:1023E000830000208400002074020020940000205C
:1023F00095000020B40800207F0000203400002059
:10240000500000202DE9F0474FF01800074607F173
:10241000030007464FF6FC7107EA010007464FF03C
:102420000000C8490870064641E0C748814606FBDF
:10243000079999F800A0BAF1590F0DD11822494611
:10244000C24800F06DFD06F10100BE4908704FF072
:102450004500BF49885526E0BAF1FF0F04D04FF080
:102460004E00BB4988551EE04FF04200B8498855E0
:102470004FF0000080460FE0D9F80000401C04D067
:102480004FF04E00B24988550CE009F10400814636
:1024900008F1010080B28046F91707EB9171B8EBA3
:1024A000A10FE9DB00BF06F1010080B20646292E2C
:1024B000BBD3A448007870B3A449C968084600F0AB
:1024C00041FD0446A34AA44B00F052FD03D24FF055
:1024D0007E509E49C8609D490969084600F032FD5A
:1024E00004469C4A9C4B00F043FD03D24FF07E50C3
:1024F0009649086195494969084600F023FD04465C
:10250000944A954B00F034FD03D24FF07E508F4932
:102510004861BDE8F0874FF059008C4908804FF0C2
:10252000010048804FF00201884881804FF003018C
:10253000C1804FF07E508549C860086148614FF006
:102540000000804609E0824810F80800422800D1C7
:10255000DFE708F1010080B28046B8F1290FF2D31D
:102560004FF47C40FEF740FA00BFD2E7F8B54FF0D9
:10257000000000904FF01800054605F103000546E5
:102580004FF6FC7105EA010005464FF000000446D5
:1025900008E06F48005D422800D105E004F1010029
:1025A000C0B20446292CF4D300BF292C16D14FF415
:1025B0007C40FEF719FA4FF00000044607E04FF0A8
:1025C00042006349085504F10100C0B20446292CB9
:1025D000F5D34FF000005B49087004465948007875
:1025E000A8B15948064657480078A0F1010000FB01
:1025F00005664FF0040231466846FEF70EFA4FF0CA
:102600004E0150480078A0F10100514A11544F4F3B
:102610004D48064604FB05664FF045004C490855F9
:1026200004F10100474908702A4631463846FEF752
:10263000F4F9F8BD70B540F20630FEF729FF4FF40B
:10264000FA70FDF78FFD0022FF214448FEF7C0FA23
:102650000C230422FF214148FEF73CFA4FF4FA70A4
:10266000FDF780FD00BFFF213C48FEF701FCC4B22E
:1026700041F28830FDF776FDFF213848FEF7F8FB80
:10268000C5B2AC42EFD100BF00BFFF2C03D004F1B4
:102690000100C0B20446324804704FF00A0094FBB7
:1026A000F0F100FB11402F4988704FF00A0094FBB5
:1026B000F0F0C0B204464FF00A0094FBF0F100FBCA
:1026C0001140284948704FF00A0094FBF0F0C0B266
:1026D00004464FF00A0094FBF0F100FB1140214941
:1026E000087014B94FF01500087040F20630FEF77C
:1026F000EAFE70BD10B5FFF79DFFFFF783FE4FF0B8
:1027000000001949086019490870194819490860FA
:1027100019481A4908601A4800681A4908804FF099
:102720000000194908600E4800784FF00A0190FB3C
:10273000F1F201FB120015490870084600781449AF
:10274000087010BD2300002000FC00000C020020D7
:10275000E00100209A9999999999C93F0060024037
:102760002B0000202C000020000000227800002018
:1027700074020020880000209405002090000020B2
:102780003400002054000020E000002281000020DE
:1027900082000020A448007868B1A4480068A449D9
:1027A0000988401A80B241F28831884203DB4FF039
:1027B00000009D49087070479E48007800F10100B4
:1027C0009C49087008460078322806DB4FF000006C
:1027D000087099489949086005E09848006800F138
:1027E0001000964908607047F0B505460B46144640
:1027F0009348006800B1F0BD082B02DD4FF00800DF
:1028000003468E480068DFF83CC29CE8C210A0E88E
:10281000C2108D48017889480068406861F30F2034
:1028200086490968486085480068406865F31A4031
:10283000824909684860CBB180480068006863F34A
:1028400003007E49096808604FF000020CE021781F
:102850007A48006800F10800815404F10100044640
:1028600002F10100C0B202469A42F0DBFFF7A4FF7A
:1028700000BFC0E74FF0010074490860704730B5F1
:102880007148007801281AD14FF00000044609E091
:102890006F48055D05B907E06E48055504F1010074
:1028A000C0B204460A2CF3DB00BF0CB10A2C00D1E5
:1028B00030BD684A21460320FFF796FF00BF00BFE6
:1028C000F6E710B5FFF752FE10BD10B5624800786C
:1028D00062490978884200D110BD544800686049B7
:1028E00008804FF00100594908605E480068406860
:1028F000C0F30A40092815D2DFE800F00508090AEC
:102900000B0C0D0E1100FFF7B5FF0CE000BF00BF70
:1029100000BF00BF00BF00BFFFF7B1FF03E0FFF73C
:10292000D0FF00E000BF00BF4C48007800F101007C
:102930004A49087008460078322806DB4FF000004C
:10294000087049484749086005E04648006800F1BA
:1029500010004449086000BFBEE710B53548007854
:1029600042490978884200D110BD2F48007800B153
:10297000FAE73648006800B9F6E73D48007830B11C
:102980003B480078A0F1010039490870ECE739486C
:102990000078374908704FF05300234908702348E6
:1029A0000068234908802448304A127800EB02105E
:1029B00001464FF000023048FDF718FF2B48007821
:1029C00000F101002949087008460078322802DB2E
:1029D0004FF00000087000BFC6E710B52748007828
:1029E00010F0E00F09D1114800681D490988401A0C
:1029F00080B242F6E061884215DD0C480068184953
:102A000008804FF000001D4908704FF001000C498C
:102A100008604FF00000044908701949087019490E
:102A20000870FDF70CFE10BD7F0000203400002070
:102A3000500000208C000020940500209000002011
:102A4000E0000022C03000002B000020C000002267
:102A5000B8300000EA12002083000020840000202B
:102A60005400002088000020740200208D00002007
:102A70008200002081000020000004407800002037
:102A80007E0000207C000020E84880680088E74A3B
:102A900052681288904201D100207047E3480068D4
:102AA000E24A92681288815C4FF00000DF4A1268A7
:102AB000DE4B9B681B88D054DC488068008800F19E
:102AC0000100DA4A92681080D84880680088D74AA6
:102AD0009289904204DB4FF00000D44A9268108043
:102AE0000846DAE7F0B50246D14850F82200014620
:102AF0000F46D04830F81200C0B20646CE48805C7F
:102B000005464FF00000034624E0CC48044600BFD1
:102B1000207891F800C0604504D007EB050001461D
:102B20000F4612E008780D2806D00878DFF810C3A9
:102B30001CF802C0604501D11846F0BD04F1010047
:102B4000044601F101000146E2E700BF03F1010084
:102B5000C0B20346B342D8DB4FF6FF70EDE7F0B5E5
:102B60000646012E01DD0020F0BDB64800EB061739
:102B7000AE488ECF8EC04FF000051AE0FFF784FFFD
:102B800004467E2C00DD10E0AC4844550D2C05D1E8
:102B90002046AA4948554FF00000E5E7A848805D67
:102BA000A04201D10120DFE700BF05F10100C0B262
:102BB0000546092DE2DB4FF00000A049485500BF53
:102BC000FFF762FF044614B94FF6FF70CCE70D2CF7
:102BD000F6D14FF6FF70C7E770B50446012C00DD53
:102BE00070BD984901EB041690496CCE6CC100BFD2
:102BF000FFF74AFF08B10D28FAD100BFF0E72DE931
:102C0000F04104464FF000000646012C01DDBDE80E
:102C1000F0818D4850F824707EE004EB44008B492D
:102C200001EBC0008068008804EB4401874A02EB96
:102C3000C10149680988884209D14FF0000004EBBE
:102C4000440102EBC101C9680880064667E004EB55
:102C500044007E4951F8300004EB44017B4A02EB0A
:102C6000C10189680988455C4FF0000004EB44010C
:102C700052F8311004EB4402744B03EBC202926829
:102C80001288885404EB4400194601EBC0008068A8
:102C9000008800F1010004EB44011A4602EBC10177
:102CA0008968088004EB4400114601EBC00080688D
:102CB000008804EB440102EBC101898A884207DBEA
:102CC0004FF0000004EB440102EBC1018968088069
:102CD0000D2D17D104EB44005C4901EBC000C06826
:102CE0000088A0F1010004EB4401584A02EBC10145
:102CF000C968088029463846FEF7F9FD4FF0000004
:102D000006460CE0202D07DB06F10100C0B20646A6
:102D100029463846FEF7EBFD0C2EFFF67EAF00BFCE
:102D20004B4800684B4908800EB900206FE701202E
:102D30006DE710B54848008800B910BD46480088C6
:102D4000A0F10100444908804FF00100FFF707FFA0
:102D50000446A4F57F40FF3800D1EEE73F490C70F0
:102D60000120FFF7BFFE0446092C11D2DFE804F072
:102D700005060708090A0B0C0D0000BF00BF00BFC5
:102D800000BF00BF00BF00BF00BFFFF79AFD06E015
:102D90003248007810B10120FFF71EFF00BF00BFCE
:102DA00000BFCAE710B52E48008800B910BD2848FA
:102DB000006828490988A0EB010084B20A2C00DAD7
:102DC000F4E72848007828BB274800882749098865
:102DD000884214D02648FEF791FD00B1E6E7202195
:102DE0002448FEF790FD0120FFF709FF04464FF04D
:102DF00020012048FEF7E6FC012C06D1D6E74FF073
:102E000000001849087016490880114800681149E7
:102E1000088009E0642C07DD4FF0000011490870BC
:102E20000B4800680B49088000BFBFE7F409002089
:102E3000A031000098310000A83100007C12002071
:102E40009C310000AC310000F0300000CC310000BB
:102E500034000020B4000020AC000020B6000020A8
:102E6000B2000020A6000020AE000020B00000202C
:102E700000D0004000C0004070B5214800782149D2
:102E80000978401AC0B2192826DB1D4800781D4970
:102E900008701D48006D10F0400F06D14FF0000083
:102EA0001A490870FEF7E3FA70BD1748006E044631
:102EB0001548056F164804EA0000044615F0004F57
:102EC00003D114480068844205D04FF000000F4938
:102ED0000870FEF7CCFA00BF00BFE5E710B50E485A
:102EE00000680E490988401A80B2642800DA10BDD3
:102EF0000948006809490880FEF704FE00BFF6E7AC
:102F00003C0000204400002000E00F40280000208A
:102F1000F32FC00F240000203400002020000020E8
:102F200040EA01039B0703D009E008C9121F08C04B
:102F3000042AFAD203E011F8013B00F8013B521ECB
:102F4000F9D2704700F0004230F000400DD0C10DC2
:102F500001F5607142EA01510022C0F316005207E8
:102F600042EAD002400711437047002001467047F3
:102F700030B5002904DB4FF00044404264EB01010E
:102F8000002B05DB4FF00044524264EB0304234660
:102F90008B4208BF824230BD064C074D06E0E06818
:102FA00040F0010394E8070098471034AC42F6D390
:102FB000FDF7D2F8FC3100003C32000030B58C182F
:102FC00010F8012B12F00F0301D110F8013B120988
:102FD00006D110F8012B03E010F8015B01F8015B4A
:102FE0005B1EF9D101E001F8013B521EFBD1A14269
:102FF000E6D3002030BD02E008C8121F08C1002A35
:10300000FAD170477047002001E001C1121F002A69
:10301000FBD170474914000047140000431400001E
:103020004114000040140000E00301000200001001
:10303000FFFF0018E003020002000010FFFF00186D
:103040005000030002000010FFFFFF1F40420F006E
:1030500000201C0080841E0000802500999E360000
:103060000040380000093D0000803E0000004B0099
:10307000404B4C0000204E00808D5B0000C05D0086
:103080000080700000127A0000007D008096980099
:10309000001BB7000080BB00C0E8CE00647ADA00F5
:1030A0000024F4000000FA001012169296000000AE
:1030B00080250C0080250C0056312E302E300D005E
:1030C0005000030002000018000000000000000093
:1030D0000040004000500040006000400070004090
:1030E0000040024000500240006002400070024078
:1030F00000C0004000D000404330300D0000000010
:1031000053455155503A000047643A000000000012
:10311000504D54523A00000047653A00000000004C
:1031200047663A000000000047673A0000000000D0
:103130005645520D00000000534F4C49440D00000D
:10314000424F4F540D0000004330300D000000008E
:1031500053455155503A000047643A0000000000C2
:10316000504D54523A00000047653A0000000000FC
:1031700047663A000000000047673A000000000080
:103180005645520D00000000534F4C49440D0000BD
:10319000424F4F540D0000000A000A003A3A000066
:1031A000F830000048310000080800007C0A0020C8
:1031B000980000209A000020000200007C0E0020F1
:1031C000A8000020AA000020000200007C0C0020C3
:1031D0009E000020A00000209E00002097000020FC
:1031E000000200007C100020AE000020B000002093
:1031F000AE000020A6000020000200003C320000CB
:1032000000FC000018000000F62F000054320000FF
:1032100010000020B0010000BC2F00005832000058
:1032200000000022F8000000F62F000058320000D5
:10323000C0010020401300000630000059000100CA
:1032400002000300010000000000803F0000803FFA
:103250000000000001FF01B30000000000000000BA
:10326000000000000000000000000000000000005E
:10327000000000000000000000000000000000004E
:10328000000000000000000000000000000000003E
:10329000000000000000000000000000000000002E
:1032A000000000000000000000000000000000001E
:1032B000000000000000000000000000000000000E
:1032C00000000000000000000000000000000000FE
:1032D00000000000000000000000000000000000EE
:1032E00000000000000000000000000000000000DE
:1032F00000000000000000000000000000000000CE
:1033000000000000000000000000000000000000BD
:1033100000000000000000000000000000000000AD
:10332000000000000000000000000000000000009D
:10333000000000000000000000000000000000008D
:10334000000000000000000000000000000000007D
:0400000500000101F5
:00000001FF
