:020000040000FA
:10000000201600200101000043010000450100000E
:100010004701000047010000470100000000000008
:100020000000000000000000000000004701000088
:10003000470100000000000047010000F525000016
:10004000470100008F2800009D280000F7280000CD
:1000500047010000792600003B270000470100000F
:100060004701000047010000470100004701000070
:1000700047010000470100003F2600004701000043
:100080004701000047010000ED250000FD270000AA
:10009000052800001F280000412800005B28000000
:1000A00073280000470100004701000047010000DD
:1000B0004701000047010000D32A0000470100006B
:1000C0004701000047010000470100004701000010
:1000D000470100004701000047010000E12A00003D
:1000E00047010000470100004701000047010000F0
:1000F00047010000470100004701000047010000E0
:100100001148016821F03F0141F01B0101600F48D7
:10011000016840F2F33242F480226FEA020201EAFF
:10012000020141F4607141F00201016000204FF0D2
:10013000005101F5804241F8040B9142FBDB00F0D5
:1001400007B8FEE7FEE7FEE734E00F4060E00F404F
:10015000DFF80CD005F0AEFB004800475D2500003D
:10016000201600200138FDD1704700002DE9F04134
:1001700005460C464FF0E020D0F80401066806EA78
:1001800005004FF0E021D1F804110860206801203B
:10019000FFF7E8FF27684FF0E020D0F80401066081
:1001A0003846BDE8F08170B504460D462560012053
:1001B000FFF7D8FF70BD0146FE48814202D16FF0C3
:1001C00080007047FC48814202D16FF48070F8E7EC
:1001D000FA48814202D16FF40070F2E76FF08000BC
:1001E000EFE72DE9F04104460E462046FFF7E3FF16
:1001F000074636B1012E11D0022E1ED0032E3AD161
:100200002AE0211D3846FFF7B1FF05466FF01F01B8
:10021000201DFFF7C8FF2846BDE8F08104F5807176
:100220003846FFF7A3FF054604F582713846FFF70D
:100230009DFF45EA00452846EEE704F590713846F3
:10024000FFF794FF054604F592713846FFF78EFFDD
:1002500045EA00452846DFE704F5B0713846FFF768
:1002600085FF054604F5B2713846FFF77FFF45EA82
:1002700000452846D0E70020CEE770B5044620466A
:10028000FFF799FF064621463046FFF76FFF20F043
:10029000010529462046FFF786FF70BD2DE9FC4782
:1002A00005460C4690460020019000900027284605
:1002B000FFF781FF814600BF05F120014846FFF7A7
:1002C00055FF00F400400028F6D1B326B8F1020F24
:1002D00006D0B8F1030F07D0B8F1040F1AD112E01D
:1002E0000020ADF8020017E04FF40050ADF8020016
:1002F00047104FF6FF70ADF80400C010ADF80600CF
:1003000046F0400608E04FF40050ADF802004FF40C
:10031000905701E0BDE8FC8700BF2078C0F3C01013
:10032000A8B12078C0F3801048B1208980B2ADF820
:100330000400A068C0F30C40ADF8060007E0002000
:10034000ADF80400A068C0F38C10ADF8060020786A
:10035000C0F3C01048B12088C0F3402028B1BDF8D8
:10036000060040F40040ADF806002078C0F3C0104D
:1003700048B12088C0F3002028B1BDF8060040F441
:100380008040ADF806002078C0F3C01038B920884E
:10039000C0F3402018B92088C0F3002018B147F4FA
:1003A000805746F040062078C0F38010A8B1BDF811
:1003B0000000A18889B20843ADF80000BDF8020032
:1003C0006168C1F30C410843ADF80200BDF80200BA
:1003D00040F44040ADF802000DE0BDF80200616855
:1003E000C1F38C110843ADF80200BDF8020040F4DF
:1003F0000040ADF80200207800F00F0040F08000CF
:1004000007432078C0F3401008B147F480673146B5
:1004100005F12400FFF7C7FEBDF8041005F1280020
:10042000FFF7C1FEBDF8061005F12C00FFF7BBFE7B
:10043000BDF8001005F13000FFF7B5FEBDF8021061
:1004400005F13400FFF7AFFE394605F13800FFF73C
:10045000AAFE2068C0F3044105F12000FFF7A3FEC7
:1004600000BF57E73EB50446554A07CA8DE8070066
:10047000022269462046FFF711FF514A0C3207CA93
:100480008DE807004F480178019861F30F20019033
:10049000022269462046FFF701FF3EBD2DE9F041EB
:1004A00004460D462046FFF786FE0746214638469D
:1004B000FFF75CFE40EA050631462046FFF773FE73
:1004C000BDE8F0812DE9F04104460E462046FFF7D5
:1004D00072FE074621463846FFF748FE054645F0BE
:1004E00041012046FFF75FFE04F10C003168FFF781
:1004F0005AFE002104F11800FFF755FE25F04005D3
:1005000029462046FFF74FFEBDE8F08170B504464E
:100510002046FFF750FE064601212046FFF743FE26
:1005200000BF04F120013046FFF720FE00F4004038
:100530000028F6D1B02104F12400FFF734FE002199
:1005400004F13400FFF72FFE002104F13800FFF71B
:100550002AFE01250FE000BF04F120013046FFF71D
:1005600005FE00F400400028F6D1294604F12000E1
:10057000FFF719FE6D1C202DEDD90C2104F124008C
:10058000FFF711FE01250FE000BF04F12001304606
:10059000FFF7ECFD00F400400028F6D1294604F1F5
:1005A0002000FFF700FE6D1C202DEDD9211D3046E7
:1005B0000AE0000000000440001004400020044055
:1005C0006466000024000020FFF7D0FD70BD70B508
:1005D00004462046FFF7EFFD064621463046FFF76A
:1005E000C5FD40F0010529462046FFF7DCFD70BD42
:1005F00008B5182001F062FAF948FFF7E8FFF9485A
:10060000C0680090F648FFF781FF6946F448FFF79D
:1006100059FF0A21F248FFF741FFF148FFF722FF97
:10062000EF48FFF72AFE0021ED48FFF7DAFD08BD8D
:100630002DE9F04105460E46174600240FE02046FE
:10064000641C15F80080BC4204D22046641C285C5F
:1006500048EA002841463046FFF7A5FD361DBC425A
:10066000EDD3BDE8F0812DE9F04781460E461746EF
:10067000984600240FE039464846FFF777FD0546C7
:100680003F1D2046641C3554444504D2C5F307225F
:100690002046641C32544445EDD3BDE8F08770B564
:1006A00004460D462046FFF786FD064604F10C0180
:1006B0003046FFF75BFD286070BD70B504460D46FF
:1006C0002046FFF778FD06462946304600F0D3FF66
:1006D000304600F01BFF70BD70B504462046FFF7A2
:1006E0006AFD0546284600F0E0FF284601F00BF8B9
:1006F00070BD2DE9F04104460D462046FFF75BFD35
:10070000074621463846FFF731FD20EA0506314607
:100710002046FFF748FDBDE8F0812DE9F041044691
:100720000E462046FFF747FD074616B1012E18D1A9
:1007300008E004F110013846FFF718FD0546284689
:10074000BDE8F08104F5A0713846FFF70FFD85B2D2
:1007500004F5A2713846FFF709FD45EA0045284631
:10076000EEE70020ECE770B504460D462046FFF7A3
:1007700022FD0646B5F5004F04D1211D3046FFF796
:10078000F5FC1EE000BF04F180013046FFF7EEFCEF
:1007900000F400400028F6D1082104F18400FFF79E
:1007A00002FD05F03F0104F18000FFF7FCFC00BFF3
:1007B00004F180013046FFF7D9FC00F40040002826
:1007C000F6D170BD2DE9F04105460E462846FFF7EB
:1007D000F2FC074629463846FFF7C8FC044616B126
:1007E00024F0200401E044F0200421462846FFF7CD
:1007F000DAFCBDE8F08170B504462046FFF7DBFC6B
:10080000054621462846FFF7B1FC00F0200008B15C
:10081000002070BD0120FCE72DE9F04104460D46A3
:100820002046FFF7C8FC074604F108013846FFF7E9
:100830009DFC0646C6F30E00288006F4004010B169
:100840000120BDE8F0810020FBE72DE9F8430546D3
:100850000C4617460020009000262846FFF7ABFC08
:10086000814600BF05F120014846FFF77FFC00F4F8
:1008700000400028F6D14FF0B3080FB1BDE8F8836F
:100880004FF42040ADF802004FF4C076207800F01D
:100890000F0006432078C0F3001008B146F400664C
:1008A0002078C0F3801090B1A08880B2ADF800002D
:1008B000BDF802006168C1F30C410843ADF80200C5
:1008C000BDF8020040F48040ADF802000AE00020CC
:1008D000ADF80000BDF802006168C1F38C11084357
:1008E000ADF80200207800F00F0040B1207800F051
:1008F0000F0205F13C0104F10800FFF799FE4146A3
:1009000005F12400FFF74FFCBDF8001005F13000A1
:10091000FFF749FCBDF8021005F13400FFF743FC76
:10092000314605F13800FFF73EFC2068C0F3044172
:1009300005F12000FFF737FC00BF9FE72DE9F843E2
:1009400005460C4617460020009000262846FFF773
:1009500032FC81464FF077080FB148F00808414655
:1009600005F18400FFF71FFC2068C0F3044105F186
:100970008000FFF718FC00BF05F180014846FFF733
:10098000F5FB00F400400028F6D105F1900148463F
:10099000FFF7ECFB80B2ADF8000005F1940148468A
:1009A000FFF7E4FB80B2ADF8020005F1980148467C
:1009B000FFF7DCFB86B2BDF8020000F4804098B17E
:1009C000BDF80000BDF80210C1F30C0140EA01407F
:1009D0006060206820F040004030206009E00000A6
:1009E0000000044050660000BDF80200C004400B47
:1009F000606006F4004070B1206866F30300206078
:100A0000207800F00F0305F19C0204F1080148462C
:100A1000FFF729FE03E0206820F00F002060BDE80A
:100A2000F88370B504460D462046FFF7C4FB064622
:100A300000BF04F120013046FFF798FB00F40040AE
:100A40000028F6D1A02104F12400FFF7ACFB00211F
:100A500004F13000FFF7A7FB002104F13400FFF799
:100A6000A2FB05F03F0104F12000FFF79CFB70BDE5
:100A70002DE9F04104460D4680262046FFF79BFBFA
:100A8000074600BF04F120013846FFF76FFB00F472
:100A900000400028F6D1982104F12400FFF783FBE1
:100AA000314604F13800FFF77EFB05F03F0104F109
:100AB0002000FFF778FB00BF04F120013846FFF764
:100AC00055FB00F400400028F6D1BDE8F08100009D
:100AD000D8480068401C7047411ED64A11607047D4
:100AE00001460120D44A506110460160D34890600D
:100AF00000BFD148806800F002000028F9D1CE483C
:100B0000C06800F0010010B14FF0FF3070470020C6
:100B1000FCE710B503460120C74C606111E0C648F0
:100B20000160C54C18686060C448401EA06000BFEA
:100B3000C148806800F001000028F9D11B1D091D83
:100B4000121F002AEBD1BC48C06800F0010008B1B8
:100B5000501E10BD0020FCE770B50146C80AC0F366
:100B6000411389B2B348C03050F82320B44850F83C
:100B70002340B448006800F0E04030B1B14800685C
:100B8000B14D2840B0F1805F0ED1AE48006880B210
:100B900040F20125A84205D0AA48006880B26D1C29
:100BA000A84201D142F04042C80A22FA00F000F007
:100BB0000105CE0A24FA06F065F35F0030B1012882
:100BC00005D0022805D0032805D105E000BF02208A
:100BD00070BD0120FCE700BF0020F9E770B50246B8
:100BE0000D46D20AC2F3411302F01F029148C030F1
:100BF00050F82310924850F823409248006800F0C3
:100C0000E04030B18F4800688F4E3040B0F1805FD7
:100C100012D18C48006880B240F20126B04205D063
:100C20008848006880B2761CB04205D11E2A03D3E2
:100C3000022D01D1E81E70BDBDB1012D08D0022DDD
:100C400012D10120904081430120904084431BE059
:100C500021FA02F000F0010010B94FF0FF30EAE78E
:100C60000120904084430FE000BF21FA02F000F021
:100C7000010020B124FA02F000F0010010B94FF099
:100C8000FF30D8E70020D6E700BF6E48006800F0CC
:100C9000E04030B16B4800686B4E3040B0F1805F8F
:100CA00015D16848006880B240F20126B04205D0F4
:100CB0006448006880B2761CB04208D121F04041FF
:100CC0005C48C03050F8230000F0404001435948D0
:100CD000C03040F823105A4840F823400020AAE7CB
:100CE0005848006800F0E04030B156480068564B64
:100CF0001840B0F1805F01D1022000E008200246D8
:100D000000210DE04C4801604C48801D4A4B986022
:100D100000BF4948806800F008000028F9D1491C4C
:100D20009142EFDB0020704702464648006800F021
:100D3000E04030B143480068434B1840B0F1805F59
:100D400002D14FF0FF3070473E48D0F8E00110600C
:100D50003848A030406808600020F4E7024639486F
:100D6000006800F0E04030B136480068364B18406B
:100D7000B0F1805F02D14FF0FF3070472D48A030B6
:100D8000026041600020F8E72E48006800F0E04073
:100D900030B12C4800682C490840B0F1805F02D186
:100DA0004FF0FF3070474FF0004023490860234860
:100DB000801D886000BF2048806800F0080000287F
:100DC000F9D122481C4908601C48801D886000BF7A
:100DD0001948806800F008000028F9D100BFE1E759
:100DE00010B5044621462D2000F045FC2D2000F0D2
:100DF0008DFB10BD10B52D2000F085FC2D2000F0DE
:100E000054FC10BD0C49096901430B4A116170473C
:100E1000094909698143084A11617047014611B1C6
:100E20000548406970470448C068FBE702494861CB
:100E30007047000040E10F4000D00F40020042A484
:100E400000E40F4000E00F400000FF700100008050
:100E500040F82120704702F001031BB1D0F808349C
:100E60000B4302E0D0F808348B43C0F8083402F09A
:100E700002031BB1D0F804340B4302E0D0F8043471
:100E80008B43C0F8043402F004031BB1D0F80C34D7
:100E90000B4302E0D0F80C348B43C0F80C3470479D
:100EA00010B502F001041CB1D0F800450C4302E07B
:100EB000D0F800458C43C0F8004502F002041CB194
:100EC000D0F804450C4302E0D0F804458C43C0F848
:100ED000044502F004041CB1D0F808450C4302E0BC
:100EE000D0F808458C43C0F8084502F008041CB14E
:100EF000D0F818450C4302E0D0F818458C43C0F8F0
:100F0000184503F001041CB1D0F80C450C4302E075
:100F1000D0F80C458C43C0F80C4503F002041CB11A
:100F2000D0F810450C4302E0D0F810458C43C0F8CF
:100F3000104503F004041CB1D0F814450C4302E042
:100F4000D0F814458C43C0F8144503F008041CB1D4
:100F5000D0F81C450C4302E0D0F81C458C43C0F887
:100F60001C451BB9D0F828450C4302E0D0F82845B1
:100F70008C43C0F8284510BD02F001031BB1D0F826
:100F800000340B4302E0D0F800348B43C0F8003447
:100F900002F002031BB1D0F820340B4302E0D0F87A
:100FA00020348B43C0F82034704730B504460D46DA
:100FB000012229462046FFF7DFFF082304222946A5
:100FC0002046FFF76DFF30BD30B504460D460022C8
:100FD00029462046FFF7D0FF0A230422294620464F
:100FE000FFF75EFF30BD30B504460D4602222946AC
:100FF0002046FFF7C1FF0823042229462046FFF7B9
:101000004FFF30BD30B504460D460222294620462A
:10101000FFF7B2FF0A23042229462046FFF740FFCC
:1010200030BD30B504460D46022229462046FFF762
:10103000A3FF0B23042229462046FFF731FF30BDD2
:1010400030B504460D46022229462046FFF794FF9C
:101050000A23042229462046FFF722FF30BD10B59F
:101060004FF4407000F02AFD40F2013000F026FD00
:1010700040F2023000F022FD40F2033000F01EFD8D
:101080004FF4417000F01AFD40F2053000F016FDFB
:1010900040F2073000F012FD03214FF04020FFF72F
:1010A000CFFF0221FB48FFF7ADFF0C21F948FFF706
:1010B000B8FF6121F748FFF778FF1021F548FFF7E7
:1010C00083FF1021F448FFF79DFF2021F248FFF72E
:1010D0007BFF0321F148FFF786FFB021EF48FFF7C0
:1010E00064FF4021ED48FFF76FFF0F21EC48FFF749
:1010F0005CFF8021EB48FFF758FF7F21E948FFF7AD
:1011000063FF0F21E848FFF750FF0A230422202144
:10111000E148FFF7C5FE00222021DF48FFF79BFED4
:101120000A2304224021DD48FFF7BAFE00224021B5
:10113000DA48FFF790FE20221146D648FFF788FED6
:1011400010221146D548FFF783FE80221146D3486E
:10115000FFF77EFE20221146D048FFF779FE0022DD
:101160004021CC48FFF774FE08221146CC48FFF717
:101170006FFE0C221146CC48FFF76AFE00220321C5
:10118000C948FFF765FE04221146C548FFF760FE17
:1011900002221146C248FFF75BFE01221146C048F9
:1011A000FFF756FE80221146BE48FFF751FE10BDE4
:1011B0000246BE4BD01A9A4237D01DDCB84BA2EB88
:1011C00003009A423CD00DDCB2F1402F2CD0B14844
:1011D0004042104458B3B0F5805F2BD0B0F5005FAB
:1011E0003AD12AE0B0F5805F2DD0B0F5005F2DD068
:1011F000B0F5405F30D12CE0B0F5804F21D009DC54
:10120000B0F5805F14D0B0F5005F14D0B0F5405F4A
:1012100022D113E0B0F5A04F16D0B0F5C04F16D0D4
:10122000B0F5E04F18D115E000BF102117E000BF66
:10123000112114E000BF122111E000BF13210EE0C4
:1012400000BF14210BE000BF2E2108E000BF2F21BA
:1012500005E000BF302102E04FF0FF30704700BFD3
:101260000846FBE730B50246D2F80034D2F82044F5
:1012700003EA010008B1012000E0002004EA0105B2
:101280000DB1022500E00025284330BD70B50246AF
:10129000D2F80834D2F80444D2F80C5403EA01001E
:1012A00008B1012000E0002004EA01060EB1022688
:1012B00000E00026304305EA01060EB1042600E0F6
:1012C0000026304370BD2DE9F041D0F80045D0F83C
:1012D0000455D0F80865D0F8187504EA010CBCF183
:1012E000000F02D04FF0010C01E04FF0000C05EAB6
:1012F0000108B8F1000F02D04FF0020801E04FF0F2
:1013000000084CEA080C06EA0108B8F1000F02D008
:101310004FF0040801E04FF000084CEA080C07EA1F
:101320000108B8F1000F02D04FF0080801E04FF0BB
:1013300000084CEA080CC2F800C0D0F80C45D0F800
:101340001055D0F81465D0F81C7504EA010CBCF1F6
:10135000000F02D04FF0010C01E04FF0000C05EA45
:101360000108B8F1000F02D04FF0020801E04FF081
:1013700000084CEA080C06EA0108B8F1000F02D098
:101380004FF0040801E04FF000084CEA080C07EAAF
:101390000108B8F1000F02D04FF0080801E04FF04B
:1013A00000084CEA080CC3F800C0BDE8F081D0F892
:1013B00010240A43C0F810247047D0F810248A4340
:1013C000C0F810247047024611B1D2F818047047D3
:1013D000D2F81404FBE7C0F81C14704770B504463B
:1013E0000D462046FFF7E4FE06462946304600F04B
:1013F00042F9304600F08AF870BD70B504462046C8
:10140000FFF7D6FE0546284600F07DF9284600F095
:101410004CF970BD024652F82100704730B50446C1
:101420000D46002229462046FFF7A6FD0023042290
:1014300029462046FFF734FD30BD30B504460D4641
:10144000002229462046FFF797FD00230422294663
:101450002046FFF725FD30BD30B504460D4601227C
:1014600029462046FFF788FD092304222946204605
:10147000FFF716FD30BD30B504460D460222294661
:101480002046FFF779FD0823042229462046FFF76E
:1014900007FD30BD0050004000600040007000407B
:1014A00000400240005002400070024000800540B1
:1014B00030B504460D46022229462046FFF75CFD62
:1014C0000A23042229462046FFF7EAFC30BD30B546
:1014D00004460D46022229462046FFF74DFD08230B
:1014E000042229462046FFF7DBFC30BD30B5044618
:1014F0000D46022229462046FFF73EFD082304221E
:1015000029462046FFF7CCFC30BD0000042806D158
:101510009749096841F48031954A116028E005280F
:1015200006D19349096841F40031914A11601FE0E6
:10153000062806D18E49096841F480218C4A116041
:1015400016E00F2808D14FF0E021096941F00201AF
:101550004FF0E02211610BE0A0F1100101F01F0239
:1015600001219140834AA0F110035B0942F8231046
:10157000704710B50A46102818D27D4B0C3B012449
:10158000C4EB900453F824108307DC0EFF23A34020
:1015900099438307DB0E02FA03F31943744B0C3BA8
:1015A0000124C4EB900443F8241015E0724B04248A
:1015B000C4EB900453F824108307DC0EFF23A340F0
:1015C00099438307DB0E02FA03F319436A4B0424A1
:1015D000C4EB900443F8241010BD00B5A0210F20E7
:1015E000FFF7C7FFC0211520FFF7C3FFC02116205A
:1015F000FFF7BFFF60212320FFF7BBFF402127201B
:10160000FFF7B7FF80213720FFF7B3FF60211120DC
:10161000FFF7AFFFA0211220FFF7ABFF60211320DF
:10162000FFF7A7FF0F20FFF771FF1520FFF76EFFF1
:101630001620FFF76BFF2320FFF768FF2720FFF737
:1016400065FF3720FFF762FF1120FFF75FFF1220D1
:10165000FFF75CFF1320FFF759FF1E20FFF756FF2F
:1016600000BD10B500F074FFC0B210BD10B500F0A1
:101670006BFFC0B210BD10B502463D4B1C3B1B6852
:101680003E4CA3420DD0002005E083001B683B4C7C
:1016900044F82030401C4028F7D3384B344C1C3CD5
:1016A0002360364B43F8221010BD3549334A42F8C7
:1016B000201070474FF4E06121EA002031490143D6
:1016C0002B4A183A11607047294918390868490DA2
:1016D00021EA102070470146102907D224480C380F
:1016E0000123C3EB910350F8232005E02248042393
:1016F000C3EB910350F8232001F00301C90022FA43
:1017000001F0C0B27047042806D11949096821F4D4
:101710008031174A116029E0052806D1144909686B
:1017200021F40031124A116020E0062806D1104948
:10173000096821F480210E4A116017E00F2808D1B2
:101740004FF0E021096921F002014FF0E022116120
:101750000CE0A0F1100101F01F0201219140054AA7
:101760008032A0F110035B0942F82310704700009B
:1017700024ED00E000E100E000E400E000010020D2
:10178000E92500000000FA0530B5F948046E026F43
:1017900002F0004010B102F0700001E004F03000EF
:1017A00020281FD003DC38B1102831D10AE03028BE
:1017B00028D070282CD128E0EE48C4F3841550F8C6
:1017C000251027E0EA48006800F0E04030B1E84822
:1017D0000068E94D2840B0F1805F01D1E74900E0A1
:1017E000E74917E0E248006800F0E04030B1E04827
:1017F0000068E14D2840B0F1805F01D1E14900E08F
:10180000E14907E047F2305104E04FF4004101E0C4
:10181000002030BD00BF02F0004010B102F40060B3
:1018200028B102F0004050BB04F4006038BBD0483F
:10183000436E006800F0E04030B1CD480068CE4D06
:101840002840B0F1805F09D1C3F34810801C4843A1
:1018500003F01F05AD1CB0FBF5F108E0C3F3481021
:10186000484303F01F056D1C6D00B0FBF5F103F458
:10187000804000B1490803F4004000B1890804F435
:10188000800068B102F0004028B1C2F3C550401C8E
:10189000B1FBF0F104E0C4F3C350401CB1FBF0F124
:1018A0000846B6E72DE9F0410646B148006800F069
:1018B000E04030B1AE480068AF490840B0F1805F09
:1018C00004D106F0004008B1BDE8F081AF480660E1
:1018D000A748046E056F44F4006424F4800445F4C2
:1018E000006504661020FEF73DFC44F40054A04857
:1018F0000466056704F0020010B106F0020028B18A
:1019000004F0010010B306F00100F8B966F003001E
:1019100004409748046605F0004038B105F07000B7
:1019200030280AD005F07000702806D005F000407D
:1019300040B904F03000302804D14FF48050FEF755
:1019400011FC03E04FF40020FEF70CFC43F2F070B2
:101950008443014606EA010004438D4805408D4951
:1019600006EA0100054306F0080045EAC0054020EC
:101970007F49886505F0004018B108460567046690
:1019800002E07B48046605671020FEF7EBFB824807
:101990000440C14306EA0100044325F0FC5506F06B
:1019A000FC50054306F4006080B94FF4004706E0A0
:1019B0006F48006D00F0400000B102E07F1E002F74
:1019C000F6D100BF24F4006425F40065684804667D
:1019D00005671020FEF7C6FB00BF75E76449486342
:1019E000704710B56248006880B2022802D11B20FF
:1019F000FFF7F4FF6948FFF755FFFFF7C5FE684999
:101A0000086010BD5A488068000C000200F5807024
:101A10007047574880680004400900F5006070472F
:101A2000014653480C30C1F30322521C50F82220C7
:101A30000120884002400AB1012070470020FCE7E5
:101A400010B54B4A4032C0F30323032B02D2C0F33C
:101A5000032300E0022352F82320012383401A438A
:101A6000434B4033C0F30324032C02D2C0F30324BE
:101A700000E0022443F82420002100E0491C102942
:101A8000FCD33B4A4032C0F30323032B02D2C0F302
:101A9000032300E0022352F823300122824023EA8C
:101AA0000202334B4033C0F30324032C02D2C0F3B1
:101AB000032400E0022443F8242010BD3949C0F378
:101AC0000322032A02D2C0F3032200E0022251F8CB
:101AD0002210012282401143324AC0F30323032B18
:101AE00002D2C0F3032300E0022342F82310704720
:101AF0002C49C0F30322032A02D2C0F3032200E0E0
:101B0000022251F82210012282409143254AC0F35B
:101B10000323032B02D2C0F3032300E0022342F885
:101B2000231070471F491031C0F30322032A02D249
:101B3000C0F3032200E0022251F822100122824069
:101B40001143184A1032C0F30323032B02D2C0F30F
:101B5000032300E0022342F823107047114910319B
:101B6000C0F30322032A1FD2C0F303221DE00000AA
:101B700000E00F40886600000000FF70C0E1E40054
:101B8000001BB70070383900C0C62D001C000020B3
:101B90008FDFFF7F30200080FCFF3FF88203C0030F
:101BA0002800002000E10F40022251F822100122FB
:101BB00082409143914AC0F30323032B02D2C0F326
:101BC000032300E0022342F8231070478B491031B1
:101BD000C0F30322032A02D2C0F3032200E0022250
:101BE00051F82210012282401143844A1032C0F37E
:101BF0000323032B02D2C0F3032300E0022342F8A5
:101C0000231070477D491031C0F30322032A02D20A
:101C1000C0F3032200E0022251F822100122824088
:101C20009143764A1032C0F30323032B02D2C0F350
:101C3000032300E0022342F82310704730B17049BB
:101C4000096E41F000616E4A116605E06C49096E4B
:101C500021F000616A4A1166704710B504462146BA
:101C60002C20FFF708FD2C20FFF750FC10BD10B50D
:101C70002C20FFF748FD2C20FFF717FD10BD604911
:101C8000496D01435E4A516570475D49496D814325
:101C90005B4A516570475A4988657047014611B1E2
:101CA0005748806D70475648006DFBE75448406BBD
:101CB000704752495031086070475248524909688C
:101CC000086000BFFEE710B500F046FC10BD10B57F
:101CD0004D49091D0868016841F00401016000F0E8
:101CE0003BFC4949091D0868016821F004010160B5
:101CF00010BD4348C06D70474149C96D8143404A9A
:101D0000D165704740EA81023D4B1A6370473C49F8
:101D1000096E21F4F0110143394A116670473848C1
:101D2000006E00F4801008B9002070473448006E3F
:101D300000F4F010F9E731491039096821F47061B5
:101D400001432F4AC2F800112C49096821F470613F
:101D50000143C2F8101129491031096821F470615A
:101D60000143C2F82011704724481038006800F47D
:101D70007060704730B12249096E41F00801204A75
:101D8000116605E01E49096E21F008011C4A116622
:101D9000704730B11A49096E41F00401184A1166C2
:101DA00005E01749096E21F00401154A11667047D4
:101DB00030B11349096E41F48061114A116605E0A2
:101DC0000F49096E21F480610D4A116670470120A8
:101DD0000A494031086000200949C1F850017047A4
:101DE0000749C96E82B21143054AD166704704495A
:101DF000C96E82B29143024AD166704710E10F402A
:101E000000E00F400400FA050CED00E04FF0E02088
:101E1000006940F002004FF0E021086170474FF088
:101E2000E020006940F005004FF0E02108617047B4
:101E3000411E4FF0E0225161704700B52348006811
:101E40002349B0FBF1F04FF47A7100FB01F318461F
:101E5000FFF7EEFFFFF7E3FFFFF7D8FF00BD4FF0FE
:101E6000E020006920F001004FF0E0210861704798
:101E700010B5044621460F20FFF7FDFB4FF0E02090
:101E8000006940F002004FF0E021086110BD10B57C
:101E90004FF0E020006920F002004FF0E0210861DF
:101EA0000F20FFF702FC10BD4FF0E020006920F08A
:101EB00002004FF0E021086170474FF0E0204069D8
:101EC000401C70474FF0E0208069704728000020D8
:101ED00040420F00826B0A438263704741EA02036B
:101EE00043637047C16A41F01001C162016B40F267
:101EF000013211430163704700BF816901F008019D
:101F00000029FAD1C16A21F01001C162016B40F2CF
:101F10000132914301637047F0B504460D46164601
:101F20002046FFF7E9FFE800B0FBF6F0401C470849
:101F3000B809606207F03F00A062D8B2E0620020FA
:101F4000A0612046FFF7CEFFF0BD38B504467948C2
:101F500050F82450784850F82400C0F302607749C4
:101F6000085C0090744850F82400810C009861F3DC
:101F700046100090704850F82400810D009861F3DD
:101F8000C30000906C4850F82400C0F311026C4864
:101F9000009B01682846FFF7BFFF2022002128464A
:101FA000FFF79CFF70212846FFF794FF38BD10B55E
:101FB0004FF48070FFF782FD5F4862490968016055
:101FC0000020FFF7C2FF10BDC26A22F086020A435A
:101FD000C26270470146C86A00F08600704710B5BB
:101FE000436B03F007040C6003F03804146010BD69
:101FF000F0B5446A856A8E00402707FB0457B6FB9C
:10200000F7F61660C66A06F0EE061E60F0BD21B156
:10201000026B42F00602026303E0026B42F002022E
:1020200002637047016B21F00601016370470146AE
:102030008869012222EA101070470146886901224E
:1020400022EA501070470146886900F0100008B974
:10205000086870474FF0FF30FBE70146086870479B
:102060000246906900F0200010B91160012070470D
:102070000020FCE700BF826902F02002002AFAD1AA
:102080000160704719B1C26A42F0010202E0C26AFF
:1020900022F00102C262704701468869C0F3C000A5
:1020A000704770B504460D462748844201D115207B
:1020B00005E02648844201D1162000E03120064682
:1020C00029463046FFF7D7FA3046FFF71FFA70BDB2
:1020D00070B504461C48844201D1152005E01B4818
:1020E000844201D1162000E0312005462846FFF742
:1020F0000AFB2846FFF7D9FA70BD826B8A438263D8
:102100007047024609B1106C7047D06BFCE7416420
:102110007047826C0A4382647047826C8A4382648F
:1021200070470146486800F00F0070470021416089
:10213000704700002C67000064000020E466000087
:1021400028000020EC66000000C0004000D00040E5
:102150004FF08040806840F001004FF0804188607F
:1021600070474548006840F48070434908607047F4
:102170004FF08040806840F002004FF0804188605E
:1021800070474FF080410860704701208107C860A8
:1021900070473A483A490860704710B50320FFF786
:1021A0008DFCFFF7F6FFFFF7F0FF364800684FF4AD
:1021B0007A71B0FBF1F000FB01F21046FFF7E1FF8E
:1021C000FFF7D6FFFFF7CDFFFFF7C2FF10BD4FF0BF
:1021D00080400068704700B5FFF7F9FF0246FFF73F
:1021E000D0FF00BD4FF08040806800F001007047D4
:1021F0004FF08040806820F002004FF080418860FE
:10220000704701201E49086070471D48006801287A
:1022100000D170470020FCE74FF0804040687047D5
:1022200010B5044621462220FFF725FA2220FFF7A9
:102230006DF910BD10B52220FFF765FA2220FFF7D7
:1022400034FA10BD4FF08040806840F001004FF03C
:10225000804188607047014619B14FF08040406965
:1022600070474FF080400069FAE70348006820F4A7
:1022700080700149086070471804004051E5CC1A8D
:10228000000C00402800002001218140AC4A9162EE
:102290007047AB490968012282401143A84A116086
:1022A000704701218140A64AD16011468968012208
:1022B00082401143A24A916070470021400801E02A
:1022C000491C40080028FBD19D4A1163704710B596
:1022D00089009B4B403303EB40131B680F248C4059
:1022E000A34302F00F048C402343954C403404EB8D
:1022F00040142360924B403303EB40135C680F2380
:102300008B4024EA0303C2F303148C4023438C4C18
:10231000403404EB4014636010BD10B58000884B5E
:102320005B690F248440A34301F00F0484402343DE
:10233000834C636123461B6A0F248440A34302F04D
:102340000304844023437E4C236210BD7C4909680A
:102350000122824091437A4A1160704710B51020E3
:10236000FFF7ACFB0020FFF7E6FC0020FFF7EEFFD5
:10237000002211461046FFF7D0FF602200210846D8
:10238000FFF7A5FF4020FFF798FF0020FFF789FF28
:102390000020FFF77EFF0020FFF776FF10BD70B52D
:1023A00004460D4604F11E0629463046FFF763F940
:1023B0003046FFF7ABF870BD70B5044604F11E055A
:1023C0002846FFF7A0F92846FFF76FF970BD5C4972
:1023D0008968012282409143594A916070470246C0
:1023E00029B15748C06801239340184070475448AA
:1023F0004068012393401840F8E701218140504A8A
:10240000D160704701464E48006901228A40104061
:102410007047012181404A4A11617047014648488E
:10242000806901228A401040704701218140444A5E
:10243000916170470246002006E0414B403303EBB8
:1024400042139B6808C1401C3D4B403303EB4213D1
:10245000DB6803F480730BB90828EED370470229B8
:1024600003D10122374B1A540BE0042903D1022275
:10247000344B1A5405E0082903D110B90322314B1B
:102480001A54704710B52F4B1C5C0423A3405943CA
:102490002C4B1C5C012303FA04F032E0284B403340
:1024A00003EB40131B680F248C40A34302F00F047E
:1024B0008C401C43224B403303EB40131C60204BE9
:1024C000403303EB40135B680F248C40A343C2F3FB
:1024D00003148C4023431A4C403404EB40146360D3
:1024E00001280CD0164B403303EB40135B680624E5
:1024F0008C40A343124C403404EB40146360091D2C
:10250000401E0028CAD110BD70B514E000240D4D46
:102510002E5C012505FA06F306E0094D403505EB72
:102520004015AD682C445B1E002BF6D1054D2D5C8B
:1025300024FA05F520C1151EA2F10102E6D170BDF5
:102540000080034010000020EFF3108072B6704747
:10255000EFF3108062B6704730BF70471F48FDF739
:1025600001FEFFF783F8FFF73CFAFEF778FD1C4801
:10257000FDF7F8FDFFF761FC02F0E6F9FFF717FD44
:10258000FFF7ECFE00F009FDFEF732F8FFF725F843
:10259000FFF767F859201349087002F07DFA00BF71
:1025A00002F079F900F0E6FF01F03CF800F072FD6E
:1025B00001F072F801F01DFE01F09AFE02F04EF8F3
:1025C00001F00CFF02F095FA02F075F801F032FF0D
:1025D00001F084FF01F0E2FFE2E7000008AF2F0006
:1025E00068890900B900002000BFFEE710B5FFF7B9
:1025F000CCFD10BDFE480068401CFD490860FD4848
:102600000068401CFB490860FB48008820B1FA487C
:102610000088401EF8490880F848007820B1F74843
:102620000078401EF5490870F148006800F0070086
:1026300020B9F3480078401CF1490870704710B584
:102640000020FFF7DAFEEF490020FFF7F3FEED4828
:102650000088ED49098860F30901EB480180008892
:1026600020F4806000F58060E74908800846008813
:1026700020F40060088010BD2DE9F0410121E348FD
:10268000FFF73FFD05462946E048FFF740FD05F00E
:102690002000D0B1D6480068DD490880DD480078C8
:1026A000542801D0BDE8F081DB480088DB49098867
:1026B000884205D0002001F0BDF9012805D1F1E7DD
:1026C0000020D4490870D649088005F05000002841
:1026D00031D0102728E0CD48FFF7BFFCC4B20D2C45
:1026E00003D0202C1BDD7E2C19DCCE480088401C3A
:1026F00086B2B6F5007F00DB0026CB480088864214
:1027000000D111E0C948C74909884454C54806802A
:102710000D2C04D1C6480088401CC5490880781E8D
:10272000C7B207B905E000BFB848FFF780FC002832
:10273000D1D100BF00BF00BFB4E72DE9F0410121B6
:10274000BC48FFF7DEFC05462946BA48FFF7DFFC28
:1027500005F02000D0B1A6480068B7490880B74806
:102760000078542801D0BDE8F081B5480088B5490B
:102770000988884205D0012001F05CF9012805D1C3
:10278000F1E70020AD490870AF49088005F050001E
:10279000002831D0102728E0A648FFF75EFCC4B21D
:1027A0000D2C03D0202C1BDD7E2C19DCA7480088C3
:1027B000401C86B2B6F5007F00DB0026A4480088E6
:1027C000864200D111E0A348A049098844549F489B
:1027D00006800D2C04D1A0480088401C9E4908802A
:1027E000781EC7B207B905E000BF9248FFF71FFC8B
:1027F0000028D1D100BF00BF00BFB4E70120974936
:10280000486270474FF48070944948624FF6FF70F9
:10281000C8620846C06820F48070C8607047012014
:102820008F4948624EF6602088620846C06840F0D2
:102830000100C8600846C06820F00100C860704709
:102840004FF48070864948624FF6FF70C8620846B0
:10285000C06840F48070C8607047012081494862B8
:102860004FF6FF7088620846C06840F00100C860FB
:1028700070474FF480707B4948621320C86209207A
:1028800048630846C06840F48070C8607047764965
:102890000968C8B27449091D08607047734909681E
:1028A000C8B27249091D086000F0200111B36F49D8
:1028B0000839096821F020016C4A083A1160504932
:1028C00009786B4A117001216A4A11606A490968E6
:1028D00031B10021684A11600121684A116005E0A8
:1028E0000121654A11600021644A11604449097858
:1028F000634A1170704770B562480068C4B261489D
:10290000001D046004F0400000286FD00025384806
:1029100000685D490880002210215C48FEF798FAA3
:10292000002220215A48FEF793FA1E2001F0D8FF1A
:102930000546FF2001F0D4FF56490870FF2001F042
:10294000CFFF544948705E2001F0CAFF514988709A
:10295000087801F0C5FF05464E49487801F0C0FFF0
:1029600005464C49887801F0BBFF054620221146F8
:102970004748FEF76DFA4748007800F0800000B93C
:1029800070BD002210214148FEF762FA002220218A
:102990003F48FEF75DFA162001F0A2FF0546FF2032
:1029A00001F09EFF3C490870FF2001F099FF3A4971
:1029B0004870182001F094FF37498870FF2001F01B
:1029C0008FFF36490870FF2001F08AFF33494870B5
:1029D000142001F085FF31498870FF2001F080FF4D
:1029E0002F490870FF2001F07BFF5BE06FE00000E3
:1029F0002C000020300000204E0000205900002054
:102A000034000020000200201400002000C000401C
:102A10009C0000208F0000209600002098000020DD
:102A20009A0000209000002092000020BC0A0020A4
:102A30009400002000D00040AC0000209E00002048
:102A4000A6000020A8000020AA000020A00000206E
:102A5000A2000020BC0E0020A400002000000340C3
:102A60000010034000200340185400401864004048
:102A70003B000020DC000022980000229C00002285
:102A80005800002018740040F00000200070004042
:102A900000500040D0000020C3000020C0000020F3
:102AA000BD00002056494870FE2001F019FF54492E
:102AB0008870202211465348FEF7CAF95248007820
:102AC000592800D05CE759205049087000BF00BF6A
:102AD00056E74F490968C8B24D49091D086070475B
:102AE00070B500214B48FDF718FE044604B970BDCF
:102AF000B4F5004F0AD100214648FDF772FB464964
:102B0000087046494348FDF787FEF0E70D2C04D9CD
:102B100000214048FDF765FBE9E7002040490860D7
:102B20003D4908703D490880601E00EB40003D496A
:102B300011F82000C0F3401000284ED03A48002180
:102B400001604160006864F3144037490860012265
:102B50003048FDF7F3FE012C02D0022C1CD100E01E
:102B600000BF32480078401C31490978884212D0B1
:102B700030482E49097800EB01102B4D2ECD2EC088
:102B80002A480078401C29490870084600783228F5
:102B900001DB002008701FE027480078401C27490F
:102BA0000978884217D026482349097800EB01119B
:102BB0001D4DD5E901032A68ED680E1D29C60A607E
:102BC0001D480078401C1C490870084600781428ED
:102BD00001DB0020087000BF0FE0032C07D10020AC
:102BE00018490870184800681849088000E000BFBC
:102BF00000BF21460748FDF7B6FD00BF77E700009C
:102C0000BD00002000500040B9000020BA000020A4
:102C10001854024000000440700000206C000020A6
:102C2000E000002264660000840200207B00002097
:102C30007C000020B40200208C0000208D000020C9
:102C4000F4080020770000202C000020480000201D
:102C50002DE9F0473025ED1C4FF6FC7005400020B3
:102C6000EE490870002435E0DFF8B49304FB0599C1
:102C700099F800A0BAF1590F0BD130224946E94822
:102C800002F0A4F9601CE54908704520E6490855A2
:102C90001EE0BAF1FF0F03D04E20E349085517E0BC
:102CA0004220E149085500260BE0D9F80000401CFD
:102CB00018B14E20DC49085509E009F10409701CDF
:102CC00086B2E91705EB9171B6EBA10FEDDB00BF02
:102CD000601C84B2142CC7D3D0480078002847D099
:102CE000D049886802F0A0FB0746D04AD04B02F0DA
:102CF000AFFB03D24FF07E50CA498860C949C8680B
:102D000002F092FB0746C94AC94B02F0A1FB03D26D
:102D10004FF07E50C349C860C249086902F084FB85
:102D20000746C24AC24B02F093FB03D24FF07E50DB
:102D3000BC490861BB49486902F076FB0746BB4ABB
:102D4000BB4B02F085FB03D24FF07E50B549486182
:102D5000B449886902F068FB0746B44AB44B02F0F4
:102D600077FB03D24FF07E50AE498861BDE8F08713
:102D70005920AC490880012048800221A94881805F
:102D80000321C1804FF07E50A6498860C860086169
:102D900048618861002606E0A348805D422800D192
:102DA000E4E7701C86B2142EF6D34FF47C40FDF796
:102DB00097FE00BFDAE7F8B5002000903025ED1C43
:102DC0004FF6FC700540002406E09748005D42285D
:102DD00000D103E0601CC4B2142CF6D300BF142C45
:102DE00010D14FF47C40FDF77BFE002404E042202C
:102DF0008D490855601CC4B2142CF8D300208749B3
:102E0000087000248548007880B1854E834800789A
:102E1000401E00FB0566042231466846FDF779FE38
:102E20004E217E480078401E7F4A11547D4F7C4ED3
:102E300004FB056645207C490855601C77490870ED
:102E40002A4631463846FDF764FEF8BD70B540F2BB
:102E50000630FEF733FE4FF4FA70FDF783F90022D7
:102E6000FF217448FEF788F80C230422FF217148E3
:102E7000FEF716F84FF4FA70FDF774F900BFFF2162
:102E80006C48FEF7C7FAC4B241F28830FDF76AF920
:102E9000FF216848FEF7BEFAC5B2AC42EFD100BFD1
:102EA00000BFFF2C01D0601CC4B2634804700A202C
:102EB00094FBF0F100FB1140604988700A2094FBFC
:102EC000F0F0C4B20A2094FBF0F100FB11405B4922
:102ED00048700A2094FBF0F0C4B20A2094FBF0F191
:102EE00000FB1140554908701CB940F20630FEF74E
:102EF000FFFD70BD2DE9F04107460C4615464FF029
:102F00000008022D03DA00202070BDE8F081681E61
:102F1000C5B24FF0000808E03878202800D006E05D
:102F20007F1C08F1010000F0FF08A845F4DB00BF9A
:102F3000A8450BD1002604E020202070641C701CE2
:102F4000C6B2AE42F8DB00202070DEE7384602F061
:102F500061F8C6B2B046AE4208DA04E02020207024
:102F6000641C701CC6B2AE42F8DB4546681E385C75
:102F70002E2804D120202070641C681EC5B20026B3
:102F800005E0387820707F1C641C701CC6B2AE420D
:102F9000F7DB0020207000BFB7E710B5FFF756FF42
:102FA000FFF756FE0020264908602649087026488B
:102FB00026490860264827490860274800682749AD
:102FC00008800020264908601B4800780A2190FBF1
:102FD000F1F201FB120023490870084600782249EB
:102FE00008702248008820F4006000F500601F4946
:102FF00008801F481F4908601F4820490860204872
:1030000020490860204800210160416001810020C2
:103010001E49087030201E49087010BD1B0000209A
:1030200000FC000034020020200200209A999999A7
:103030009999C93F0060024024000020250000202B
:103040000000002270000020B40200208000002058
:10305000D4050020880000202C0000204C00002017
:10306000E0000022790000207A00002014000020F7
:1030700000002040E000002000004040DC00002074
:103080000000A040E4000020BC120020B700002097
:10309000FA000020F748007860B1F7480068F74967
:1030A0000988401A80B241F28831884202DB002050
:1030B000F049087070477047F1480078401CF049AB
:1030C000087008460078322805DB00200870ED48BB
:1030D000ED49086004E0EC4800681030EA490860F7
:1030E0007047F0B505460B461446E848006800B145
:1030F000F0BD082B00DD0823E3480068DFF890C32B
:103100009CE8C210A0E8C210E2480178DE480068DE
:10311000406861F30F20DC4909684860DA480068BC
:10312000406865F31A40D849096848609BB1D648A1
:103130000068006863F30300D3490968086000224F
:1031400007E02178D048006808308154641C501C86
:10315000C2B29A42F5DBFFF7AFFF00BFC8E701201C
:10316000CD4908607047CD480068007A332807D100
:10317000CB480068012810D00120C94908600CE044
:10318000C6480068007A312806D1C548006820B1D9
:103190000020C349086000E0704700BFFCE702461A
:1031A000002113E02AB90020BE4B1870BE4B1870E6
:1031B0000EE0BE4830F81100904205D1B9480270C7
:1031C000481CB94B187003E0481CC1B20329E9DB65
:1031D00000BF032901D1002070470120FCE770B532
:1031E0000025AE480068057AAC480068447A032C94
:1031F00000DD70BDAE48047008221146AD48FDF7F1
:1032000027FE0C221146AC48FDF722FE00220321C6
:10321000A948FDF71DFE04221146A648FDF718FE39
:1032200002221146A348FDF713FE01221146A148D0
:10323000FDF70EFE2846FFF7B2FF08B105B12CB925
:1032400000209E49087001F016FCD2E798480078EB
:10325000012805D1012203219748FDF7F9FD12E06D
:1032600093480078022805D1022203219248FDF7F5
:10327000EFFD08E08E480078032804D103221146B0
:103280008D48FDF7E5FD88480078012824D100220B
:1032900008218848FDF7DCFD8948007830280FD0E8
:1032A000874800783B280BD085480078312807D024
:1032B00083480078332803D081480078362805D128
:1032C000042211467B48FDF7C3FD56E0002204218D
:1032D0007848FDF7BDFD50E073480078022824D1FE
:1032E000002204217448FDF7B3FD754800783028AA
:1032F0000FD0734800783B280BD0714800783128F4
:1033000007D06F480078332803D06D4800783628FE
:1033100005D1022211466748FDF79AFD2DE00022F3
:1033200002216448FDF794FD27E05F4800780328F8
:1033300023D1002208216048FDF78AFD604800780B
:1033400030280FD05E4800783B280BD05C480078CE
:10335000312807D05A480078332803D058480078DD
:10336000362805D1012211465248FDF771FD04E0CF
:10337000002201214F48FDF76BFD59204F4908708D
:1033800001F08AFB00BF34E7444A1268107A434ACE
:103390001268517A08B1032800DD704709B1FF298E
:1033A00000DDFAE7421ED0B2404A32F810208A42CD
:1033B00000D1F2E73D4A22F8101000BFEDE72DE9F9
:1033C000F0410446022C01DDBDE8F081334800687D
:1033D0008568D4B93548801E8168284601F079FE99
:1033E0000546284602F020F80646364A364B02F0DB
:1033F0002FF805D34FF08041284602F067F800D23D
:10340000E2E72A48801E856062E0012C19D1274836
:10341000801EC168284601F05CFE0546284602F081
:1034200003F80646274A284B02F012F804D3A107F6
:10343000284602F04BF800D2C6E71C48801EC56043
:1034400046E0022C44D11948801E0169284601F04B
:1034500040FE0546284601F0E7FF0646194A1A4B8A
:1034600001F0F6FF04D36107284602F02FF82DD2B1
:10347000AAE70000770000202C0000204800002070
:1034800084000020D405002088000020E0000022F5
:10349000FC66000024000020C00000228000002004
:1034A00000000022F2000020F3000020360200207D
:1034B000F40000200040024000700240B9000020EB
:1034C000FA0000209A9999999999C93F8448056111
:1034D00000BF79E730B583480078012816D1002471
:1034E00007E08148055D05B905E080480555601C89
:1034F000C4B20A2CF5DB00BF0CB10A2C00D130BDE0
:103500007A4A21460320FFF7ECFD00BF00BFF6E733
:1035100010B5FFF750FC10BD10B575480068047A6F
:10352000302C05DB3B2C03DC72480078A04200D134
:1035300010BD71480068C8B9042211466F48FDF7F4
:1035400087FC022211466D48FDF782FC01221146DC
:103550006A48FDF77DFC302C05D03B2C03D0302091
:103560006449087004E06348047001E06148047035
:1035700000BFDDE710B562480078624909788842EB
:1035800000D110BD60480068604908800120604992
:103590000860574800684068C0F30A400B2829D2E9
:1035A000DFE800F006090C0F12161A1E2124250070
:1035B000FFF7D5FD1FE0FFF7D6FD1CE0FFF7E4FEA7
:1035C00019E0FFF70CFE16E00020FFF7F8FE12E00E
:1035D0000120FFF7F4FE0EE00220FFF7F0FE0AE004
:1035E000FFF778FF07E0FFF793FF04E003E0FFF742
:1035F00093FF00E000BF00BF42480078401C4149F3
:10360000087008460078322805DB00200870414821
:103610003749086004E036480068103034490860D3
:1036200000BFAEE710B53C4800783C4909788842B5
:1036300000D110BD3A48007800B1FAE7344800687C
:1036400000B9F6E73748007828B136480078401EC0
:1036500034490870EDE73448007832490870532047
:103660002F490870284800683049088030482B4AA4
:10367000127800EB021100222E48FDF7E6F82748E9
:103680000078401C2549087008460078322801DB84
:103690000020087000BFCCE710B52748007800F084
:1036A000E00048B91848006818490988401A80B2F3
:1036B00042F6E061884212DD134800681349088031
:1036C00000201D49087001201C4908600020144991
:1036D00008701B4908701B490870FCF789FF10BD72
:1036E0003402002024000020F46600002A13002089
:1036F00080000020FA00002000000022004002406C
:103700007B0000207C0000202C0000204C000020CA
:10371000C0000022B40200208400002085000020A8
:10372000770000207A000020790000204800002067
:10373000D40500200000044070000020E0000022BA
:1037400076000020740000204FF0005445202060D7
:103750006060FE480078A060FDF788FF0F20FDF74D
:10376000D2FF1520FDF7CFFF1620FDF7CCFF232059
:10377000FDF7C9FF2420FDF7C6FF2520FDF7C3FF95
:103780002620FDF7C0FF2720FDF7BDFF3720FDF7FE
:10379000BAFF1120FDF7B7FF1220FDF7B4FF2E206E
:1037A000FDF7B1FF00BFFEE7E94880680088E84AFE
:1037B00052681288904201D100207047E4480068A6
:1037C000E34A92681288815C0020E14A1268E04B6B
:1037D0009B681B88D054DE4880680088401CDC4A07
:1037E00092681080DA4880680088D94A92899042AD
:1037F00003DB0020D64A926810800846DDE7D549F1
:103800000968D44A526812888854D249496809889C
:10381000491CD04A52681180CE4949680988CD4A6E
:10382000928A914203DB0021CA4A52681180704794
:103830002DE9F04107460C461546012F01DDBDE894
:10384000F08107EB4700C44A02EBC0011822C148CF
:1038500001F0BCFB4DB100BF14F8010BFFF7CFFF27
:10386000681EC5B2002DF7D1E9E700BF2678641CB9
:103870000EB1FF2E00D10D263046FFF7C0FF0D2EF2
:10388000F4D100BFDBE7F0B50246B44850F822108F
:103890000F46B34810F81260B248855C00231BE065
:1038A000B14C00BF207891F800C0604502D0791972
:1038B0000F460EE008780D2806D00878DFF8ACC275
:1038C0001CF802C0604501D11846F0BD641C491CBB
:1038D000E8E700BF581CC3B2B342E1DB4FF6FF700C
:1038E000F3E7F0B507460E46052E01DB0020F0BDDC
:1038F000012F01DD0020FAE79D4800EB071C9448EA
:103900009CE80E10A0E80E10002523E0FFF74CFF06
:1039100004460D2C07D1002006EB86018B4A02EBF2
:1039200081014855E3E71F2C12DD7F2C10DA06EBEE
:103930008600864901EB800044552C2C08D10020DC
:1039400006EB8601814A02EB810148550120CEE752
:10395000681CC5B2132DD9DB002006EB86017B4A1B
:1039600002EB8101485500BFFFF71EFF04460CB172
:103970000D2CF9D1FF20BAE7F0B50646012E00DD87
:10398000F0BD7B4800EB061771488ECF8EC0002536
:1039900018E0FFF709FF04467E2C00DD10E07248B6
:1039A00044550D2C06D10D206F494855002067491C
:1039B0000870E5E76D48805DA04200D113E000BFCC
:1039C000681CC5B2092DE4DB00206749485500BFDB
:1039D000FFF7EAFE04460D2C00D1D1E73A2CF7D1CF
:1039E00000BF00BF00BF00210846FFF77AFF00B903
:1039F000C6E701210020FFF774FF30B100BFFFF7D9
:103A0000D3FE04460D2CFAD1BAE700BFB8E770B573
:103A10000446012C00DD70BD554901EB04164C49EC
:103A20006CCE6CC100BFFFF7BFFE08B10D28FAD104
:103A300000BFF0E72DE9F04104460026012C02DD2D
:103A40000020BDE8F0814B4850F8247075E004EB8D
:103A50004400414901EBC0008068008804EB440148
:103A60003D4A02EBC10149680988884208D100201B
:103A700004EB440102EBC101C968088000265EE046
:103A800004EB4400344951F8300004EB4401324A5D
:103A900002EBC10189680988455C002004EB440100
:103AA00052F8311004EB44022B4B03EBC202926834
:103AB0001288885404EB4400194601EBC00080686A
:103AC0000088401C04EB44011A4602EBC1018968DE
:103AD000088004EB4400114601EBC00080680088B8
:103AE00004EB440102EBC101898A884206DB002015
:103AF00004EB440102EBC101896808800D2D14D14B
:103B000004EB4400144901EBC000C0680088401E6B
:103B100004EB4401104A02EBC101C9680880294640
:103B20003846FEF7A7FA002609E0202D05DB701CB9
:103B3000C6B229463846FEF79DFA0C2E87DB00BF39
:103B40000D4800680D490880E6B919E0C61200204A
:103B5000340A0020440A0020986800006C680000C5
:103B60006468000074680000BC12002068680000EF
:103B7000786800002C6700002C000020AC000020BA
:103B800000205EE701205CE7FE490978432903D164
:103B9000FD490978592900D07047FA4949782F29F9
:103BA00001DD012100E000213A2922DAF549897876
:103BB0002F2901DD012100E000213A2919DAF1491C
:103BC000897801F00F01EF4A527802F00F0202EB00
:103BD000820201EB4201C8B2EC490978884200D068
:103BE000DAE7E84900220A604A600A815921E84A76
:103BF000117000BFD0E7E3490978512903D1E249A8
:103C00000978592900D07047DE4949782F2901DD0C
:103C1000012100E000213A2922DADA4989782F29A6
:103C200001DD012100E000213A2919DAD54989781E
:103C300001F00F01D34A527802F00F0202EB820228
:103C400001EB4201C8B2D1490978884200D0DAE7D5
:103C5000CC4900220A604A600A815921CD4A11707C
:103C600000BFD0E7CC480078332807D1CB480068A4
:103C700001280FD00120C94908600BE0C648007830
:103C8000312806D1C548006820B10020C34908602A
:103C900000E0704700BFFCE70246002113E02AB9AC
:103CA0000020BF4B1870BF4B18700EE0BE4830F8B4
:103CB0001100904205D1BA480270481CB94B1870E7
:103CC00003E0481CC1B20329E9DB00BF032901D18D
:103CD000002070470120FCE770B50025AE48407811
:103CE00000F00F00AC49097801F00F0101EB8101F0
:103CF00000EB4100C5B2A848807800F00F04032C07
:103D000003DC2846FFF7C8FF00B970BDA748047060
:103D100008221146A648FDF79BF80C221146A5483B
:103D2000FDF796F800220321A248FDF791F804223E
:103D300011469F48FDF78CF8022211469C48FDF77A
:103D400087F8012211469A48FDF782F805B12CB98F
:103D500000208D49087000F08EFED6E79348007869
:103D6000012805D1012203219248FDF771F812E0E4
:103D70008E480078022805D1022203218D48FDF7E4
:103D800067F808E089480078032804D10322114627
:103D90008848FDF75DF883480078012824D1002287
:103DA00008218348FDF754F88348007830280FD065
:103DB000814800783B280BD07F480078312807D015
:103DC0007D480078332803D07B480078362805D119
:103DD000042211467648FDF73BF856E00022042104
:103DE0007348FDF735F850E06E480078022824D17A
:103DF000002204216F48FDF72BF86F480078302827
:103E00000FD06D4800783B280BD06B4800783128E4
:103E100007D069480078332803D0674800783628EF
:103E200005D1022211466248FDF712F82DE000226A
:103E300002215F48FDF70CF827E05A480078032874
:103E400023D1002208215B48FDF702F85A48007888
:103E500030280FD0584800783B280BD056480078BF
:103E6000312807D054480078332803D052480078CE
:103E7000362805D1012211464D48FCF7E9FF04E040
:103E8000002201214A48FCF7E3FF59203E4908700F
:103E900000F002FE00BF38E73F4A527802F00F02FE
:103EA0003D4B1B7803F00F0303EB830302EB43024C
:103EB000D0B2394AD27802F00F02374B9B7803F028
:103EC0000F0303EB830302EB4302D1B208B10328D3
:103ED00000DD704709B1FF2900DDFAE7421ED0B2CC
:103EE000314A32F810208A4200D1F2E72E4A22F8F5
:103EF000101000BFEDE72DE9F0410546062D01DD6C
:103F0000BDE8F081244802F08DFB064601F0B8FAC6
:103F100004462DBB294802F085FB064601F0B0FAA5
:103F200080464146204601F006F904461E48801EA0
:103F30008168204601F0CDF80446204601F074FA6D
:103F400006461F4A1F4B01F083FA04D31E49204640
:103F500001F0BCFA00D2D3E71348801E8460CBE0A6
:103F6000012D4BD1194802F05DFB064601F088FA9D
:103F700080464146204601F0DEF804460A48801E8D
:103F8000C16825E0BC120020B900002024000020F8
:103F9000B7000020B8000020C61200200000002258
:103FA000F2000020F300002036020020F400002080
:103FB0000040024000700240FA00002088130020F8
:103FC0009A9999999999C93F00004040921300200D
:103FD000204601F07EF80446204601F025FA064608
:103FE000E34AE44B01F034FA04D3E349204601F0FC
:103FF0006DFA00D284E7E148C4607DE0022D23D150
:10400000DF4802F00FFB064601F03AFA80464146CF
:10401000204601F090F80446D8480169204601F096
:1040200058F80446204601F0FFF90646D04AD14B25
:1040300001F00EFA04D3D049204601F047FA00D22D
:104040005EE7CE48046157E0032D1FD1CB48846260
:10405000CC480168204601F06EF80446C748416923
:10406000204601F036F80446204601F0DDF9064608
:10407000BF4AC04B01F0ECF904D3BF49204601F020
:1040800025FA00D23CE7BD48446135E0042D20D13B
:10409000BA48C462BC480168204601F04CF80446A6
:1040A000B6488169204601F014F80446204601F024
:1040B000BBF90646AE4AAF4B01F0CAF905D34FF043
:1040C0008141204601F002FA00D219E7AB48846131
:1040D00012E0052D07D1A949C869214600F0A1FFCA
:1040E000A649C86108E0062D06D1A449086A214600
:1040F00000F097FFA149086200BF01E710B5A3488F
:10410000407810B9A148047804E0A048C07808B904
:104110009E488478302C05DB3B2C03DC9C480078DF
:10412000A04200D110BD9B480068C8B904221146C6
:104130009948FCF78DFE022211469748FCF788FE4D
:10414000012211469448FCF783FE302C05D03B2C0D
:1041500003D030208E49087004E08D48047001E0DF
:104160008B48047000BFDDE770B58C4800780128EB
:1041700019D1002407E08A48055D05B905E08948A2
:104180000555601CC4B20A2CF5DB00BF0CB10A2C2B
:1041900000D170BD072283490020FFF749FB0120B1
:1041A0008149088000BF00BFF3E72DE9F0410446D4
:1041B00000257E480078592803D17D480078844244
:1041C00001D0BDE8F081714802F02CFA064601F0FA
:1041D00057F905460021284601F06EF904D37549C8
:1041E000284601F073F900D2EBE77348056000BF81
:1041F000E7E710B57148008800B910BD6F48008826
:10420000401E6E4908800020FFF7B6FB5F4800782B
:1042100068B96B480078432802D1FFF7B5FCECE79A
:1042200067480078512802D1FFF7E5FCE5E7002058
:10423000FFF729FB04464FF6FF70844200D1DCE70C
:104240005F480021016041600181132C4CD2DFE8FE
:1042500004F00A0B0E1114181C2024282C303336BD
:10426000393B3F43470040E0FFF7FCFC3DE0FFF7F0
:1042700033FD3AE0FFF710FE37E00020FFF73BFE8A
:1042800033E00120FFF737FE2FE00220FFF733FE77
:104290002BE00320FFF72FFE27E00420FFF72BFE83
:1042A00023E00520FFF727FE1FE00620FFF723FE8F
:1042B0001BE0FFF723FF18E0FFF756FF15E0FFF7BD
:1042C00027F912E0FFF740FA0120FFF76EFF0CE03C
:1042D0000220FFF76AFF08E00320FFF766FF04E013
:1042E0000120FFF762FF00E000BF00BF00BF84E7CE
:1042F00010B52D48008800B910BD32480068324919
:104300000988401A84B20A2C00DAF5E72F480078B1
:1043100018BB2F4800882F490988884213D02E489F
:10432000FDF7BAFE00B1E7E720212B48FDF7E5FED7
:104330000020FFF77FFB044620212748FDF7CAFD38
:10434000012C05D1D8E700202049087016490880C3
:104350001C4800681C49088008E0642C06DD002029
:104360001A490870174800681749088000BFC3E75A
:104370009A9999999999C93F0000404034020020C8
:104380009C130020D4000020D8000020C61200207A
:10439000FA0000200000002200400240240000201B
:1043A000F4660000481300209A000020B9000020A5
:1043B000F400002000004843E400002094000020A6
:1043C000BC1200202C0000209C0000208F00002048
:1043D000960000209800002000C0004070B5FE4804
:1043E0000078FE490978401AC0B2192820DBFA4843
:1043F0000078FA490870FA48006D00F0400028B9CA
:104400000020F8490870FDF7ECFA70BDF448046E1E
:10441000056FF548044005F0004018B9F3480068FE
:10442000844204D00020EF490870FDF7DAFA00BF9B
:1044300000BFEAE710B5EE480078592804D0ED48EF
:104440000068ED49088010BDEA480068EA4909881B
:10445000401A80B2B0F5FA6F00DAF4E7E548006878
:10446000E5490880E5480078E5490870E548407866
:104470004870E44800788870E3484078C870E248A3
:1044800000780871E14840784871E0480078887108
:104490000A4607210120FEF724FE00BFD3E70A46A3
:1044A000002100BF037803B905E0401C4B1CD9B2C2
:1044B0002829F7DD704700BF002108E0137803705A
:1044C000137803B9F6E7401C521C4B1CD9B20F29D4
:1044D000F4DB01D10023037000BFEBE710B5C44843
:1044E0000078592859D1CA480078592855D1002058
:1044F000C74908704021C74800F081FD4320C549E5
:104500000870572048703A208870BC4800780A210B
:1045100090FBF1F0C0B240F03000BE49C870B7481F
:1045200000780A2190FBF1F201FB1200C0B240F0CA
:104530003000B84908712C204871B749B548FFF7D9
:10454000AEFFB6A1B348FFF7AAFFB549B148FFF7E0
:10455000A6FFB2A1AF48FFF7A2FFB249AD48FFF7EF
:104560009EFFB1A1AB48FFF79AFFB049A948FFF7FA
:1045700096FFAAA1A748FFF792FFAD49A548FFF70C
:104580008EFFA9A1A348FFF78AFF0022A149104688
:10459000FFF74EF90120A749088010BD10B59448D7
:1045A0000078592859D1A4480078592855D10020BD
:1045B000A14908704021974800F021FD51209549FC
:1045C0000870572048703A2088708C4800780A217B
:1045D00090FBF1F0C0B240F030008E49C8708748BF
:1045E00000780A2190FBF1F201FB1200C0B240F00A
:1045F0003000884908712C20487187498548FFF7A9
:104600004EFF86A18348FFF74AFF85498148FFF79F
:1046100046FF82A17F48FFF742FF82497D48FFF7AE
:104620003EFF7EA17B48FFF73AFF80497948FFF7BC
:1046300036FF7AA17748FFF732FF7D497548FFF7CB
:104640002EFF79A17348FFF72AFF4022714900200D
:10465000FFF7EEF801207749088010BD10B57748C4
:104660000088C0F3C02058B16248006874490988C6
:10467000401A80B2642800DA10BDFDF76FFE18E022
:104680005C4800686E490988401A80B2B0F57A7FAC
:1046900000DAF1E70020FDF7F7FD564800686849A9
:1046A00008806648008820F4006000F500606349D7
:1046B000088000BFE0E72DE9F04F87B04C48007854
:1046C000592802D007B0BDE8F08F5C480088C0F3DD
:1046D000802000287ED05948008820F48060574907
:1046E000088008460088C0F30905284600F083FECC
:1046F000824654480168504600F0EBFC8046524820
:104700000169404600F0E5FC07464FF0894100F0A2
:1047100012FD81464D480168484600F0DAFC074624
:104720004B4900F008FD4B494B4A127841F82200F2
:1047300049480078401C484908704FF00009084675
:104740000078052847DB002008700524264609E08C
:10475000601E404A52F82010484600F062FC814634
:10476000601EC4B2002CF3DC304600F044FE074665
:104770003946484600F0DFFC81460021069800F0EB
:10478000A8FC0690CDF81890484600F04DFE07466C
:10479000324A334B00F00DFD824600F071FE814637
:1047A0003049484600F095FC8146484600F028FE16
:1047B00085B2280A154908704D70069800F034FE3D
:1047C00007463A460B4628A101A801F095FA15487C
:1047D00001994DE05DE05BE0340000203C000020EA
:1047E00000E00F4020000020F32FC00F1C0000202D
:1047F000B90000202C000020F6000020F20000206C
:104800002A130020C8000020CA000020CC0000208D
:10481000B700002048130020881300202C0000005F
:10482000921300209C1300200D000000A61300200E
:10483000B01300209A000020B800002014000020CF
:1048400016000020DC00002034020020E4000020DC
:104850000000A041E4130020BC000020FCA9F1D21C
:104860004D62403F00007A4425362E346600000039
:104870000160BDF8081081809DF80A1081715920EF
:1048800012490870124800886FF309001049088027
:1048900000BF00BF16E710B50E4800680E49097842
:1048A000401AC0B2142800DA10BD0A4800680A494C
:1048B000087080210948FCF7ADFDC043C4B2224610
:1048C00080210648FCF7C4FA00BFEDE7C7000020CE
:1048D000140000202C000020230000200050024083
:1048E00070B50446002500262AE06806050E102152
:1048F000FE48FCF78FFD08B145F0010504F080008B
:1049000028B180221146FA48FCF7A2FA04E00022FE
:104910008021F748FCF79CFA10221146F448FCF776
:1049200097FA5020FBF71EFC00221021F048FCF7FC
:104930008FFA5020FBF716FC6006040E701CC6B2FE
:10494000082ED2DB284670BD10B50024002220219D
:10495000E748FCF77DFAE748FBF704FC2022114604
:10496000E348FCF775FAE448FBF7FCFB0022102152
:10497000DF48FCF76DFA00222021DC48FCF768FADA
:104980005020FBF7EFFBFF20FFF7AAFF0446FF20B4
:10499000FFF7A6FF0446FF20FFF7A2FF0446FE2014
:1049A000FFF79EFF04464020FFF79AFF04460020D1
:1049B000FFF796FF04461020FFF792FF044662209F
:1049C000FFF78EFF04465C20FFF78AFF04460020B5
:1049D000FFF786FF04460020FFF782FF0446002011
:1049E000FFF77EFF04464C20FFF77AFF04461820AD
:1049F000FFF776FF04466A20FFF772FF04460020A7
:104A0000FFF76EFF04467420FFF76AFF044680201C
:104A1000FFF766FF04460020FFF762FF0446002010
:104A2000FFF75EFF04465020FBF79CFB2022114657
:104A3000AE48FCF70DFA10BD10B54021AC48FCF7AC
:104A4000BCFC00221021AA48FCF702FA0022202117
:104A5000A648FCF7FDF910BD10B520221146A34869
:104A6000FCF7F6F94021A248FCF7B5FC4021A0482C
:104A7000FCF79DFC10BD10B50024FFF7DDFF5020B2
:104A8000FBF770FB9020FFF72BFF04465020FBF74D
:104A900069FBFFF7E1FF10BD10B50024FFF7CCFF65
:104AA0005020FBF75FFBA020FFF71AFF04465020C1
:104AB000FBF758FB202211468C48FCF7C9F950201F
:104AC000FBF750FB002210218948FCF7C1F90022B6
:104AD00020218648FCF7BCF95020FBF743FBE82077
:104AE000FFF7FEFE04465020FBF73CFBFFF7B4FF48
:104AF00010BD2DE9F04F9BB04FF0000B0020199036
:104B00007E480078592802D01BB0BDE8F08F7C4861
:104B100000687C490988401A80B2B0F5FA6F0BDD55
:104B2000FFF712FF76480068764908804FF4C360AB
:104B3000FBF718FBFFF7B0FF73480078592800D047
:104B4000E2E70020704908707049C870704800782A
:104B500088706F48407848706D48807808706D485C
:104B6000006800F061FC4FF033326B4BCDE910016F
:104B700000F0C6FBCDE9120100F082FC0546634956
:104B8000086800F038FC2946129000F0A2FA4FF0B5
:104B90009741139000F0CFFA0546604841692846D6
:104BA00000F097FA05465D48C169284600F08BFA87
:104BB000054600205549C870594800788870584803
:104BC00040784870564880780870564951480068C7
:104BD00000F07FFA06464D49086800F00CFC3146AB
:104BE000129000F076FA4FF09741139000F0A3FA7C
:104BF00006464A488169304600F06BFA0646474847
:104C0000016A304600F05FFA064600203F49C8704E
:104C10004548007800F07F0088704348407848702D
:104C2000414880780870086800F0E5FB3F49109023
:104C300000F081FA3C491290097801F08001CA170E
:104C4000139101EB5261C911484200F0CBFB119066
:104C5000129900F0E6F93649364A127841F82200F6
:104C60002946284600F035FA33490C9000F063FAE3
:104C70000D9000F0D9FBCDE910012849886800F0BB
:104C8000D3FBCDE90C012348006800F0CDFBCDE952
:104C900008012048006800F0C7FBCDE90401244961
:104CA000244A127851F8220000F0BEFB234A244B1C
:104CB000CDE9000100F024FBCDE90201DDE9042388
:104CC00000F01EFBCDE90601DDE9082300F018FB2A
:104CD000CDE90A01DDE90C2300F012FBCDE90E015C
:104CE000DDE9102300F006FB2CE00000005000403E
:104CF00000700040400D0300801A0600B90000203B
:104D00002C000020F0000020BA000020E800002065
:104D1000C0000020E000002033636D40340200201A
:104D2000C30000200000C842BD000020FEFFFF4A73
:104D3000BC130020BB000020A033744AC2F5285CDD
:104D40008F8247C0CDE9120100F09AFB8B498C4A53
:104D5000127841F822002946284600F0BAF989491C
:104D6000119000F0E8F931461390284600F0B1F9AF
:104D70008549119000F0DFF91290139900F0A3F922
:104D800082497F4A127841F8220081487C4909789B
:104D900040F821507F487A49097840F821607848E6
:104DA0000078401C764908700020064605460846F3
:104DB000007805287EDB002008700524A24621E04B
:104DC000601E6E4A52F82010284600F02AF9054667
:104DD000601E6E4A52F82010304600F022F9064656
:104DE000601E6B4A52F82010584600F01AF98346AC
:104DF000601E684A52F82010199800F012F91990B4
:104E0000601EC4B2002CDBDC504600F0F4FA014610
:104E10001390284600F08FF90546504600F0EBFA53
:104E200001461390304600F086F90646504600F0E1
:104E3000E2FA01461390584600F07DF98346504649
:104E400000F0D9FA01461390199800F074F91990FE
:104E5000A846B146284600F0E7FA4F4A4F4BCDE945
:104E6000100100F0A6F9CDE9120100F009FB05469A
:104E7000304600F0D9FA484A484BCDE9100100F01D
:104E800098F9CDE9120100F0FBFA06463E492846A2
:104E900000F01FF905463C49304600F01AF9064675
:104EA000284600F0ADFA87B2380A3D4908704F70C5
:104EB000304600E05FE000F0A3FA87B2380A3949D3
:104EC00008704F70584600F0AFFA02460B46CDE925
:104ED000120135A114A800F00FFF354814990160A4
:104EE000BDF8541081809DF856108171199800F01A
:104EF0009BFA02460B46CDE912012BA114A800F043
:104F0000FBFE2C4814990160BDF8541081809DF877
:104F1000561081712848C0F800B0284919980860D7
:104F2000404600F081FA02460B46CDE912011EA16F
:104F300014A800F0E1FE224814990160BDF8541055
:104F400081809DF856108171484600F06DFA024646
:104F50000B46CDE9120114A114A800F0CDFE1948AA
:104F600014990160BDF8541081809DF8561081712C
:104F700059201549087000BFC6E50000BC13002089
:104F8000BB000020A033744A00007A44D0130020F4
:104F9000F81300200C140020FCA9F1D24D62403F10
:104FA000C8000020CA00002025362E34660000000C
:104FB000A6130020B0130020D4000020D800002049
:104FC0008813002092130020C600002040EA01034D
:104FD0009B0703D009E008C9121F08C0042AFAD2AF
:104FE00003E011F8013B00F8013B521EF9D2704773
:104FF000D2B201E000F8012B491EFBD2704700221B
:10500000F6E710B513460A4604461946FFF7F0FFC7
:10501000204610BD421C10F8011B0029FBD1801A4C
:105020007047F0B480EA0102D40F4200B2EB410FA6
:1050300002D20246084611464A0042D0C30DDDB2F4
:10504000C1F3C752AD1A202D35DAC1F3160141F470
:10505000000204B15242C5F1200602FA06F12A41CB
:105060001044B3EBD05F23D0C4B1012DA0EBC350EB
:1050700009DCF0BC4FF0004202EAC352DBB200F59B
:10508000000000F0ECBA400000F1807000EBC3506B
:10509000A0F1807040EAD170490009E0490841EA76
:1050A000C071A0EBC35000F50000400800EBC350F6
:1050B000F0BC00F0CBBA6142012202EB4101001BBF
:1050C000F6E7F0BC704781F00041AAE780F00040AD
:1050D000A7E780EA010210B502F00043400022D0A9
:1050E0004A001FD0010E01EB1261C0F35600C2F35B
:1050F000560240F4000042F40002A0FB022000042B
:105100007F39140400D0401C50EA124001D4400002
:10511000491EC2B20C0604EBD010401C4008802A85
:1051200002D003E0002010BD20F00100002900DAC9
:105130000020184310BD30B480EA010202F000459F
:1051400030F0004221F0004013D090B1C30DD40DD7
:10515000C2F31601C0F31600E41A41F4000140F452
:1051600000027D34914201D3641C00E04900002C10
:1051700002DA30BC002070474FF400000023914257
:1051800001D3891A034340084FEA4101F7D151B1D5
:10519000914202D14FF0004105E002D24FF00101EF
:1051A00001E06FF0010103EBC450284430BC00F073
:1051B0004DBA2DE9FE4F804681EA0300C00F0C4630
:1051C000009021F0004123F00045B8EB0200A94116
:1051D00005D24046214690461C460B46024623F027
:1051E0000040104347D0270DC7F30A00C3F30A510C
:1051F0000290401A019040286BDAC3F3130040F488
:10520000801B0098924620B10023D2EB030A63EB87
:105210000B0B01985946C0F14002504600F0A7F927
:1052200006460D4650465946019A00F0AFF910EB7C
:1052300008006141002487EA115284EAE7731A43A7
:1052400040D0009A62B3019A012A4FEA075215DC56
:10525000001B61EB02014FF0004202EA0752CDE968
:105260000042001C41F5801132462B4600F034FA12
:1052700003B0BDE8F08F40462146F9E7001B61EB23
:105280000201001C41F5801300185B412018A2F5B3
:10529000001747EB030140EAD570B6196D4111E0E4
:1052A0006D084FEA360645EAC0754FEA0752001B03
:1052B00061EB0201001C41F5801149084FEA300002
:1052C0000019514132462B4603B0BDE8F04F00F0C3
:1052D000F4B90098012240000023D0EB020263EBF6
:1052E000E073009821464FEAE074B8EB000061EBF0
:1052F0000401E9E783F000435BE781F0004158E7F0
:105300002DE9FE4F81EA030404F0004421F000413E
:1053100000944FF0000B23F0004350EA01045ED0EC
:1053200052EA03045BD0C3F30A54C1F30A552C4478
:10533000A4F2F3340194A0FB0254C1F3130141F42D
:105340008011C3F3130343F4801301FB024400FBF9
:10535000034E840A970A44EA815447EA8357A4FB20
:10536000076802958D0A05FB07854FEA932C04FB1D
:105370000C542705029D4FEA065847EA1637B5EB4D
:1053800008056EEB070C870E920E47EA811742EA7A
:105390008312A7FB0201B6EB0B0164EB00042B0D9B
:1053A00043EA0C335E1844EB1C50DA465146E7FBE7
:1053B0000201C5F313044FEA0B3343EA14534FEAD7
:1053C0000432019C43EA0603A4F10C040294009CFD
:1053D000CDE900B400F080F903B0BDE8F08F002003
:1053E0000146F9E7C10F80EAE0700844CA07962336
:1053F000002100F034B996230022114600F02FB9A5
:1054000020F00040C10DC0F3160040F400007F29D9
:1054100001DA00207047962903DCC1F19601C840EB
:10542000704796398840704700F0004230F00040E5
:105430000AD0C10D01F56071C0F3160042EA0151B6
:10544000C208400711437047002001467047000022
:1054500030B5041E71F1000404DB4FF000444042FB
:1054600064EB0101141E73F1000405DB1C464FF0D0
:105470000043524263EB04038B4208BF824230BDBB
:1054800001F0004330B421F0004150EA010206D09F
:105490000A0DA2F56072C1F31301002A02DC30BCD0
:1054A00000207047440F44EAC104C100E01830BC3A
:1054B00000EBC25000F0CAB8002801DBC0F1004088
:1054C000002901DBC1F1004181427047002801DB66
:1054D000C0F10040002901DBC1F100418842704762
:1054E00030B50B46014600202022012409E021FAB4
:1054F00002F59D4205D303FA02F5491B04FA02F5B1
:105500002844151EA2F10102F1DC30BD2DE9F05F47
:105510000546002092469B46884606468146402422
:105520001BE0284641464746224600F0D5F953463F
:105530005A46C01A914110D311461846224600F02F
:1055400016F82D1A67EB01084F462246012000216C
:1055500000F00DF817EB00094E41201EA4F10104E4
:10556000DFDC484631462A464346BDE8F09F202A04
:1055700004DB203A00FA02F1002070479140C2F1AA
:10558000200320FA03F3194390407047202A06DBDA
:10559000CB17203A41FA02F043EAE07306E041FA01
:1055A00002F3D040C2F120029140084319467047EF
:1055B0000FB4002300B589B00CA900910B996FF0CE
:1055C0000042CB601E4B06931E4B07930423CDE98C
:1055D00001321D4A089202466B46002000F012FA82
:1055E00009B05DF814FB70B586B006464FF0FF3089
:1055F0000091CDE90101002015460C460490324689
:10560000694604A8FFF7D4FF02460498211825B183
:1056100008B1084600E020462860049800280DD014
:10562000002A02DD0098884208D0081B0094CDE9CA
:1056300001043246694604A8FFF7BAFF06B070BD00
:105640003D5C00005B5C0000F95800000029A8BF29
:105650007047401C490008BF20F00100704710B49B
:10566000B0FA80FC00FA0CF050EA010404BF10BC50
:10567000704749B1CCF1200421FA04F411FA0CF17D
:1056800018BF012121430843A3EB0C01CB1D4FEAB6
:1056900000614FEA102042BF002010BC704700EBB1
:1056A000C35010440029A4BF10BC7047401C4900DF
:1056B00008BF20F0010010BC704710B5141E73F134
:1056C000000408DA401C41F1000192185B411A43C2
:1056D00001D120F0010010BD2DE9F04D92469B460E
:1056E00011B1B1FA81F202E0B0FA80F220329046B4
:1056F000FFF73DFF04460F4640EA0A0041EA0B016E
:1057000053465A46084313D0114653EA010019D0B4
:10571000C8F14002504600F0DFF805460E465046FC
:1057200059464246FFF723FF084305D0012004E015
:1057300020463946BDE8F08D0020054346EAE07674
:105740002C4337430A986305E40AA0EB08000022C3
:10575000FD0A44EA47540A3002D500200146E9E731
:10576000010510196941DDE9084500196941BDE8E5
:10577000F04DA2E72DE9F04D81EA030404F0004B5F
:1057800021F0004514464FF0000A23F0004150EA92
:10579000050220D054EA01021DD0C5F30A57024683
:1057A000C5F31303C1F31300C1F30A5640F4801587
:1057B00043F48013A7EB0608101BD64608F2FD3809
:1057C00073EB050002D308F1010801E092185B4178
:1057D000B8F1000F03DA00200146BDE8F08D00208B
:1057E0004FF48011064684460EE0171B73EB050745
:1057F00005D3121B63EB050306434CEA010C490871
:105800004FEA300092185B4150EA0107EDD152EAAD
:10581000030012D082EA040083EA0501084305D0A0
:10582000101BAB4106D20122002306E000224FF0FC
:10583000004302E06FF0010253101AEB06004CEB3C
:10584000085110EB0A0041EB0B01BDE8F04DFFF7EA
:1058500034BFC1F30A52C1F3130140F2FF3341F4E4
:1058600080119A4202DA00200146704740F2334329
:105870009A42A2F2334202DC524200F02DB8FFF706
:1058800076BE000030B5041E71F1000404DB4FF059
:105890000044404264EB0101141E73F1000405DB77
:1058A0001C464FF00043524263EB0403994208BF89
:1058B000904230BD064C074D06E0E06840F0010321
:1058C00094E8070098471034AC42F6D3FAF744FC4A
:1058D0000869000048690000202A04DB203A21FA08
:1058E00002F00021704721FA02F3D040C2F12002F9
:1058F0009140084319467047C0B24FF4F05100F090
:10590000BDB900002DE9FF4F087881B09946FF2806
:1059100005D0491C2D2804D00024002308E00023D2
:105920000BE00124F9E703EB830300EB4303491C7D
:105930000878FF28F7D104B15B420020009014786A
:1059400001462D2C01D02B2C04D1521C2D2C12D011
:105950000024009400251678FF2E0ED00A24A0FB08
:1059600004C801FB0481002700FB0711521C16EB41
:105970000C006941EFE70124EBE7994450EA01028A
:105980000ED00024AA4D2646DFF8A88200F08AF93E
:1059900082468B46B9F1000009DAC9F100071BE025
:1059A00001980021C0E9001105B0BDE8F08F07465D
:1059B00012E0F80707D022462B4630464146FFF753
:1059C0009FFC0646884622462B4610461946FFF79E
:1059D00097FC04460D467F10002FEAD1B9F1000F65
:1059E000324643465046594602DAFFF7C3FE01E00D
:1059F000FFF786FC009A0AB181F00041019AC2E9E2
:105A00000001D1E72DE9FF4F1F468DB0D7E90146D0
:105A10004FF0FF382E2045464FF000090B90B96932
:105A20006D1C0E988847396A824688470028F6D14F
:105A3000BAF1FF3F0AD024F4D064002E11DDBAF190
:105A40002B0F08D0BAF12D0F0BD102E0404611B058
:105A5000ABE744F48064B9696D1C0E9888478246B0
:105A6000761E6946600501D52D2000E02B208DF8BB
:105A7000000001F1010B0DF1200809E0B9696D1C6E
:105A80000E98884782460F9844F40074761E05608D
:105A9000002E02DDBAF1300FF0D00B998A453ED1CD
:105AA00044F0800406E00F99681CA9F1010944F450
:105AB00000740860B9696D1C761E0E98884782468E
:105AC0003028F0D02BE00B998A4505D1200603D46D
:105AD00044F08004761E18E0504600F0FFF908B349
