:020000040000FA
:10000000AC0B002051000000310100203301002022
:1000100035010020350100203501002000000000DE
:1000200000000000000000000000000023010000AC
:1000300035010020000000003501002045020020AD
:100040003501002035010020350100203501002058
:100050004FF0080149F640400138FDD10139F9D18E
:1000600000F011F800F024F800F074F818B100F076
:1000700076F800F079B84FF44060304908600168C4
:100080008D46406800472E48016841F01B01016021
:100090002C48016840F2F33242F480226FEA0202F7
:1000A00001EA020141F4607141F002010160704710
:1000B000EFF3108072B6002200234FF0005050F88A
:1000C000041B452905D150F8041B452901D14522BF
:1000D00003681D4840F8042B40F8042B03600020FF
:1000E0004FF00051194A50F8043B41F8043B91424B
:1000F000F9DB0020164A41F8040B9142FBDB0F4864
:100100004FF0005101604EF0005EEFF3108062B6D8
:100110007047EFF3108072B67047EFF3108062B64D
:100120007047FFF7C5FF00200068854600F01CB847
:10013000FEE7FEE7FEE70138FDD1704708ED00E07D
:1001400034E00F4060E00F40DC0A0020640A002029
:10015000640A002040F2751CC2F2000C604740F2B5
:10016000792CC2F2000C604740F2073CC2F2000C4E
:100170006047000010B52A4C206840F00400206061
:10018000C82000F049FC206840F04000206025496C
:1001900000200860FF20091D086022490C3108601A
:1001A000C82000F039FC204800682049401CC0B23B
:1001B0000870216821F0400121601D490A68452A24
:1001C00002D14A68452A13D088604FF4406108681C
:1001D000421C0BD04FF40072B2EB105F06D148689E
:1001E000411C03D013490840012803D0012010BD51
:1001F000012010BD1048016841F0200101600E4847
:100200000C38016841F0200101600C4800F004FC4A
:100210000B48006808B1002010BD012010BD00008F
:1002200008E10F4010650240FC630240460A0020CE
:10023000DC0A00200100F0FF1C650040801A060067
:100240008060004010B5BD484169491C4161017999
:10025000491C0171406910F0FF0F0CD1B84C80218E
:10026000204600F082FBC043C2B22046BDE81040E9
:10027000802100F07DBB10BD70B5B24C54F8640C09
:1002800020F0010044F8640C4CF2503000F0C4FB44
:1002900054F8640C20F0300044F8640C0725E5673E
:1002A00000F092FB00F049FB00F02CFA00F074FA29
:1002B000A2498020087041F2883000F0ADFB4FF079
:1002C000E02041F63F7141610561606C40F0010042
:1002D0006064206C40F0010020649B48016841F09C
:1002E000030101609848FC30016841F0030101609E
:1002F000964834214162052181627021C16240F239
:100300000131016370BD08B58C4D914828614FF0F3
:10031000FF30E86000262E71EE70DFF834828D4FDA
:100320004FF0400BA8F103080124752000906946A6
:10033000286900F029F90028F7D1286901782039C7
:100340000A2973D2DFE801F0050A46737BD8EEEE86
:10035000E0E885F801B000F00EF9E6E785F801B0B5
:100360000098092802D0422068702CE0D8F80400D8
:1003700000BAE860D8F8081009BAA960714AC43A0E
:10038000926892B2521CD202EB7803B110B1B0F570
:10039000406F04D10144914201D8810702D043202B
:1003A000687010E07C616C4B06E03860BB60B96837
:1003B0008907FCD400F580609042F6D3F868C00746
:1003C00001D0442068706878402800D0AE6000F00A
:1003D000D2F8AAE700F0CFF80098052802D0422012
:1003E0006870A2E7D8F8040000BAE8605549C4393B
:1003F000896801F48031C902884202D343206870C1
:1004000093E700F029F94F48C438C0F80461C0F8F8
:10041000086141F2130141640B21816446648664E2
:10042000E86880474E494D480860FEE77AE000F0F2
:10043000A2F842480121401C00F0E9F875E785F870
:1004400001B0E86898B97C610020434A4FF44063EA
:100450003860BA60B9688907FCD400F580609842BA
:10046000F6D3F868C00702D0AE60442068700099E7
:10047000491E0091D5F808A08A4528D37C61002048
:10048000354B01F1030C5B1E2CF00309EA6810E008
:1004900002EB000CC7F800C004EB900C58F82CC01D
:1004A000C7F804C0BB60D7F808C05FEACC7CFAD1BB
:1004B000001D8145ECD8F868C00702D04420687060
:1004C00007E0AAEB0100A8605018E86001E04320B3
:1004D00068702878401CC0B22870410709D5000612
:1004E00003D52E7000F07CF903E08020287000F026
:1004F00053F900F040F818E700F03DF800F0ACF8D0
:10050000174916480860FEE70099022996D14178FC
:100510000F487530816008E7009902298ED1407834
:10052000E87002E700F027F80948A978753080687C
:100530008842E0D141206870F7E60000440A0020BC
:1005400000500240C4E00F402044004000C0004082
:10055000670A002000D00F40020042A40400FA0500
:100560000CED00E0002202E010F8013B1A44491EA5
:10057000FAD2D0B270470221364800F075B835483B
:100580000221801C00F070B82DE9FC4105460E46A2
:1005900000200190012101A800F078F80028F9D08E
:1005A00001980328F6D3CC28F4D00198801E01903E
:1005B0000121684600F06AF804464FF0FF37A4B105
:1005C00030680199884212D3284600F05FF838B1AC
:1005D00028460199FFF7C6FF0099C9B2884212D098
:1005E000FFF7CDFF3846BDE8FC813846FBE7012127
:1005F000284600F04BF80199491E01910CB10029E1
:10060000F5D13846EFE7019830600020EBE713B5ED
:1006100082B0044620460399FFF7A4FF0190039897
:10062000801C0390012103A800F01EF8012101A8FD
:1006300000F01AF803992046891E00F015F80020F2
:100640000190012101A800F021F804B04FF0FF3023
:1006500010BD0000220A0020184881690906FCD557
:1006600081690907FCD47047154A9268154B1B78BD
:100670009A420AD1114A05E093699B06FCD410F80E
:10068000013B1360491EF7D2E6E7704730B50E4ACA
:1006900000251570094B04E01478642C01D9002062
:1006A00030BD9C69E406F7D41C6800F8014B157056
:1006B000491E0029F5D1FF2030BD000000C00040D8
:1006C000DC0A0020460A0020480A002010B5C0F3CA
:1006D0000321484B032901D20A4601E04FF00202F0
:1006E00003EB8202D2F800214FF0010404FA00F477
:1006F00042EA040201D34FF0020103EB8100C0F88B
:10070000002110BD70B53C4C0721204600F071F966
:100710004FF0402500221021284600F029F940F230
:10072000712000F079F910221146284600F020F9D6
:1007300041F66A0000F070F9A421204600F062F949
:10074000BDE870404FF2244000F066B92DE9F04159
:100750000546294F0F21384600F04BF90024274E5B
:1007600045EA04000202902D0AD0315D114338465B
:1007700000F048F9641CE4B2082CF1D3BDE8F08124
:10078000315D01F07F031E2B02D21D48C05C024385
:1007900001F080011143EAE730B4184816210170D6
:1007A0001B21417081701921C170152404711549F4
:1007B00009780A23B1FBF3F203FB1211C171B2FBFA
:1007C000F3F103FB11228271002905D0B1FBF3F292
:1007D00003FB1211417100E0447130BC9020B5E779
:1007E0000020064A15211154401CC0B20828FAD333
:1007F0009020ABE700E00F40008000405C0A002042
:10080000260A0020460A002010B5D40703D0D0F8ED
:1008100000450C4302E0D0F800458C43C0F8004589
:10082000940703D5D0F804450C4302E0D0F8044502
:100830008C43C0F80445540703D5D0F808450C4351
:1008400002E0D0F808458C43C0F80845120703D5EC
:10085000D0F818250A4302E0D0F818258A43C0F8DA
:100860001825DA0703D0D0F80C250A4302E0D0F8A7
:100870000C258A43C0F80C259A0703D5D0F810251B
:100880000A4302E0D0F810258A43C0F810255A0721
:1008900003D5D0F814250A4302E0D0F814258A4382
:1008A000C0F814251A0703D5D0F81C250A4302E026
:1008B000D0F81C258A43C0F81C252BB1D0F8282578
:1008C0008A43C0F8282510BDD0F828250A43F8E748
:1008D000D30703D0D0F800340B4302E0D0F8003443
:1008E0008B43C0F80034920703D5D0F820240A4384
:1008F00002E0D0F820248A43C0F82024704730B5A5
:1009000004460D46012229462046FFF7E1FF29460D
:100910002046BDE830400823012275E730B5044683
:100920000D46022229462046FFF7D2FF29462046DF
:10093000BDE830400823012266E710B54FF440704F
:10094000FFF7C4FE4FF0402410212046FFF7D7FFE9
:100950002C212046FFF7E2FF40F20530FFF7B6FEFC
:10096000BDE8104080210448C9E750F821007047D5
:1009700040F821207047000000500240416841F0DB
:1009800002014160704770B5DDE90465022B17D0A4
:100990000024BBB1042323434360B1FBF6F40021E0
:1009A000891CB4FBF1F35B1EFF2BF9D801619401A4
:1009B00002F0300144EA03220A432A43026070BD78
:1009C0000824E6E70023E6E71CB54FF48270FFF742
:1009D0007DFE072044F62061CDE900100D4C002378
:1009E0001A460B492046FFF7CEFF2046BDE81C40C3
:1009F000C4E7C268D207FCD0026822F00F020A43A3
:100A000002607047C2689207FCD5816070470000A1
:100A100000127A000080004040F2371CC0F2000C47
:100A2000604700CC00337E306D79335B5F707F7B35
:100A3000777F4E7E4F477B370E7701001F3D3E0F7D
:100A4000151D677600000000000000000000000097
:100A50000000000000000000000000000000000096
:040A60000000000092
:0400000500000051A6
:00000001FF
